:100000000C9417040C943F040C943F040C943F048C
:100010000C943F040C943F040C943F040C943F0454
:100020000C943F040C943F040C943F040C94D80CA3
:100030000C943F040C943F040C943F040C943F0434
:100040000C948E0C0C943F040C94F20A0C94CC0A81
:100050000C943F040C943F040C943F040C943F0414
:100060000C943F040C943F040101FF030101F703CA
:100070006C00680000000000240027002A00000037
:100080000000250028002B000500893008023802F6
:1000900049786814000053686970777265636B0073
:1000A000300B0F8F8F7FCFF031C70638C73870E71E
:1000B0000C38473860E708300638E0E3183306307C
:1000C000E0E3307E0FE0E0E330720EC0E0C3E070AA
:1000D0000CE0E1C3C0608C606381C0E19C703E01B4
:1000E00081FFBE3C380B0FC0607C1F7FC038C0E072
:1000F0003C3C38C06040F03C3C38406041F02C7CD7
:100100003000E001302E583300E002306E987E005F
:10011000C7E7F06E987200E1843847387000E18CD0
:100120003847386080739838C638E1803F3C7DE6B8
:10013000FDFF80300D0FEFEFFFFFFC38382840182F
:1001400006671C6CE39C62458C49A2D462CC8C5B34
:1001500027F4E2888E72664CE6888A6640C80C886E
:100160008A64468898899A0C47E9888B1218CDB919
:10017000CCCE33118F31C660E1310020E23F81E106
:10018000FFFFBE380D0FF0787F1FFFF03810C84119
:1001900030401063908C6121E3904ED18421612224
:1001A000D0C8510429C127F088736468D366408F92
:1001B000FEE448B240C09C0C0648B246808F3DE247
:1001C0005C6247E08F3922D462CDA0C633639CE3E2
:1001D0008F206061410C8100203FFF7FFFFFFFE027
:1001E000416C72656164792073686F74207468650E
:1001F000726521004D6973732E2E2E0048495421DB
:10020000212100436172726965722073756E6B21E2
:1002100000426174746C6520736869702073756E38
:100220006B210044657374726F7965722073756E0B
:100230006B21005375626D6172696E652073756E16
:100240006B2100437275697365722073756E6B2143
:1002500000580A400001000800000000C0084000EB
:10026000008004000000013030200000787C000095
:1002700000010FC010000047820000000200000CC7
:10028000000180018000000C000003800E0000408F
:100290000000100000007FF00000380000E00000C7
:1002A000000000000007800F0000000000000000B8
:1002B000007FF000000000000000000000000000CF
:1002C00000580A3FFFFEFFF7FFFFFFFF3FF03FFF31
:1002D000FF7FFBFFFFFFFE0FC01FFFFF8783FFFFB6
:1002E000FFFE00000FFFFF8001FFFFFFFC00000387
:1002F000FFFE00007FFFFFF00000007FF000003FE6
:10030000FFFFE00000000000000007FFFF0000000A
:100310000000000000007FF000000000000000006E
:1003200000000000000000000000000000000000CD
:1003300000580E2100010020002000800004210050
:100340000100400040008000041080008040004018
:10035000008000020840004040004000400001874B
:10036000B000302000200040001040FF003E100090
:1003700020002000283F50FFE1F80010001800C7BF
:100380000020CC4007007C003603C0003070401CC9
:10039000FFA300C1FC20004F8C40200420FF01007F
:1003A00020004003E01004183183C0C0E380001C2B
:1003B0003C1B37C07C3F3C1C000003C3E0C0000076
:1003C0000003000000000000000000000043616E18
:1003D0002774206F7665726C617020626F61747330
:1003E000000500380168010000401E000000000008
:1003F00000000000000000000000000000000000FD
:1004000000000000000004000000000000000300E5
:1004100000000000000004000000000000010600D1
:100420000000000000070B800000000000077D0EA8
:1004300000000000028FFFF81231FF7FFFFFFFFF77
:10044000FFFFFC3FFFFFFFFFFFFFF80FFFFFFFFF76
:10045000FFFFF8FFFFFFFFFFFFFFFF555555555505
:10046000555555AAAAAAAAAAAAAAAA555555555594
:10047000555555AAAAAAAAAAAAAAAA555555555584
:10048000555555AAAAAAAAAAAAAAAA555555555574
:10049000555555AAAAAAAAAAAAAAAA555555555564
:1004A000555555AAAAAAAAAAAAAAAA555555555554
:1004B000555555AAAAAAAAAAAAAAAA555555555544
:1004C000555555AAAAAAAAAAAAAAAA555555555534
:1004D000555555AAAAAAAAAAAAAAAA175344001609
:1004E0001378001613140015102000152010005466
:1004F0000A03E181867F3E186D830F0F0E0183860C
:100500006033186DC3198F1803C38E6033186DE301
:1005100030CF1803C39E603630CDE360CF3006C7BE
:100520009E7E3E30CDB360CF300CC6F6603330D9FE
:10053000B660CF33CFCCF66061B0DB1E60CF30D871
:100540006CE6C061B0DB1E618F19986CC6C063B1E8
:100550009B0E330F0FB078C6FF7E1F1B061E0F4584
:100560000068010000F6E8DBCFC3B8AEA49B928A16
:10057000827B746E68625C57524E4945413E3A3701
:1005800034312E2C29272523210A0A153A49676E72
:100590006F7265006D560A0A504C45415345205410
:1005A00055524E204F464620004C4F572042415452
:1005B0005445525921200003053F213F1208120AD9
:1005C000100A0E1C0E0C1E0C141A14161F161E13E5
:1005D0001E1E1B1E1E1F1E3F213F3A2F3A173D179E
:1005E0003F213F181F02040A041F0E04040E1F0AB5
:1005F0001F0A0E0E1F04110E2E252E2F2A2E26291D
:1006000029021F02081F08150E04040E150E1515E9
:100610001B151B040604040C040000000017000353
:1006200000031F0A1F16371A1904130A153A00038C
:1006300000000E11110E000A040A040E040030001E
:100640000404040010001804031F111F121F101DC2
:10065000151711151F07041F17151D1F151D010163
:100660001F1F151F17151F000A00003200040A1172
:100670000A0A0A110A040115020E11171E051E1F8F
:10068000150A0E110A1F110E1F15111F05010E115B
:100690001D1F041F111F1108100F1F041B1F101016
:1006A0001F061F1E040F0E110E1F09060E112E1F0E
:1006B000051A121509011F011F101F0F180F1F0C1B
:1006C0001F1B041B031C03191513001F110304181F
:1006D000111F000201022020200001020C121E1F27
:1006E000120C0C12120C121F0C1A14041E05242AD0
:1006F0001E1F021C141D1020201D1F0814111F1086
:100700001E041E1E021C0C120C3E0A040C123E1E7D
:10071000040214160A020F120E101E0E100E1E08EE
:100720001E120C1226281E322A26041E21001F002B
:10073000211E040102013F213F172B152010204CE0
:100740004F4144455200172B16201314005368697B
:1007500070777265636B000A4E6F205344206361AB
:100760007264206F720A6E6F204C4F414445522EC6
:100770004845580A0A153A45786974001D20466CA8
:10078000617368696E670A20206C6F616465722E00
:100790002E2E0A0A444F4E2754205455524E204FB5
:1007A0004646210000000000230026002900040422
:1007B0000404040404040202020202020303030309
:1007C00003030102040810204080010204081020E5
:1007D00001020408102000000008000201000003CC
:1007E000040700000000000000000804787C7C780A
:1007F00010047F80FFE0FFE07F8010047FFCFFFF9C
:10080000FFFF7FFC18047FFFE0FFFFF8FFFFF87F8A
:10081000FFE02004FFFFFF00FFFFFFC0FFFFFFC05E
:10082000FFFFFF000500680138010000F41D1124DE
:100830001FBECFEFD8E0DEBFCDBF12E0A0E0B1E039
:10084000E0E1F0E402C005900D92A436B107D9F7BB
:1008500025E0A4E6B2E001C01D92AD39B207E1F790
:1008600014E0C7E1D4E004C02197FE010E946F1E8E
:10087000C631D107C9F70E9448150C9406200C9484
:1008800000004F925F926F927F928F929F92AF92F1
:10089000BF92CF92DF92EF92FF920F931F93CF936D
:1008A000DF9300D000D01F92CDB7DEB74091960500
:1008B0005091970560919805709199052FB7F8941C
:1008C00080916F0290917002A0917102B0917202BA
:1008D0002FBF481B590B6A0B7B0B8091950590E04D
:1008E000A0E0B0E000919105109192052091930550
:1008F0003091940584179507A607B70730F40115C2
:1009000011052105310509F030C3012B022B032B02
:1009100009F029C380912D0581508E3F30F58091DB
:100920002C05813039F5809140058F5F609141053C
:1009300087FD09C0082E000C990B70E06F5F7F4F98
:100940000E94471E682F6093400586E497E09093CD
:100950009B0580939A0588E480939C0540E06FE5B1
:1009600075E08BE395E00E942C0D80912D05815060
:100970008E3F70F480912B05813009F0A2C389E38A
:1009800097E090939B0580939A0588E480939C055B
:1009900080E00E94351280913C05882309F4ADC0A7
:1009A000809150058111A9C0809148059091490519
:1009B000E0914D05F0914E05EE0FFF1FE80FF91F76
:1009C000459154914115510501F520914C05222383
:1009D00031F010924E0510924D05FC0114C010929A
:1009E0003C0580913B05882341F080E00E94351250
:1009F000E0914D05F0914E052FC060E08BE395E04E
:100A00000E941B0D7AC0459154919A013695279505
:100A10003695279540FF51C0CA0116E096958795F7
:100A20001A95E1F78F71952F969596959695905119
:100A30002F70223071F1F8F4211117C08B3008F0BB
:100A40008AE080935105E0914D05F0914E05319675
:100A5000F0934E05E0934D05EE0FFF1F8091480582
:100A600090914905E80FF91FCECF213061F760E082
:100A70000E947612E8CF2330B1F0243021F7209184
:100A80003F05829F802D112480935805909359052E
:100A9000DACF20913F05829F802D11248093540549
:100AA00090935505D0CF20913F05829F802D112432
:100AB0008093560590935705C6CF2F7320934F050B
:100AC00080913F05859F802D1124809350051092C1
:100AD000600510925F0510925E0581E080935205DB
:100AE00080936A021092530580914D0590914E05B6
:100AF000019690934E0580934D0580915205882371
:100B000009F4F3C080915005811106C060E08BE3C9
:100B100095E00E941B0DE9C08150809350058091A3
:100B20006005811148C020915E0530915F052F5FFF
:100B30003F4FC901880F991FE0915A05F0915B055D
:100B4000E80FF91F65917491862F87708093610576
:100B5000AB01E3E056954795EA95E1F7CA01969512
:100B60008795972F96959695909362058F739091A0
:100B70003F05899F802D112480936005417040932B
:100B80006E0230935F0520935E0580915C0590E0D6
:100B90002817390780F020915D05222339F0821B48
:100BA000910990935F0580935E0505C060E08BE33B
:100BB00095E00E941B0D8091600581508093600537
:100BC0008091530521E0280F2093530540914F0554
:100BD00030916205340F80914705380F30933D0501
:100BE00060915605662371F070E0822F022E000C92
:100BF000990B0E94471E80915705869F300D112446
:100C000030933D0580913D0590E0849664E270E06C
:100C10000E94471E80933D053091510530933E055B
:100C200060915405662381F0062E000C770B822F0D
:100C3000022E000C990B0E94471E80915505869F3D
:100C4000300D112430933E05609158056623A1F0C4
:100C5000822F220F990B70E00E94471ECB0162E0A9
:100C600070E00E94471E2091590590913E05289FF3
:100C7000900D112490933E0580913E054F3341F035
:100C80008A300CF089E087FD80E080933E0502C049
:100C900010923E05F894E0913D05F0E0EB59FA4FD3
:100CA000E491E0936D0230913E052091630532039B
:100CB00090011124409161054203C001439F900DB2
:100CC00011240090400502C0880F991F0A94E2F792
:100CD00097FF02C081589F4F880F892F881F990B5B
:100CE00080936C0280936B02789480919C0588239A
:100CF00009F486C08C3020F49CE0E92EE81A01C08B
:100D0000E12CFF24F394F0926C051092840510926C
:100D10008505309169054DE2D42E1D2D131B1E0D46
:100D200003E0030F2EE4412F63E084E695E03D836A
:100D30000E94BC0F3D810CEF030F1D5F202F41E08F
:100D4000612F80E50E942F13202F42E0612F83E066
:100D50000E942F13F0928405F09285050091690599
:100D6000FD2CF01AFE0C2EE44F2D63E084E695E096
:100D70000E94990F13E0100F1F0D4FEF410F2EE44B
:100D800063E084E695E00E94990F035033E0F30E90
:100D9000202F4F2D60E084E695E00E94B110202FB7
:100DA0004F2D63E584E695E00E94B11041E06F2D80
:100DB00083E00E94B11242E06F2D80E50E94B112E3
:100DC000145044E0612F80E50E94B11248E0612F89
:100DD00083E00E94B11284E080936D0580916905E3
:100DE000E81A8E2D815D80936E0580919A05909111
:100DF0009B050E94CF1180919C05815080939C059A
:100E00008091320590913305892B09F484C011E05B
:100E100010938405109285059091680585E5891BDE
:100E200080936D0510926E0580912F05813009F435
:100E300055C030F090912E05853008F067C062C033
:100E400060E08BE395E00E941B0D10923C0510932F
:100E50006C05E7EBF5E0E491EF5FE0936805E8EB04
:100E6000F5E0E491EF5FE093690589EB95E09093FD
:100E700083058093820510923305109232051092FB
:100E80006A0518EA0E9441048823E1F389EA95E0A3
:100E90000E94CF11409130055091310560E070E023
:100EA0002AE084E695E00E94830A84E995E00E94A6
:100EB000CF11412F42954F7050E060E070E02AE082
:100EC00084E695E00E94830A89E895E00E94CF11AC
:100ED00080912B05813009F0FAC01DC080918705F3
:100EE00090918805A0918905B0918A058F70992706
:100EF000AA27BB270897A105B10510F487E009C010
:100F000088E707C0992339F08B5F03C0992319F054
:100F10008FE20E9492130E948F1180916A058111C5
:100F20000EC088EF91E0E9E7F2E0DF019C011D923D
:100F300021503040E1F710926D0510926E050E942D
:100F40002F0C609391057093920580939305909375
:100F5000940520918D0530918E05621B730B709363
:100F60008C0560938B0580E0CCC02FB7F8948091FE
:100F70006F0290917002A0917102B09172022FBF26
:100F800020919505820F911DA11DB11D809396059D
:100F900090939705A0939805B09399058091870544
:100FA00090918805A0918905B0918A050196A11DAF
:100FB000B11D8093870590938805A0938905B09310
:100FC0008A05109291051092920510929305109245
:100FD00094050E942F0C60938D0570938E0580936D
:100FE0008F059093900580911705909118052FE03B
:100FF000289F8001299F100D112485E10E94180C63
:10100000800F911F24E0969587952A95E1F790939C
:1010100018058093170520911605222309F44BC06B
:1010200060911A05262F30E040E050E029833A8392
:101030004B835C83C0901B05D12CE12CF12C40919B
:101040001E0550911F054A01A12CB12C20911C05B1
:1010500030911D052901612C712C8217930728F00E
:101060009C014817590708F49A01C901A0E0B0E0B3
:101070009C01AD01241935094609570969817A8116
:101080008B819C816C197D098E099F090E942B1E02
:10109000A501940124193509460957090E94AB1F7F
:1010A000C20ED31EE41EF51EC09219056C2D70E011
:1010B00085E00E94B90B0E941C110E949D1381E0E3
:1010C00020C0893209F064CC0E94001261CC11501A
:1010D00009F0D8CE60E070E085E00E94B90B83B7DC
:1010E000817F846083BF83B7816083BF83B7816062
:1010F00083BF889583B78E7F83BF83B78E7F83BF7F
:10110000C1CE0F900F900F900F900F90DF91CF9165
:101110001F910F91FF90EF90DF90CF90BF90AF9015
:101120009F908F907F906F905F904F900895CF9297
:10113000DF92EF92FF920F931F93CF93DF93EC0117
:1011400081E080936C0510926B0510926A051092F5
:101150002E0580938405809385051CE00E94410440
:101160008823E1F3FE018491882319F00091690539
:1011700001C000E02FEE34E040E060E084E695E05E
:101180000E94600D4CE0400F29EE33E060E084E601
:1011900095E00E94600D10926D0510936E05CE01D2
:1011A0000E94CF1180916805982F990F890F819522
:1011B0008D5A80936D0580916905982F990F890F3D
:1011C0008195835D80936E058091870584FF03C0C0
:1011D0008BEE94E002C087EE94E00E94F0118091C3
:1011E0006805982F990F890F81958D5A80936D0509
:1011F00080916E058F5F80936E05809140058823F6
:1012000019F083EE94E002C08FED94E00E94F0119B
:1012100090916805892F880F980F91959D5A90930A
:101220006D0580916E058F5F80936E058BED94E068
:101230000E94F01180912C058130C9F48091400505
:101240008F5F6091410587FD09C0082E000C990B46
:1012500070E06F5F7F4F0E94471E682F60934005CC
:1012600040E06FE575E08BE395E00E942C0D8091E6
:101270002B058130A9F080918605482F50E060E071
:1012800070E0C0908705D0908805E0908905F090C7
:101290008A05C416D506E606F706F8F08F3FE9F092
:1012A0008FEF8093860560E08BE395E00E941B0D35
:1012B00010923C0540E061EE73E08BE395E00E9404
:1012C0002C0D81E080932E05DF91CF911F910F911E
:1012D000FF90EF90DF90CF90089580912D058130A1
:1012E00009F03CCF0E94001239CFCF92DF92EF92EB
:1012F000FF920F931F93CF93DF936C017A018B01C1
:10130000C0E0D0E0CE15DF0589F0D8016D918D01E8
:10131000D601ED91FC910190F081E02DC601099577
:10132000892B11F47E0102C02196ECCFC701DF9119
:10133000CF911F910F91FF90EF90DF90CF90089584
:10134000FC01918D828D981761F0828DDF01A80FCD
:10135000B11D5D968C91928D9F5F9F73928F90E0EF
:1013600008958FEF9FEF0895FC01918D828D98175E
:1013700031F0828DE80FF11D858D90E008958FEF9B
:101380009FEF0895FC01918D228D892F90E0805C64
:101390009F4F821B91098F739927089589E794E0E5
:1013A0000E94C20921E0892B09F420E0822F0895D0
:1013B000FC01848DDF01A80FB11DA35ABF4F2C91F2
:1013C000848D90E001968F739927848FA689B789C1
:1013D0002C93A089B1898C9180648C93938D848D9A
:1013E000981306C00288F389E02D80818F7D808369
:1013F0000895EF92FF920F931F93CF93DF93EC0129
:1014000081E0888F9B8D8C8D981305C0E889F989C0
:10141000808185FD24C0F62E0B8D10E00F5F1F4FDD
:101420000F731127E02E8C8DE8120CC00FB607FC4D
:10143000FACFE889F989808185FFF5CFCE010E9436
:10144000D809F1CF8B8DFE01E80FF11DE35AFF4F54
:10145000F0820B8FEA89FB898081806207C0EE8968
:10146000FF896083E889F98980818064808381E0D5
:1014700090E0DF91CF911F910F91FF90EF90089531
:10148000CF93DF93EC01888D8823C9F0EA89FB892B
:10149000808185FD05C0A889B9898C9186FD0FC022
:1014A0000FB607FCF5CF808185FFF2CFA889B989F7
:1014B0008C9185FFEDCFCE010E94D809E7CFDF9157
:1014C000CF91089580E090E0892B29F00E94CE0909
:1014D00081110C94000008950E949F1F61157105F1
:1014E00079F0FB0101900020E9F73197AF01461B2D
:1014F000570BDC01ED91FC910280F381E02D099402
:1015000080E090E008954F925F926F927F92EF9209
:10151000FF920F931F93CF93DF93CDB7DEB7A197C1
:101520000FB6F894DEBF0FBECDBF7C01FA01CB0130
:1015300019A2223008F42AE08E010F5D1F4F422EBF
:10154000512C612C712CBF01A30192010E94D51F67
:10155000F901CA01015011096A3014F4605D01C03B
:10156000695CD8016C93232B242B252B61F7B801E0
:10157000C7010E946E0AA1960FB6F894DEBF0FBE97
:10158000CDBFDF91CF911F910F91FF90EF907F9092
:101590006F905F904F9008951F920F920FB60F9229
:1015A00011242F933F934F935F936F937F938F9368
:1015B0009F93AF93BF93EF93FF9389E794E00E94CB
:1015C000D809FF91EF91BF91AF919F918F917F913A
:1015D0006F915F914F913F912F910F900FBE0F90A0
:1015E0001F9018951F920F920FB60F9211242F93F0
:1015F0008F939F93EF93FF93E0918904F0918A0476
:101600008081E0918F04F091900482FD12C090815E
:10161000809192048F5F8F7320919304821751F011
:10162000E0919204F0E0E758FB4F958F809392048D
:1016300001C08081FF91EF919F918F912F910F9029
:101640000FBE0F901F901895833081F028F48130E1
:1016500099F08230A1F008958730A9F08830B9F070
:101660008430D1F4809180008F7D03C08091800010
:101670008F7780938000089584B58F7702C084B5FA
:101680008F7D84BD08958091B0008F7703C08091D5
:10169000B0008F7D8093B00008951F93CF93DF93A8
:1016A000282F30E0F901EA52F84F8491F901EE5306
:1016B000F84FD491F901E255F84FC491CC23C9F009
:1016C000162F81110E94240BEC2FF0E0EE0FFF1F6C
:1016D000E258FF4FA591B4918FB7F894111105C04E
:1016E0009C91ED2FE095E92302C0EC91ED2BEC935A
:1016F0008FBFDF91CF911F910895CF93DF9390E03B
:10170000FC01EE53F84F2491FC01E255F84F84910F
:10171000882361F190E0880F991FFC01EC58FF4F7E
:10172000C591D491FC01E258FF4FA591B49161118C
:1017300009C09FB7F8948881209582238883EC9113
:101740002E230BC0623061F49FB7F8943881822F4A
:10175000809583238883EC912E2B2C939FBF06C00A
:101760008FB7F894E8812E2B28838FBFDF91CF911C
:1017700008951F93CF93DF93182FEB0161E00E9430
:101780007D0B209711F460E004C0CF3FD10539F400
:1017900061E0812FDF91CF911F910C944D0BE12FD0
:1017A000F0E0EA52F84FE491E330F9F048F4E13028
:1017B000B9F0E230A1F584B5806284BDC8BD34C003
:1017C000E730E9F0E83019F1E43049F58091800024
:1017D000806280938000D0938B00C0938A0024C0E5
:1017E00084B5806884BDC7BD1FC0809180008068BB
:1017F00080938000D0938900C093880015C08091A9
:10180000B00080688093B000C093B3000DC0809199
:10181000B00080628093B000C093B40005C0C038AF
:10182000D1050CF0B5CFAFCFDF91CF911F910895C7
:101830008E3008F08E508770806480937C00809199
:101840007A00806480937A0080917A0086FDFCCFD4
:10185000809178002091790090E0922B08953FB715
:10186000F8948091750290917602A0917702B091E0
:10187000780226B5A89B05C02F3F19F00196A11D3F
:10188000B11D3FBFBA2FA92F982F8827820F911D16
:10189000A11DB11DBC01CD0142E0660F771F881F5D
:1018A000991F4A95D1F708958F929F92AF92BF9258
:1018B000CF92DF92EF92FF926B017C010E942F0C7E
:1018C0004B015C01C114D104E104F104F1F00E9468
:1018D0002F0CDC01CB0188199909AA09BB09883EA4
:1018E0009340A105B10570F321E0C21AD108E108C7
:1018F000F10888EE880E83E0981EA11CB11CC1146B
:10190000D104E104F10419F7DDCFFF90EF90DF90EF
:10191000CF90BF90AF909F908F9008951F920F929D
:101920000FB60F9211242F933F938F939F93AF93F2
:10193000BF9380916F0290917002A0917102B0915B
:1019400072023091740223E0230F2D3720F40196A8
:10195000A11DB11D05C026E8230F0296A11DB11DD2
:101960002093740280936F0290937002A09371028F
:10197000B09372028091750290917602A0917702E5
:10198000B09178020196A11DB11D809375029093CC
:101990007602A0937702B0937802BF91AF919F91A6
:1019A0008F913F912F910F900FBE0F901F90189520
:1019B0001F920F920FB60F9211242F936F937F9364
:1019C0008F939F9360916C02662359F1809173020B
:1019D0008F5F8093730290916D02891710F12091AF
:1019E0006A0281E0282720936A0210927302809194
:1019F0006E02882369F08091D60193E4899F802D3F
:101A00001124895B8093D6010E943B1E90936B0248
:101A1000222329F080916B028093B40002C080E001
:101A2000FBCF9F918F917F916F912F910F900FBE60
:101A30000F901F901895FC0161110DC0178A158A2F
:101A400014A213A2108E10926B0210926C021092CC
:101A50006A021092B4000895EF92FF920F931F93C1
:101A6000CF93DF931F92CDB7DEB77C018B0141117D
:101A700005C060E049830E941B0D498150E0FA01D6
:101A8000EE0FFF1FEE0DFF1D16870587DA01199671
:101A9000AA0FBB1FAE0DBF1D1D921C92F701E40FD4
:101AA000F51F81E0818389E0868B118E138E158E60
:101AB0000F90DF91CF911F910F91FF90EF900895BC
:101AC0004F925F926F927F928F929F92AF92BF924E
:101AD000CF92DF92EF92FF920F931F93CF93DF93FA
:101AE000F901C49031965491EC0108A164350CF0D1
:101AF00018C10C2C000CDD08A62F062E000CBB0B09
:101B00007D01EC0CFD1C1E141F040CF00AC14033B7
:101B10000CF007C1A52E842E042E000C9908F401A8
:101B2000E50FF11D57FDFA951E161F060CF0F9C0C2
:101B30002E5F3F4FE6012796D7FD279673E0D59598
:101B4000C7957A95E1F747FF0AC0A52EA40EC89D58
:101B5000A001C99D500D1124241B350B40E0EA2D36
:101B60000A2C000CFF0BE40FF11D47FDFA95F197CD
:101B70001CF050E3A52EA41A67FD60E0F701E535DF
:101B8000F10514F0E4E5F0E07E2FFC01D484D426C6
:101B9000862F062E000C990BFC01EA1BFB0BDF01C4
:101BA0007F01F7E0EF22FF24E0E8F0E002C0F595C6
:101BB000E795EA94E2F71E2FB7FD179653E0B59527
:101BC000A7955A95E1F72A0F3B1FE42FE77051E0E4
:101BD00001C0550FEA95EAF7459545954595B4E559
:101BE0004B02800D911D112487589D4FC12C0A2C4A
:101BF000000CBB08992493942E015524EC2DF0E0A1
:101C0000EA15FB050CF08DC0F90144910130E1F4B7
:101C10007C01A12F862E881AB82DBE0DB71708F0AB
:101C200077C0B42FBA2321F0E701B881B52BB88370
:101C3000B0E0B595A795109719F431964491A0E8B6
:101C4000DFEFED1AFD0AE8CF01111FC0752E709469
:101C50007C01A12FF901862E881AB82DBE0DB71769
:101C600008F056C0B42FBA2321F0E701B881B7219C
:101C7000B883B0E0B595A795109719F431964491C3
:101C8000A0E8DFEFED1AFD0AE8CF033031F07C0168
:101C9000A12FF901862E881A37C0752E7094862ED2
:101CA0007C01A12FF9018716D8F4B42FBA2359F07B
:101CB000E701B881682C6D2460FE02C0B52B02C01C
:101CC000B721E701B883B0E0B595A795109719F44F
:101CD00031964491A0E88394DFEFED1AFD0AE3CF3B
:101CE000D92416C0B42FBA2321F0E701B881B52753
:101CF000B883B0E0B595A795109719F43196449143
:101D0000A0E8DFEFED1AFD0AB82DBE0DB71750F3AE
:101D1000550F19F48C5A9F4F51E0C394240D351D73
:101D20006DCFDF91CF911F910F91FF90EF90DF90DA
:101D3000CF90BF90AF909F908F907F906F905F906B
:101D40004F90089522E320936D05BC0184E695E051
:101D50000E946E0A6BE272E084E695E00C946E0AD3
:101D6000CF93DF93782FE62FF0E0CF01880F991FF4
:101D7000E80FF91F8FE0789FE00DF11D1124EA555F
:101D8000FE4F20813181A28190E081E041E050E06E
:101D9000471B510971E5749FE001759FD00D112417
:101DA00049E0AA2321F0992321F02F5F02C091116D
:101DB0003F5FFE01429FE00DF11D1124E050FF4FF7
:101DC000E30FF11D5081561380E09F5F691748F7BC
:101DD000DF91CF910895DF92EF92FF920F931F93BF
:101DE000CF93DF939FE0899FE0011124A0E0B0E052
:101DF00020E030E090E08FEF042F10E0E62EF12C91
:101E0000FD01EC0FFD1FEA55FE4F7081D18051E0BE
:101E1000E281E11101C050E0671758F0F901E70FC6
:101E2000F11DEE15FF052CF04D1103C051110DC031
:101E300002C04D1558F0F901ED0DF11DE017F10745
:101E40002CF0671303C0511101C0892F9F5F2F5FD2
:101E50003F4F13969530A1F6DF91CF911F910F91CF
:101E6000FF90EF90DF9008950E946E148091860598
:101E7000882321F08DE497E00E94970810922E05A8
:101E80000895FC01643508F053C0403308F050C099
:101E900090A1742F759575957595262F062E000CBB
:101EA000330B542F57709230A1F4F901E758FD4FCE
:101EB00084E57802E00DF11D1124808190E0052E6B
:101EC00002C0959587950A94E2F78095982F9170B6
:101ED0000AC0933041F48485817046274095417053
:101EE000841303C014C0911112C084E57802200D40
:101EF000311D1124F901E758FD4F81E090E001C048
:101F0000880F5A95EAF780959081892310C084E55F
:101F10007802200D311D1124F901E758FD4F81E0B1
:101F200090E001C0880F5A95EAF79081892B808351
:101F30000895DF92EF92FF920F931F93CF93DF9359
:101F40001F92CDB7DEB78C01D62EF42EE12CE2160F
:101F500054F46E2D6D0D4F2DC80129830E94410F41
:101F6000E3942981F4CF0F90DF91CF911F910F91CE
:101F7000FF90EF90DF900895DF92EF92FF920F9322
:101F80001F93CF93DF937C01D62FD22EC42F002E28
:101F9000000C110B040F111D47FD1A954C2F0C2E30
:101FA000000C550B4017510744F42D2D4C2F6D2F6D
:101FB000C7010E94990FCF5FF1CFDF91CF911F91A1
:101FC0000F91FF90EF90DF9008956F927F928F9224
:101FD0009F92AF92BF92CF92DF92EF92FF920F93B8
:101FE0001F93CF93DF93EC016A3019F42D8198850C
:101FF000A1C06D3009F4A4C01885BA84D98488A022
:1020000083E58D150CF47FC08FE28B150CF47BC03B
:102010008C8190E00197189F9001199F300D112439
:10202000C9018D0D911DD7FC9A95181619060CF053
:102030006AC08D81819FC00111248B0D911DB7FC59
:102040009A95181619060CF05EC09D2CCD2CE62E24
:10205000F12CEC2DED190E2E000CFF0B8C8190E075
:10206000E817F9070CF04EC00197E817F90779F067
:10207000E89E9001E99E300DF89E300D1124E20F8C
:10208000F31F8E8D9F8DE80FF91F749001C0712C86
:102090006B2CAB2C2A2D2B19022E000C330B8D81AF
:1020A00090E0281739075CF570FE10C0113031F44C
:1020B0004A2D6C2DCE010E94410F1DC0012F212FF2
:1020C000462D692DCE010E94BC0F15C089A198A193
:1020D000891789F088A3113031F44A2D6C2DCE0177
:1020E0000E94410F07C0012F212F462D692DCE01DF
:1020F0000E94BC0F88A27694A394610ECBCFC394A8
:10210000910EA7CF88A228853C818985329F800DBA
:10211000112489879F81992399F0082E000C990B2F
:1021200044E550E0239F40195109112448175907ED
:102130003CF49D818A85299F800D11248A87198608
:1021400081E090E0DF91CF911F910F91FF90EF9090
:10215000DF90CF90BF90AF909F908F907F906F90C7
:102160000895DF92EF92FF920F931F93CF93DF9327
:102170001F92CDB7DEB78C01D62EF42EE12CE216DD
:1021800054F44E2D4F0D6D2DC80129830E94410F2F
:10219000E3942981F4CF0F90DF91CF911F910F919C
:1021A000FF90EF90DF9008950F93CF93DF9348EF68
:1021B00051E06FEF7FEF89E792E00E94A41F109239
:1021C00084051092850508E222E247E061E384E697
:1021D00095E00E94BC0F81E080936E052EE240E006
:1021E00061E084E695E00E94990F2EE241E06FE203
:1021F00084E695E00E94B1102EE24FE261E084E6B1
:1022000095E00E94990F2EE241E060E084E695E0BF
:102210000E94B110D1E0C1E04D2F6C2F84E695E013
:102220000E94410FCB5FC333B9F7DB5FD33399F71C
:10223000DF91CF910F910895CF92DF92EF92FF92AD
:102240000F931F93CF93DF93C0E2D5E007E215E031
:10225000FF24FA9497E0E92EE00E62E088810E9464
:102260007D0B288130E0F901EA52F84F8491F901A1
:10227000EE53F84FC490F901E255F84FD490DD20A9
:1022800071F081110E94240BED2DF0E0EE0FFF1F85
:10229000EC55F84FA591B491EC91EC21B1F4F80113
:1022A00080818F5F808360E088810E947D0B219612
:1022B0000F5F1F4FE012D1CFDF91CF911F910F9190
:1022C000FF90EF90DF90CF900895F80180818823F0
:1022D00071F3F8018F3F11F41082E5CFF082E3CF64
:1022E000CF93C82FF89460E0809173050E944D0B46
:1022F0008091740518161CF460E00E944D0BCEBD51
:1023000000000DB407FEFDCF8EB580917405181640
:102310001CF461E00E944D0B7894CF9108950F93C7
:102320001F93CF93809170058F5F8093700509E7AD
:1023300012E0C0E08C2F80640E94701180E80E943F
:10234000701161E0809173050E944D0B80917405BE
:1023500018161CF460E00E944D0B80E090E0F8013C
:10236000E80FF91F20812EBD00000DB407FEFDCF40
:102370002EB501968435910591F780917405181654
:102380001CF461E00E944D0BCF5F0C5A1F4FC6300A
:1023900089F680E4CF911F910F910C9470110F93E7
:1023A0001F93CF93DF938C01C0E0D0E0F801EC0FD6
:1023B000FD1F6491662371F0E0916405F09165055D
:1023C0000190F081E02D84E695E00995892B11F0CC
:1023D0002196ECCFCE01DF91CF911F910F910895FF
:1023E000CF93DF930E94CF11EC016BE272E084E6A1
:1023F00095E00E946E0A8C0F9D1FDF91CF9108958A
:1024000088EF91E0E9E7F2E0DF019C011D922150A5
:102410003040E1F710926D0510926E058CE797E061
:102420000E94CF110E948F118CB583608CBD8DB539
:102430008E7F8DBD8DE592E0EEEFFFE30995109262
:102440006A0587E597E00E94F0110E948F110E94B3
:102450001C1180912B05813039F062E370E080E03F
:1024600090E00E94540CF3CF0895CF93DF93482F50
:1024700050E0EA01CA5EDA4F9DA19923A1F19EA125
:10248000911131C09EA5FA01EE0FFF1FE35EFA4FD6
:1024900035A126A1E32FF22FE90FF11DE90FF11D60
:1024A000259134912F3F9FEF390711F41DA21BC0D6
:1024B00039AB440F551FFA01E05EFA4F3327220F64
:1024C000331F05A0F6A1E02DE20FF31F6591749173
:1024D000811105C040E08BE395E00E942C0D299608
:1024E0008DA18F5F8DA3DF91CF91089570E0DB0107
:1024F000AA0FBB1FAA5EBA4FD4962C91D497D5963B
:102500009C91D597E22FF92FE80FF11DE80FF11DEF
:10251000259134915F9696963C932E939597F90169
:102520008591949190913F05989F802D11246A5E2A
:102530007A4FFB01B19685A3F901A591B4914B2F78
:1025400050E0E82FF0E04E175F0720F4F9012591E5
:102550003491832FFB01B296899F802D112485A38E
:102560000895AF92BF92CF92DF92EF92FF920F93B6
:102570001F93CF93DF93182F062FC1E0D3E08AEF8C
:10258000D82E9EEFE92E842F8470C82E842F82705F
:10259000B82E842F8870A82E4170F42E8C2F880FAF
:1025A0008F5FE80ECC2081F04D2F400F6C2F610F14
:1025B00084E695E00E94410F4C2F400F6D2F610F74
:1025C00084E695E00E94410FBB2081F0402F4D1B17
:1025D0006C2F610F84E695E00E94410F402F4C1B49
:1025E0006D2F610F84E695E00E94410FAA2081F0D3
:1025F0004C2F400F612F6D1B84E695E00E94410F28
:102600004D2F400F612F6C1B84E695E00E94410F17
:10261000FF2081F0402F4C1B612F6D1B84E695E05D
:102620000E94410F402F4D1B612F6C1B84E695E0EB
:102630000E94410FCD1744F4E7FC04C0D150D3945D
:10264000D394ED0CCF5FAACFDF91CF911F910F9163
:10265000FF90EF90DF90CF90BF90AF9008959F9242
:10266000AF92BF92CF92DF92EF92FF920F931F93A0
:10267000CF93DF93F82EE62EB22E03E0020FD0E0C8
:10268000C3E08AEFC82E1EEF842F8170982EAA24F3
:10269000A394A20E4270D42EDF5F802F8B19180FE7
:1026A0009920A1F02C2F220F2A0D4E2D4C1B6D2F9F
:1026B0006F0D84E695E00E94B110202F4E2D4D1B2A
:1026C0006C2F6F0D84E695E00E94B110DD20A1F023
:1026D0002C2F220F2A0D4E2D4C1B6F2D6D1B84E6C7
:1026E00095E00E94B110202F4E2D4D1B6F2D6C1BBD
:1026F00084E695E00E94B110DC1744F417FD04C095
:10270000C150C394C3941C0D0E5FC6CFDF91CF910F
:102710001F910F91FF90EF90DF90CF90BF90AF90FF
:102720009F900895E0916405F09165050190F08116
:10273000E02D682F84E695E0099480913205909110
:102740003305892BB1F180913A058F7169F584E1E8
:102750000E94180CBC01990F880B990B0E94A61EB1
:1027600026EE3FE34EEC50E40E940A1F0E94751EC5
:102770009B017093310560933005672B91F084E0E5
:1027800080932F05E2E3F5E080E041915191241719
:10279000350718F480932F0508958F5F8430A9F7CB
:1027A00003C08FEF80932F0580913A058F5F809350
:1027B0003A0508952F923F924F925F926F927F92C7
:1027C0008F929F92AF92BF92CF92DF92EF92FF9241
:1027D0000F931F93CF93DF9300D01F92CDB7DEB737
:1027E000362E6A01FA0104913196E49110E07801E5
:1027F000F7E0EF0EF11C93E0F594E7949A95E1F77A
:1028000050E020E8A22EB12C8E2E912C8150582E13
:102810005E0E852F052E000C990B801791070CF08A
:1028200047C0952F57FF02C097E0950F9595959556
:102830009595852F877887FF03C08150886F8F5FBC
:10284000350102C0759467948A95E2F7412C892F6F
:10285000990F990B9C012E5F3F4F3B832A83252EB6
:10286000230C842D042C000C990B88159905F4F485
:102870008E9DF0018F9DF00D9E9DF00D11242A81FB
:102880003B81E20FF31FEC0DFD1D249130E026216A
:102890003721232B49F0422D652D641984E695E0FC
:1028A00059830E94410F59814394DBCF5F5FB1CFC1
:1028B0000F900F900F90DF91CF911F910F91FF908C
:1028C000EF90DF90CF90BF90AF909F908F907F90D0
:1028D0006F905F904F903F902F90089540E064E29A
:1028E00078E08BE395E00C942C0D93E090938405B5
:1028F00090938505222309F457C0423059F130F4F2
:10290000442309F443C0413099F10895433089F0DC
:10291000443009F093C0462F440F440F460F4E5FDA
:10292000682F660F660F860F61E0680F22E138E0BE
:102930000DC0462F440F440F460F4E5F682F660FA1
:10294000660F860F61E0680F24E038E084E695E0CA
:102950000C94600D462F440F440F460F4E5F682FB6
:10296000660F660F860F61E0680F2AEF37E0EECF43
:10297000462F440F440F460F4E5F682F660F660FB9
:10298000860F61E0680F20EF37E0E0CF462F440F5D
:10299000440F460F4E5F682F660F660F860F61E08B
:1029A000680F2AEE37E0D2CF423011F128F44423E9
:1029B000B9F1413049F10895433071F04430F1F5F7
:1029C000462F440F440F640F6F5F982F990F990F94
:1029D000890F42E158E02FC0462F440F440F640F87
:1029E0006F5F982F990F990F890F44E058E023C02B
:1029F000462F440F440F640F6F5F982F990F990F64
:102A0000890F4AEF57E017C0462F440F440F640F59
:102A10006F5F982F990F990F890F40EF57E00BC008
:102A2000462F440F440F640F6F5F982F990F990F33
:102A3000890F4AEE57E08E5F0C94DA130895BC01BB
:102A400084E695E00C946E0ACF93DF93C82FD62FBF
:102A500022E0462F682F84E695E00E94990F41E01E
:102A60004D0F22E06C2F84E695E00E94990F22E042
:102A70004D2F6C2F84E695E00E94B11061E06C0F41
:102A800022E04D2F84E695E0DF91CF910C94B110B8
:102A9000CF93DF93CDB7DEB7A1970FB6F894DEBF23
:102AA0000FBECDBF789484B5826084BD84B581604B
:102AB00084BD85B5826085BD85B5816085BD809109
:102AC0006E00816080936E00109281008091810081
:102AD0008260809381008091810081608093810079
:102AE000809180008160809380008091B10084603B
:102AF0008093B1008091B00081608093B00080919C
:102B00007A00846080937A0080917A00826080935A
:102B10007A0080917A00816080937A0080917A00B7
:102B2000806880937A001092C100E0918904F0914E
:102B30008A0482E08083E0918504F091860410820B
:102B4000E0918704F09188048FEC808310929104C7
:102B5000E0918D04F0918E0486E08083E0918B04F7
:102B6000F0918C04808180618083E0918B04F091EE
:102B70008C04808188608083E0918B04F0918C04C8
:102B8000808180688083E0918B04F0918C04808147
:102B90008F7D808382E38093950581E090E0A0E0C3
:102BA000B0E08093910590939205A0939305B09324
:102BB00094058FEF80938605E0E8F7E7259134913F
:102BC0002130304C09F049C0E6E9F7E7E491E093A1
:102BD0006F05E7E9F7E7E491E0931A05E8E9F7E71D
:102BE000E491E0931B05E9E9F7E7859194919093CF
:102BF0001D0580931C05EBE9F7E78591949190936F
:102C00001F0580931E0588E080934105EEE9F7E7F4
:102C1000E491E0934005EFE9F7E7E491E09386055E
:102C2000E0EAF7E78591949190933305809332051C
:102C3000E2EAF7E785919491909335058093340506
:102C4000E4EAF7E7859194919093370580933605F0
:102C5000E6EAF7E7859194912CC09CE390936F0589
:102C600010921A0580931B0580E293E090931D0556
:102C700080931C0584ED93E090931F0580931E05BF
:102C800088E080934105809340058CEA9DE0909315
:102C90003305809332058EED9DE09093350580934A
:102CA000340584E79EE090933705809336058CE3E6
:102CB0009FE0909339058093380511E01093160535
:102CC0006FEF70E085E00E94B90B88E080932005EB
:102CD00089E08093210587E08093220586E0809338
:102CE000230504E00093240582E08093250581E11B
:102CF000809326050E941C118CE39FE09093310580
:102D00008093300500932F0510933A058BE0809354
:102D100072058DE08093710580E1809373058EE0EC
:102D2000809375058FE08093740510936C05109364
:102D300084051092850510936B05E7EBF5E0E491AF
:102D4000EF5FE0936805E8EBF5E0E491EF5FE09377
:102D5000690589EB95E090938305809382051FB701
:102D6000F89480916402811127C0E8EBF7E0849128
:102D7000ECECF7E09491E82FF0E0EE0FFF1FEC5839
:102D8000FF4FA591B491EC91E92321F461E08AE031
:102D90000E944D0B61E08AE00E947D0B8CB5806142
:102DA0008CBD8CB580648CBD61E08DE00E947D0B94
:102DB00061E08BE00E947D0B809164028F5F8093C5
:102DC00064021FBF8CB58F7D8CBD8CB58C7F8160FC
:102DD0008CBD8DB581608DBD8CB58C608CBD61E086
:102DE000809172050E947D0B61E0809171050E94C7
:102DF0007D0B61E0809173050E947D0B80917505CC
:102E000018161CF461E00E947D0B80917405181661
:102E10001CF461E00E947D0B80917505181674F416
:102E200060E00E944D0B6AE070E080E090E00E945C
:102E3000540C61E0809175050E944D0B80917105E5
:102E4000082E000C990BFC01E255F84FE491F0E0DC
:102E5000EE0FFF1FE258FF4F259134913093790513
:102E600020937805FC01EE53F84FE491E0937F0541
:102E700080917205082E000C990BFC01E255F84F69
:102E8000E491F0E0EE0FFF1FE258FF4F25913491DF
:102E90003093770520937605FC01EE53F84FE491CB
:102EA000E0937E0580917405082E000C990BFC01BF
:102EB000E255F84FE491F0E0EE0FFF1FE258FF4FAC
:102EC0002591349130937B0520937A05FC01EE53D4
:102ED000F84FE491E093800580917305082E000C73
:102EE000990BFC01E255F84FE491F0E0EE0FFF1F63
:102EF000E258FF4F2591349130937D0520937C0556
:102F0000FC01EE53F84FE491E093810581E20E94C9
:102F1000701184E10E94701180916F0587FF03C0DA
:102F20008FE780936F0580916F0580680E94701114
:102F300080E20E9470118CE00E9470110E948F113B
:102F400081E080933F0584E08093630580E790E013
:102F500090934B0580934A0560E080E00E947612D2
:102F600061E070E083E00E94B90B8091B100887F3E
:102F700081608093B100F8941092800010928100DB
:102F8000109285001092840088E191E0909389006E
:102F90008093880080918100886080938100809177
:102FA000810081608093810080916F0082608093B6
:102FB0006F0078940E949D1380912C05813019F444
:102FC000109240050BC080912F058823C9F340E083
:102FD00068E870E08BE395E00E942C0D80918605F7
:102FE000882321F086E990E00E94970810922E0530
:102FF00084EC91E0880F991FFC013996FF8FEE8FCA
:103000001092660210926502A7E6B2E042EAE42E50
:1030100041E0F42E04EA11E066EA71E080E090E01D
:10302000BB24BA9454E0A52E20E030E0FB01E20F6F
:10303000F31FB082118212822D5F3F4F2F30310576
:10304000A9F720E030E040E050E06901C80ED91E49
:10305000FA01EC0DFD1DE050FF4FB0824F5F5F4F56
:1030600049305105A9F7275F3F4F2135310559F701
:103070001D92F701A1927F01F801A1928F018F5A51
:103080009F4F615F7F4F823A910571F626EA422E8B
:1030900021E0522E34EC232E31E0332E712CA12C62
:1030A000B12C14E0F12E04E0E02E912C84E0C82E27
:1030B000372D317039878FE08A9DA0018B9D500D8F
:1030C00011245C874B870E9441048823E1F30E940E
:1030D000D41000E010E0D12CF201E00FF11F80814C
:1030E000618192818F3F39F021E0911101C020E090
:1030F0004D2D0E947514D3940D5F1F4F0F30110595
:1031000059F71092840510928505C1010E94A20E04
:1031100051E050938405509385058AE392E00E9424
:10312000A20E86E292E00E94A20E0C2D10E0E9E0D1
:10313000E09FC001E19F900D11248F519E4F0E948E
:10314000A20E6BE272E084E695E00E946E0A8EE2C7
:1031500092E00E94A20E87E392E00E94A20E80916C
:103160002C05D92C813089F4D826C8018E0D911DEB
:1031700009972CF0DD2019F0B8E0EB2EEC18C8010F
:103180008F0D911D09970CF0A1C080912B05813006
:1031900081F5912C892D90E0081719078CF0D1103A
:1031A00003C0492D60E002C0692D40E04F0D6E0D57
:1031B00089850E94EB0E8F3F09F0C5C49394EACF36
:1031C000F801EE0FFF1FE00FF11F8B859C85E80FC4
:1031D000F91FEA55FE4FE082F182D28240E061EEB3
:1031E00073E08BE395E00E942C0DCC2009F475C0B0
:1031F000CA9480912805813021F4FF2009F4AFC4DE
:10320000FA9480912A05813089F42D2D30E02150E7
:103210003109C29EC001C39E900D112407962F2D27
:1032200030E0821793070CF49DC4F3948091270536
:10323000813021F4EE2009F498C4EA9480912905A4
:10324000813069F48E2D90E028E030E0CD9C20198B
:1032500031091124821793070CF08AC4E3948091FA
:103260002D05813009F487C41092840510928505DC
:103270006F2C660C660C862D8F0D8D5F8D838E2DC9
:10328000880F880F8E0D8D5F8F83612C0F2D10E0BE
:103290008E2C912C862D90E0DD2049F0880D991D13
:1032A000682F660F660F860F6D818D5F08C0800FD7
:1032B000911F682F660F660F680F6D5F8F810E94E8
:1032C00024156394C61430F79D2CFDCE992009F483
:1032D0005CCFA8E0FA2EFC1858CF7394F72DF1704C
:1032E0007F2E29E0220E311C3FE0430E511CAA9490
:1032F000AB2821F0AA24A394B12CD3CE81E08093F3
:10330000690218861F82212C312C80916902882342
:1033100009F416C481E090E09E838D83E4ECF1E033
:10332000FC87EB8726EA31E0388F2F8B412C1A8AF5
:10333000198A5524539431E04D81341B3B8F809181
:103340006902882311F319821A821B821C8285E18B
:10335000898380E18A8380E28B83E0908705F09007
:1033600088056E8C7F8C8B859C85681A790A67012D
:10337000FFE0BF2E912C10E0E1E0F0E02D813E81D6
:10338000E21BF30BFA87E9872C553E4F3C8B2B8BC6
:103390004D815E814E555E4F5E8B4D8B8B8D51E026
:1033A000852781708C8F1D8E29E0EC8DFD8D2E9FE1
:1033B000C0012F9F900D1124AC014C535E4F5A8FCA
:1033C000498F8D819E8189599D4F988B8F87FC01F4
:1033D0008081811101C012E0F42DF170AF2E0E94A6
:1033E00041048823E1F380918705909188059C0131
:1033F0002C193D0922303105D4F021E0221A310880
:1034000039EA23163FEF330614F4212C312C20FC2B
:103410000DC04F8158854150510958874F836C0129
:10342000493A5F4F24F418861F8201C06C019C0149
:103430002E193F092B3031055CF02A81203119F417
:1034400030E23A8303C020E12A8320E22B837C010F
:1034500083E0809384058093850521E333E040E099
:103460006F8184E695E00E94600D21E333E040E047
:103470006F81685A84E695E00E94600D1092840581
:103480001092850521EC32E040E0622D84E695E063
:103490000E94600D21EC32E040E008E5020D602F53
:1034A00084E695E00E94600D509284055092850557
:1034B00021E532E040E0622D84E695E00E94600D57
:1034C00021E532E040E0602F84E695E00E94600D47
:1034D00080916602811128C08EE080936D058FE097
:1034E00080936E05123069F48B859C850E941F15B0
:1034F00080E492E00E941F1584E492E00E941F1570
:1035000013C0C3010E941F1580E492E00E941F15A2
:103510006AE472E084E695E00E946E0A6BE272E073
:1035200084E695E00E946E0A29EE33E043E1490DFE
:103530006AE084E695E00E94600D83E08093840554
:103540008093850500E124E540E260E084E695E0B3
:103550000E94BC0F109284051092850586E480932A
:103560006D0589E280936E05CE0101960E941F15BC
:10357000113009F070C0EF85F8898081882309F443
:103580006AC0EB89FC894081ED89FE8960818A2DC2
:103590000E94EB0E082F8F3F09F44BC0FFE0682F0D
:1035A0008A2DBF1240C00E94B00E8823A9F10230BC
:1035B00091F038F4002361F00130C9F483E392E024
:1035C0000FC0033059F0043091F483E092E008C05A
:1035D00083E492E005C083E292E002C081E192E0E0
:1035E00090939B0580939A0580E280939C0550926E
:1035F000660200E0602F8A2D0E94B00E811102C089
:10360000109266020F5F0530A9F780916602882349
:1036100009F1109269021EC08CEF91E090939B0516
:1036200080939A0511C00E94B00E882389F093946C
:103630000FC02FE0B2120CC00E946E1444EF51E094
:1036400050939B0540939A058BE180939C0502C0A3
:10365000BB2021F0BA948824839401C0812C8091EE
:103660006602882309F459C0009165020A3218F0F5
:10367000109269020DC0023158F485E190E0801B80
:103680009109582F550F550F000F000F025302C01C
:1036900002E150E110928405109285056FEF650FED
:1036A00023E831E047E084E695E058A30E94600DEE
:1036B0006FEF600F23E331E046E184E695E00E947E
:1036C000600D509284055092850524EE30E048E06C
:1036D00058A1652F84E695E00E94600D20EA30E055
:1036E00047E1602F84E695E00E94600D109284050A
:1036F0001092850582E080936D0589E280936E05C6
:10370000898D9A8D0E941F1580E592E00E941F15F9
:10371000809165028F5F8093650280912B058130D7
:1037200009F4812C80912D05813009F427C2811084
:1037300056CE1F5F133009F044CEE985FA85EE5569
:10374000FE4FF080E985FA85EC55FE4F108180919F
:10375000660231E038273B8B31E03425398F8FE02A
:10376000ED81FE818E9FA0018F9F500D11245E8BF5
:103770004D8B81E549855A85849F9001859F300D49
:1037800011243E872D8749595D4F588B4F873B89C0
:10379000332309F4B4C10E9441048823E1F30E9459
:1037A000D410E2E09E2EC12CD12C88248394890C65
:1037B00062E0E62EA12CB12C69887A886C0C7D1C05
:1037C000F501E60DF71DE050FF4F0081053088F54B
:1037D000602F898D0E94B00E811109C0109284055E
:1037E0001092850504E024E0492D6E2D2DC0802F18
:1037F00090E0AC01440F551FFA01E80FF91F2D8925
:103800003E89E20FF31FEA55FE4F21E0328131116C
:1038100001C020E0FA01E80FF91F4D895E89E40F2D
:10382000F51FEA55FE4F402F618180810E9475147B
:103830000FC00E3F69F4109284051092850502E0D6
:1038400022E0482D61E06E0D84E695E00E94BC0FF9
:1038500059E0A50EB11C85E0E80E9FE2E912B0CF59
:10386000EFEFCE1ADE0A980EF9E0CF16D10409F078
:103870009CCF80912805813021F4112309F481C166
:10388000115080912A05813021F4183008F07CC154
:103890001F5F80912705813021F4FF2009F477C153
:1038A000FA9480912905813029F4F7E0FF1508F496
:1038B00071C1F39400912B050130E1F48D859E8553
:1038C00029E02F9D800D911D112480509F4F6C0188
:1038D000C10ED11CF60180818F3F09F45EC10E94A8
:1038E0006E1480EE91E090939B0580939A0580E2A0
:1038F00080939C0580912D05813009F472C183E08D
:103900008093840580938505E12EEE0CEE0CE10E8C
:103910007F2C770C770C7F0C93E0D92ED70C4DEFD2
:103920004E0D2DE06D2D84E695E00E94B11023E050
:10393000C22ECE0C6DEF670D2DE04C2D84E695E088
:103940000E94990F10928405109285054AE04E0D51
:103950006D2D84E695E00E94410F4CEF4E0D6D2DCC
:1039600084E695E00E94410F6AE0670D4C2D84E6E5
:1039700095E00E94410F6CEF670D4C2D84E695E0B9
:103980000E94410F34E0A32EA70C42E0B42EB70CE6
:10399000812C07E022EF5AEF952EE7188394882DAB
:1039A000880F8F5F980E702E7C0C472D6A2D84E651
:1039B00095E029A30E94410F472D6B2D84E695E0E9
:1039C0000E94410F7C2C701A472D6A2D84E695E0E9
:1039D0000E94410F472D6B2D84E695E00E94410F18
:1039E0007E2C7A0C472D602E6D0C662D84E695E0BA
:1039F0000E94410F472D7D2C701A672D84E695E0BB
:103A00000E94410F3E2D3B0D432F662D84E695E02D
:103A100038A30E94410F38A1432F672D84E695E01B
:103A20000E94410F29A1801644F497FC03C0015065
:103A30002E5F920EA394BA94B1CF6C2D8D2D0E945F
:103A40002415509284055092850507E022E240E05B
:103A500061E384E695E00E94BC0F10928405109209
:103A6000850508E222E248E061E384E695E00E94F1
:103A7000BC0F8B859C850E94A20E509284055092AB
:103A80008505EF85F889408101E0040F82E380938A
:103A90006D0587E592E00E941F15402F50E060E021
:103AA00070E02AE084E695E00E94830A6BE272E00F
:103AB00084E695E00E946E0A01E0C12CD12CEF89CA
:103AC000F88DEC0DFD1D6081418182816F3F71F0A9
:103AD0004B5D685B202F882329F084E695E00E94E7
:103AE000990F04C084E695E00E94B1100F5FF3E0E7
:103AF000CF0ED11C2FE0C216D10409F748CE4F8952
:103B0000588D415F5F4F588F4F8B8B859C850996F1
:103B10009C878B87ED81FE813197FE83ED83298918
:103B20003A892F5A3F4F3A8B298B4394342D317069
:103B3000432E49895A89423A510509F4E6CBFBCB19
:103B40000E94620A5DCA0E946E14EDECF3E0F093ED
:103B50009B05E0939A0580E280939C054ACB0E94E6
:103B60006E144FCB0E946E1461CB0E946E1466CB14
:103B70000E946E1474CB0E94340F76CB0E94340FD7
:103B8000D6CD0E946E147DCE0E946E1482CE0E940D
:103B90006E1487CE0E946E148DCE40E06FE575E006
:103BA0008BE395E00E942C0DEF85F88980818F5F73
:103BB00080838B8D8027412F6F2D81700E94EB0EAB
:103BC0008F3F09F48EEFF6018083E985FA85EE5583
:103BD000FE4FF082E985FA85EC55FE4F10831B8A73
:103BE00089CE0E94340F8BCEE9E7F4E01382128273
:103BF00088EE93E0A0E0B0E084839583A683B7834A
:103C000082E192E09183808385EC90E095878487C0
:103C100084EC90E09787868780EC90E0918B808B96
:103C200081EC90E0938B828B82EC90E0958B848B7F
:103C300086EC90E0978B868B118E128E138E148EED
:103C4000109267051092660582E292E090936505F6
:103C5000809364050895DB018F939F930E94CA1F90
:103C6000BF91AF91A29F800D911DA39F900DB29F18
:103C7000900D11240895991B79E004C0991F96179F
:103C800008F0961B881F7A95C9F78095089597FBD1
:103C9000072E16F4009407D077FD09D00E945B1E12
:103CA00007FC05D03EF4909581959F4F089570953F
:103CB00061957F4F0895AA1BBB1B51E107C0AA1F46
:103CC000BB1FA617B70710F0A61BB70B881F991FBD
:103CD0005A95A9F780959095BC01CD010895EE0FF6
:103CE000FF1F0590F491E02D09940E94E91E88F0D1
:103CF0009F5798F0B92F9927B751B0F0E1F0660FB0
:103D0000771F881F991F1AF0BA95C9F714C0B130F0
:103D100091F00E94031FB1E008950C94031F672FD8
:103D2000782F8827B85F39F0B93FCCF3869577951F
:103D30006795B395D9F73EF4909580957095619508
:103D40007F4F8F4F9F4F0895E89409C097FB3EF433
:103D500090958095709561957F4F8F4F9F4F9923D8
:103D6000A9F0F92F96E9BB279395F6958795779556
:103D70006795B795F111F8CFFAF4BB0F11F460FF16
:103D80001BC06F5F7F4F8F4F9F4F16C0882311F06E
:103D900096E911C0772321F09EE8872F762F05C082
:103DA000662371F096E8862F70E060E02AF09A951D
:103DB000660F771F881FDAF7880F9695879597F912
:103DC000089557FD9058440F551F59F05F3F71F00B
:103DD0004795880F97FB991F61F09F3F79F0879572
:103DE0000895121613061406551FF2CF4695F1DFFB
:103DF00008C0161617061806991FF1CF869571058B
:103E0000610508940895E894BB2766277727CB01BE
:103E100097F908950E941D1F0C948E1F0E94801F09
:103E200038F00E94871F20F0952311F00C94771F23
:103E30000C947D1F11240C94041F0E94E11E70F34A
:103E4000959FC1F3950F50E0551F629FF001729F3F
:103E5000BB27F00DB11D639FAA27F00DB11DAA1F4E
:103E6000649F6627B00DA11D661F829F2227B00D9B
:103E7000A11D621F739FB00DA11D621F839FA00D26
:103E8000611D221F749F3327A00D611D231F849F76
:103E9000600D211D822F762F6A2F11249F575040CD
:103EA0009AF0F1F088234AF0EE0FFF1FBB1F661F48
:103EB000771F881F91505040A9F79E3F510580F011
:103EC0000C94771F0C94041F5F3FE4F3983ED4F3E7
:103ED000869577956795B795F795E7959F5FC1F7B5
:103EE000FE2B880F911D9695879597F9089597F960
:103EF0009F6780E870E060E008959FEF80EC089590
:103F000000240A94161617061806090608950024B8
:103F10000A9412161306140605060895092E039432
:103F2000000C11F4882352F0BB0F40F4BF2B11F4A6
:103F300060FF04C06F5F7F4F8F4F9F4F089581E0F8
:103F400090E0F8940C940620DC0101C06D93415080
:103F50005040E0F70895052E97FB1EF400940E9450
:103F6000C21F57FD07D00E94D51F07FC03D04EF497
:103F70000C94C21F50954095309521953F4F4F4F5F
:103F80005F4F089590958095709561957F4F8F4F05
:103F90009F4F08950E94F71FA59F900DB49F900D0D
:103FA000A49F800D911D11240895A1E21A2EAA1B31
:103FB000BB1BFD010DC0AA1FBB1FEE1FFF1FA217D9
:103FC000B307E407F50720F0A21BB30BE40BF50BD6
:103FD000661F771F881F991F1A9469F7609570955F
:103FE000809590959B01AC01BD01CF010895A29FE2
:103FF000B001B39FC001A39F700D811D1124911DBD
:10400000B29F700D811D1124911D0895F894FFCF6A
:10401000FFFFFFFFFFFFFFFFFFFFFFFFFFFFFFFFB0
:10402000FFFFFFFFFFFFFFFFFFFFFFFFFFFFFFFFA0
:10403000FFFFFFFFFFFFFFFFFFFFFFFFFFFFFFFF90
:10404000FFFFFFFFFFFFFFFFFFFFFFFFFFFFFFFF80
:10405000FFFFFFFFFFFFFFFFFFFFFFFFFFFFFFFF70
:10406000FFFFFFFFFFFFFFFFFFFFFFFFFFFFFFFF60
:10407000FFFFFFFFFFFFFFFFFFFFFFFFFFFFFFFF50
:10408000FFFFFFFFFFFFFFFFFFFFFFFFFFFFFFFF40
:10409000FFFFFFFFFFFFFFFFFFFFFFFFFFFFFFFF30
:1040A000FFFFFFFFFFFFFFFFFFFFFFFFFFFFFFFF20
:1040B000FFFF04040404FF0000FF0000FF0000FFF6
:1040C0000000FF0000FF0000FF0000FF0000FF00F5
:1040D00000FF0000506C61796572310000506C6126
:1040E0007965723200000100009D0580000100002A
:1040F000004372756973657200005375626D617279
:10410000696E0044657374726F7972004261742E37
:104110005368697000436172726965720000000043
:104120000000F9097509C209A009B409400A000094
:104130000000E50F7509796F7572000D0A00413AAC
:1041400020526F74617400423A20506C61636500C4
:10415000277320007475726E210073686F743A00C3
:104160002077696E73210053686F7420004C4F41B3
:044170004445520070
:107E0000112484B714BE81FFF0D085E080938100F7
:107E100082E08093C00088E18093C10086E0809377
:107E2000C20080E18093C4008EE0C9D0259A86E02C
:107E300020E33CEF91E0309385002093840096BBD3
:107E4000B09BFECF1D9AA8958150A9F7CC24DD24C4
:107E500088248394B5E0AB2EA1E19A2EF3E0BF2EE7
:107E6000A2D0813461F49FD0082FAFD0023811F036
:107E7000013811F484E001C083E08DD089C08234E0
:107E800011F484E103C0853419F485E0A6D080C0E4
:107E9000853579F488D0E82EFF2485D0082F10E0AE
:107EA000102F00270E291F29000F111F8ED06801E7
:107EB0006FC0863521F484E090D080E0DECF843638
:107EC00009F040C070D06FD0082F6DD080E0C81688
:107ED00080E7D80618F4F601B7BEE895C0E0D1E017
:107EE00062D089930C17E1F7F0E0CF16F0E7DF06D8
:107EF00018F0F601B7BEE89568D007B600FCFDCFD4
:107F0000A601A0E0B1E02C9130E011968C91119780
:107F100090E0982F8827822B932B1296FA010C0160
:107F200087BEE89511244E5F5F4FF1E0A038BF0790
:107F300051F7F601A7BEE89507B600FCFDCF97BE46
:107F4000E89526C08437B1F42ED02DD0F82E2BD052
:107F50003CD0F601EF2C8F010F5F1F4F84911BD097
:107F6000EA94F801C1F70894C11CD11CFA94CF0C13
:107F7000D11C0EC0853739F428D08EE10CD085E9AC
:107F80000AD08FE07ACF813511F488E018D01DD067
:107F900080E101D065CF982F8091C00085FFFCCF94
:107FA0009093C60008958091C00087FFFCCF809118
:107FB000C00084FD01C0A8958091C6000895E0E648
:107FC000F0E098E1908380830895EDDF803219F02E
:107FD00088E0F5DFFFCF84E1DECF1F93182FE3DFCA
:107FE0001150E9F7F2DF1F91089580E0E8DFEE27F6
:047FF000FF270994CA
:027FFE00040479
:0400000300007E007B
:00000001FF
