:100000000C9478030C94A0030C94A0030C94A0030C
:100010000C94A0030C94A0030C94A0030C94A003D4
:100020000C94A0030C94A0030C94A0030C944D0C0E
:100030000C94A0030C94A0030C94A0030C94A003B4
:100040000C94030C0C94A0030C94670A0C94410AC2
:100050000C94A0030C94A0030C94A0030C94A00394
:100060000C94A0030C94A0030101FF030101F7030A
:100070006C00680000000000240027002A00000037
:100080000000250028002B000500893008023802F6
:1000900049786814000053686970777265636B0073
:1000A0000804787C7C7810047F80FFE0FFE07F808C
:1000B00010047FFCFFFFFFFF7FFC18047FFFE0FFC1
:1000C000FFF8FFFFF87FFFE02004FFFFFF00FFFFC6
:1000D000FFC0FFFFFFC0FFFFFF00416C726561645E
:1000E000792073686F7420746865726521004D69AA
:1000F00073732E2E2E004849542121210043617232
:10010000726965722073756E6B2100426174746C44
:100110006520736869702073756E6B210044657388
:1001200074726F7965722073756E6B2100537562FE
:100130006D6172696E652073756E6B210043727517
:10014000697365722073756E6B2100580A40000157
:10015000000800000000C00840000080040000000B
:10016000013030200000787C000000010FC010003A
:100170000047820000000200000C000180018000A6
:10018000000C000003800E00004000001000000082
:100190007FF00000380000E00000000000000007D1
:1001A000800F0000000000000000007FF000000051
:1001B0000000000000000000000000580A3FFFFEA1
:1001C000FFF7FFFFFFFF3FF03FFFFF7FFBFFFFFF5A
:1001D000FE0FC01FFFFF8783FFFFFFFE00000FFF22
:1001E000FF8001FFFFFFFC000003FFFE00007FFF18
:1001F000FFF00000007FF000003FFFFFE000000084
:100200000000000007FFFF000000000000000000E9
:100210007FF000000000000000000000000000006F
:100220000000000000000000000000580E21000146
:100230000020002000800004210001004000400058
:1002400080000410800080400040008000020840D0
:1002500000404000400040000187B00030200020F6
:100260000040001040FF003E100020002000283F0A
:1002700050FFE1F80010001800C70020CC40070034
:100280007C003603C0003070401CFFA300C1FC207E
:10029000004F8C40200420FF010020004003E010AC
:1002A00004183183C0C0E380001C3C1B37C07C3F76
:1002B0003C1C000003C3E0C000000003000000007D
:1002C0000000000000000043616E2774206F766517
:1002D000726C617020626F61747300050038016890
:1002E000010000401E0000000000000000000000AF
:1002F00000000000000000000000000000000000FE
:1003000004000000000000000300000000000000E6
:1003100004000000000000010600000000000007CB
:100320000B800000000000077D0E00000000028F1F
:10033000FFF81231FF7FFFFFFFFFFFFFFC3FFFFFD2
:10034000FFFFFFFFF80FFFFFFFFFFFFFF8FFFFFFBB
:10035000FFFFFFFFFF5555555555555555AAAAAAFC
:10036000AAAAAAAAAA5555555555555555AAAAAA95
:10037000AAAAAAAAAA5555555555555555AAAAAA85
:10038000AAAAAAAAAA5555555555555555AAAAAA75
:10039000AAAAAAAAAA5555555555555555AAAAAA65
:1003A000AAAAAAAAAA5555555555555555AAAAAA55
:1003B000AAAAAAAAAA5555555555555555AAAAAA45
:1003C000AAAAAAAAAA5555555555555555AAAAAA35
:1003D000AAAAAAAAAA17534400161378001613143F
:1003E000001510200015201000540A03E181867FBB
:1003F0003E186D830F0F0E0183866033186DC3198D
:100400008F1803C38E6033186DE330CF1803C39E7B
:10041000603630CDE360CF3006C79E7E3E30CDB330
:1004200060CF300CC6F6603330D9B660CF33CFCC56
:10043000F66061B0DB1E60CF30D86CE6C061B0DB27
:100440001E618F19986CC6C063B19B0E330F0FB03D
:1004500078C6FF7E1F1B061E0F450068010000F6D0
:10046000E8DBCFC3B8AEA49B928A827B746E6862CD
:100470005C57524E4945413E3A3734312E2C29279C
:100480002523210A0A153A49676E6F7265006D5679
:100490000A0A504C45415345205455524E204F4670
:1004A0004620004C4F572042415454455259212078
:1004B0000003053F213F1208120A100A0E1C0E0C01
:1004C0001E0C141A14161F161E131E1E1B1E1E1F92
:1004D0001E3F213F3A2F3A173D173F213F181F0279
:1004E000040A041F0E04040E1F0A1F0A0E0E1F0426
:1004F000110E2E252E2F2A2E262929021F02081F13
:1005000008150E04040E150E15151B151B04060404
:10051000040C040000000017000300031F0A1F164C
:10052000371A1904130A153A000300000E11110EB0
:10053000000A040A040E0400300004040400100041
:100540001804031F111F121F101D151711151F0767
:10055000041F17151D1F151D01011F1F151F17153E
:100560001F000A00003200040A110A0A0A110A04D4
:100570000115020E11171E051E1F150A0E110A1F66
:10058000110E1F15111F05010E111D1F041F111F34
:100590001108100F1F041B1F10101F061F1E040F31
:1005A0000E110E1F09060E112E1F051A1215090134
:1005B0001F011F101F0F180F1F0C1F1B041B031CF4
:1005C00003191513001F11030418111F0002010263
:1005D0002020200001020C121E1F120C0C12120C03
:1005E000121F0C1A14041E05242A1E1F021C141D9F
:1005F0001020201D1F0814111F101E041E1E021C97
:100600000C120C3E0A040C123E1E040214160A02BE
:100610000F120E101E0E100E1E081E120C1226288F
:100620001E322A26041E21001F00211E0401020181
:100630003F213F172B152010204C4F4144455200BD
:10064000172B162013140053686970777265636B5B
:10065000000A4E6F2053442063617264206F720A57
:100660006E6F204C4F414445522E4845580A0A159A
:100670003A45786974001D20466C617368696E673D
:100680000A20206C6F616465722E2E2E0A0A444F78
:100690004E2754205455524E204F4646210000000C
:1006A00000002300260029000404040404040404B8
:1006B000020202020202030303030303010204080D
:1006C00010204080010204081020010204081020BC
:1006D0000000000800020100000304070000000001
:1006E000000000000500680138010000571C511C83
:1006F00011241FBECFEFD8E0DEBFCDBF12E0A0E0D7
:10070000B1E0EEEDF2E402C005900D92A037B10722
:10071000D9F725E0A0E7B2E001C01D92A03BB207E7
:10072000E1F713E0C7E7D3E004C02197FE010E9480
:10073000291DC637D107C9F70E9408140C946221FD
:100740000C9400004F925F926F927F928F929F92D3
:10075000AF92BF92CF92DF92EF92FF920F931F93CF
:10076000CF93DF9300D000D01F92CDB7DEB740917A
:10077000A5055091A6056091A7057091A8052FB712
:10078000F8948091780290917902A0917A02B091C8
:100790007B022FBF481B590B6A0B7B0B8091A40572
:1007A00090E0A0E0B0E00091A0051091A10520919B
:1007B000A2053091A30584179507A607B70730F463
:1007C000011511052105310509F030C3012B022B5C
:1007D000032B09F029C380913C0581508E3F30F5F1
:1007E00080913B05813039F580914F058F5F609195
:1007F000500587FD09C0082E000C990B70E06F5F53
:100800007F4F0E94011D682F60934F0580E496E0A2
:100810009093AA058093A90588E48093AB0540E0F6
:1008200069E574E08AE495E00E94A10C80913C05A2
:1008300081508E3F70F480913A05813009F0A2C357
:1008400083E396E09093AA058093A90588E48093BA
:10085000AB0580E00E94A41180914B05882309F428
:10086000ADC080915F058111A9C08091570590911D
:100870005805E0915C05F0915D05EE0FFF1FE80F54
:10088000F91F459154914115510501F520915B05E2
:10089000222331F010925D0510925C05FC0114C01A
:1008A00010924B0580914A05882341F080E00E9418
:1008B000A411E0915C05F0915D052FC060E08AE431
:1008C00095E00E94900C7AC0459154919A0136951A
:1008D00027953695279540FF51C0CA0116E0969599
:1008E00087951A95E1F78F71952F96959695969520
:1008F00090512F70223071F1F8F4211117C08B3014
:1009000008F08AE080936005E0915C05F0915D0558
:100910003196F0935D05E0935C05EE0FFF1F80912B
:10092000570590915805E80FF91FCECF213061F798
:1009300060E00E94E511E8CF2330B1F0243021F7C8
:1009400020914E05829F802D1124809367059093FE
:100950006805DACF20914E05829F802D1124809367
:10096000630590936405D0CF20914E05829F802D22
:1009700011248093650590936605C6CF2F7320934D
:100980005E0580914E05859F802D112480935F0523
:1009900010926F0510926E0510926D0581E08093A4
:1009A0006105809373021092620580915C059091BD
:1009B0005D05019690935D0580935C0580916105CE
:1009C000882309F4F3C080915F05811106C060E0BF
:1009D0008AE495E00E94900CE9C0815080935F0505
:1009E00080916F05811148C020916D0530916E0591
:1009F0002F5F3F4FC901880F991FE0916905F09162
:100A00006A05E80FF91F65917491862F87708093AE
:100A10007005AB01E3E056954795EA95E1F7CA0109
:100A200096958795972F96959695909371058F73C8
:100A300090914E05899F802D112480936F05417000
:100A40004093770230936E0520936D0580916B057E
:100A500090E02817390780F020916C05222339F0A7
:100A6000821B910990936E0580936D0505C060E02F
:100A70008AE495E00E94900C80916F0581508093EC
:100A80006F058091620521E0280F20936205409157
:100A90005E0530917105340F80915605380F309303
:100AA0004C0560916505662371F070E0822F022E7F
:100AB000000C990B0E94011D80916605869F300DE8
:100AC000112430934C0580914C0590E0849664E2AB
:100AD00070E00E94011D80934C05309160053093B9
:100AE0004D0560916305662381F0062E000C770B9F
:100AF000822F022E000C990B0E94011D809164052B
:100B0000869F300D112430934D0560916705662353
:100B1000A1F0822F220F990B70E00E94011DCB01E2
:100B200062E070E00E94011D2091680590914D05E2
:100B3000289F900D112490934D0580914D054F33C2
:100B400041F08A300CF089E087FD80E080934D050C
:100B500002C010924D05F894E0914C05F0E0E15A86
:100B6000FB4FE491E093760230914D0520917205A0
:100B7000320390011124409170054203C001439F4C
:100B8000900D112400904F0502C0880F991F0A9400
:100B9000E2F797FF02C081589F4F880F892F881F67
:100BA000990B809375028093740278948091AB05C1
:100BB000882309F486C08C3020F49CE0E92EE81AE2
:100BC00001C0E12CFF24F394F0927B051092930571
:100BD00010929405309178054DE2D42E1D2D131BF3
:100BE0001E0D03E0030F2EE4412F63E083E795E041
:100BF0003D830E942B0F3D810CEF030F1D5F202FC3
:100C000041E0612F80E50E949E12202F42E0612F7B
:100C100083E00E949E12F0929305F0929405009159
:100C20007805FD2CF01AFE0C2EE44F2D63E083E7CF
:100C300095E00E94080F13E0100F1F0D4FEF410FBA
:100C40002EE463E083E795E00E94080F035033E051
:100C5000F30E202F4F2D60E083E795E00E942010D7
:100C6000202F4F2D63E583E795E00E94201041E09F
:100C70006F2D83E00E94201242E06F2D80E50E94DC
:100C80002012145044E0612F80E50E94201248E0B9
:100C9000612F83E00E94201284E080937C05809184
:100CA0007805E81A8E2D815D80937D058091A905D8
:100CB0009091AA050E943E118091AB0581508093CE
:100CC000AB058091410590914205892B09F484C0C0
:100CD00011E010939305109294059091770585E5A6
:100CE000891B80937C0510927D0580913E058130A3
:100CF00009F455C030F090913D05853008F067C08B
:100D000062C060E08AE495E00E94900C10924B056E
:100D100010937B05E1EBF4E0E491EF5FE09377055E
:100D2000E2EBF4E0E491EF5FE093780583EB94E08D
:100D3000909392058093910510924205109241057F
:100D40001092790518EA0E94A2038823E1F383EA4E
:100D500094E00E943E1140913F055091400560E0B3
:100D600070E02AE083E795E00E94E4098EE894E0D1
:100D70000E943E11412F42954F7050E060E070E0BC
:100D80002AE083E795E00E94E40983E894E00E946A
:100D90003E1180913A05813009F0FAC01DC0809162
:100DA000960590919705A0919805B09199058F703F
:100DB0009927AA27BB270897A105B10510F487E05A
:100DC00009C088E707C0992339F08B5F03C09923D6
:100DD00019F08FE20E9401130E94FE1080917905A4
:100DE00081110EC088EF91E0E2E8F2E0DF019C01A2
:100DF0001D9221503040E1F710927C0510927D0544
:100E00000E94A40B6093A0057093A1058093A20596
:100E10009093A30520919C0530919D05621B730B57
:100E200070939B0560939A0580E0CCC02FB7F8942F
:100E30008091780290917902A0917A02B0917B0220
:100E40002FBF2091A405820F911DA11DB11D80937C
:100E5000A5059093A605A093A705B093A80580913A
:100E6000960590919705A0919805B09199050196E6
:100E7000A11DB11D8093960590939705A0939805A9
:100E8000B09399051092A0051092A1051092A205A9
:100E90001092A3050E94A40B60939C0570939D057E
:100EA00080939E0590939F0580912605909127053C
:100EB0002FE0289F8001299F100D112485E10E94B9
:100EC0008D0B800F911F24E0969587952A95E1F769
:100ED000909327058093260520912505222309F468
:100EE0004BC060912905262F30E040E050E0298377
:100EF0003A834B835C83C0902A05D12CE12CF12CE2
:100F000040912D0550912E054A01A12CB12C209124
:100F10002B0530912C052901612C712C8217930728
:100F200028F09C014817590708F49A01C901A0E06C
:100F3000B0E09C01AD0124193509460957096981C2
:100F40007A818B819C816C197D098E099F090E9491
:100F5000E51CA501940124193509460957090E9489
:100F6000C820C20ED31EE41EF51EC09228056C2DAB
:100F700070E085E00E942E0B0E948B100E940C13E3
:100F800081E020C0893209F064CC0E946F1161CCED
:100F9000115009F0D8CE60E070E085E00E942E0B81
:100FA00083B7817F846083BF83B7816083BF83B74A
:100FB000816083BF889583B78E7F83BF83B78E7F21
:100FC00083BFC1CE0F900F900F900F900F90DF91C5
:100FD000CF911F910F91FF90EF90DF90CF90BF9036
:100FE000AF909F908F907F906F905F904F900895FB
:100FF000CF92DF92EF92FF920F931F93CF93DF93E5
:10100000EC0181E080937B0510927A0510927905BE
:1010100010923D0580939305809394051CE00E94F7
:10102000A2038823E1F3FE018491882319F0009143
:10103000780501C000E029EE33E040E060E083E79E
:1010400095E00E94D50C4CE0400F23EE32E060E0CA
:1010500083E795E00E94D50C10927C0510937D05E6
:10106000CE010E943E1180917705982F990F890F2C
:1010700081958D5A80937C0580917805982F990FE2
:10108000890F8195835D80937D058091960584FF0E
:1010900003C085EE93E002C081EE93E00E945F11F1
:1010A00080917705982F990F890F81958D5A80939C
:1010B0007C0580917D058F5F80937D0580914F0534
:1010C000882319F08DED93E002C089ED93E00E9432
:1010D0005F1190917705892F880F980F91959D5AF0
:1010E00090937C0580917D058F5F80937D0585EDD4
:1010F00093E00E945F1180913B058130C9F480919B
:101100004F058F5F6091500587FD09C0082E000CC8
:10111000990B70E06F5F7F4F0E94011D682F6093F5
:101120004F0540E069E574E08AE495E00E94A10C77
:1011300080913A058130A9F080919505482F50E0C3
:1011400060E070E0C0909605D0909705E09098051B
:10115000F0909905C416D506E606F706F8F08F3F1D
:10116000E9F08FEF8093950560E08AE495E00E94B6
:10117000900C10924B0540E06BED72E08AE495E034
:101180000E94A10C81E080933D05DF91CF911F91DA
:101190000F91FF90EF90DF90CF90089580913C05E4
:1011A000813009F03CCF0E946F1139CFCF92DF928E
:1011B000EF92FF920F931F93CF93DF936C017A010D
:1011C0008B01C0E0D0E0CE15DF0589F0D8016D912C
:1011D0008D01D601ED91FC910190F081E02DC601C9
:1011E0000995892B11F47E0102C02196ECCFC7012D
:1011F000DF91CF911F910F91FF90EF90DF90CF90F3
:101200000895FC01918D828D981761F0828DDF0128
:10121000A80FB11D5D968C91928D9F5F9F73928FE9
:1012200090E008958FEF9FEF0895FC01918D828DDE
:10123000981731F0828DE80FF11D858D90E00895AB
:101240008FEF9FEF0895FC01918D228D892F90E003
:10125000805C9F4F821B91098F739927089582E8C4
:1012600094E00E94230921E0892B09F420E0822FD9
:101270000895FC01848DDF01A80FB11DA35ABF4F53
:101280002C91848D90E001968F739927848FA68985
:10129000B7892C93A089B1898C9180648C93938DAC
:1012A000848D981306C00288F389E02D80818F7D9C
:1012B00080830895EF92FF920F931F93CF93DF9354
:1012C000EC0181E0888F9B8D8C8D981305C0E88997
:1012D000F989808185FD24C0F62E0B8D10E00F5F0B
:1012E0001F4F0F731127E02E8C8DE8120CC00FB624
:1012F00007FCFACFE889F989808185FFF5CFCE0117
:101300000E943909F1CF8B8DFE01E80FF11DE35AE0
:10131000FF4FF0820B8FEA89FB898081806207C0D2
:10132000EE89FF896083E889F98980818064808300
:1013300081E090E0DF91CF911F910F91FF90EF90AE
:101340000895CF93DF93EC01888D8823C9F0EA8953
:10135000FB89808185FD05C0A889B9898C9186FDAE
:101360000FC00FB607FCF5CF808185FFF2CFA889AB
:10137000B9898C9185FFEDCFCE010E943909E7CF65
:10138000DF91CF91089580E090E0892B29F00E94B1
:101390002F0981110C94000008950E94281E6115E8
:1013A000710579F0FB0101900020E9F73197AF0159
:1013B000461B570BDC01ED91FC910280F381E02D7F
:1013C000099480E090E008954F925F926F927F922F
:1013D000EF92FF920F931F93CF93DF93CDB7DEB7BA
:1013E000A1970FB6F894DEBF0FBECDBF7C01FA0106
:1013F000CB0119A2223008F42AE08E010F5D1F4FA5
:10140000422E512C612C712CBF01A30192010E942C
:101410003121F901CA01015011096A3014F4605DEB
:1014200001C0695CD8016C93232B242B252B61F719
:10143000B801C7010E94CF09A1960FB6F894DEBF8C
:101440000FBECDBFDF91CF911F910F91FF90EF9015
:101450007F906F905F904F9008950F931F93CF935D
:10146000DF93EC010E94CF098C0163E372E0CE01AF
:101470000E94CF09800F911FDF91CF911F910F9193
:1014800008951F920F920FB60F9211242F933F933E
:101490004F935F936F937F938F939F93AF93BF937C
:1014A000EF93FF9382E894E00E943909FF91EF9156
:1014B000BF91AF919F918F917F916F915F914F916C
:1014C0003F912F910F900FBE0F901F9018951F9274
:1014D0000F920FB60F9211242F938F939F93EF9338
:1014E000FF93E0919204F09193048081E09198043D
:1014F000F091990482FD12C0908180919B048F5FCE
:101500008F7320919C04821751F0E0919B04F0E0CE
:10151000EE57FB4F958F80939B0401C08081FF9114
:10152000EF919F918F912F910F900FBE0F901F9071
:101530001895833081F028F4813099F08230A1F041
:1015400008958730A9F08830B9F08430D1F48091C3
:1015500080008F7D03C0809180008F778093800012
:10156000089584B58F7702C084B58F7D84BD0895BA
:101570008091B0008F7703C08091B0008F7D809301
:10158000B00008951F93CF93DF93282F30E0F90127
:10159000E053F94F8491F901E454F94FD491F901E2
:1015A000E855F94FC491CC23C9F0162F81110E9440
:1015B000990AEC2FF0E0EE0FFF1FE258FF4FA591C4
:1015C000B4918FB7F894111105C09C91ED2FE0955F
:1015D000E92302C0EC91ED2BEC938FBFDF91CF910B
:1015E0001F910895CF93DF9390E0FC01E454F94FED
:1015F0002491FC01E855F94F8491882361F190E032
:10160000880F991FFC01EC58FF4FC591D491FC0144
:10161000E258FF4FA591B491611109C09FB7F894AA
:101620008881209582238883EC912E230BC0623021
:1016300061F49FB7F8943881822F80958323888343
:10164000EC912E2B2C939FBF06C08FB7F894E881A6
:101650002E2B28838FBFDF91CF9108951F93CF93B7
:10166000DF93182FEB0161E00E94F20A209711F43A
:1016700060E004C0CF3FD10539F461E0812FDF91F4
:10168000CF911F910C94C20AE12FF0E0E053F94F83
:10169000E491E330F9F048F4E130B9F0E230A1F53B
:1016A00084B5806284BDC8BD34C0E730E9F0E8305D
:1016B00019F1E43049F580918000806280938000C8
:1016C000D0938B00C0938A0024C084B5806884BD09
:1016D000C7BD1FC080918000806880938000D09338
:1016E0008900C093880015C08091B0008068809305
:1016F000B000C093B3000DC08091B00080628093B1
:10170000B000C093B40005C0C038D1050CF0B5CF0F
:10171000AFCFDF91CF911F9108958E3008F08E509A
:101720008770806480937C0080917A0080648093CD
:101730007A0080917A0086FDFCCF8091780020911C
:10174000790090E0922B08953FB7F89480917E0243
:1017500090917F02A0918002B091810226B5A89B52
:1017600005C02F3F19F00196A11DB11D3FBFBA2F33
:10177000A92F982F8827820F911DA11DB11DBC0193
:10178000CD0142E0660F771F881F991F4A95D1F758
:1017900008958F929F92AF92BF92CF92DF92EF9275
:1017A000FF926B017C010E94A40B4B015C01C114F0
:1017B000D104E104F104F1F00E94A40BDC01CB019F
:1017C00088199909AA09BB09883E9340A105B1056A
:1017D00070F321E0C21AD108E108F10888EE880E02
:1017E00083E0981EA11CB11CC114D104E104F104D2
:1017F00019F7DDCFFF90EF90DF90CF90BF90AF90C3
:101800009F908F9008951F920F920FB60F92112400
:101810002F933F938F939F93AF93BF9380917802C1
:1018200090917902A0917A02B0917B0230917D0271
:1018300023E0230F2D3720F40196A11DB11D05C013
:1018400026E8230F0296A11DB11D20937D028093EF
:10185000780290937902A0937A02B0937B028091F0
:101860007E0290917F02A0918002B0918102019648
:10187000A11DB11D80937E0290937F02A0938002F0
:10188000B0938102BF91AF919F918F913F912F9122
:101890000F900FBE0F901F9018951F920F920FB6CA
:1018A0000F9211242F936F937F938F939F93609147
:1018B0007502662359F180917C028F5F80937C02D0
:1018C00090917602891710F12091730281E0282708
:1018D0002093730210927C0280917702882369F032
:1018E0008091D60193E4899F802D1124895B809398
:1018F000D6010E94F51C90937402222329F0809156
:1019000074028093B40002C080E0FBCF9F918F915E
:101910007F916F912F910F900FBE0F901F90189590
:10192000FC0161110DC0178A158A14A213A2108E32
:101930001092740210927502109273021092B40009
:101940000895EF92FF920F931F93CF93DF931F920F
:10195000CDB7DEB77C018B01411105C060E0498342
:101960000E94900C498150E0FA01EE0FFF1FEE0D2E
:10197000FF1D16870587DA011996AA0FBB1FAE0D4A
:10198000BF1D1D921C92F701E40FF51F81E08183BA
:1019900089E0868B118E138E158E0F90DF91CF917B
:1019A0001F910F91FF90EF9008954F925F926F9269
:1019B0007F928F929F92AF92BF92CF92DF92EF92DF
:1019C000FF920F931F93CF93DF93F901C490319649
:1019D0005491EC0108A164350CF018C10C2C000CDA
:1019E000DD08A62F062E000CBB0B7D01EC0CFD1CA8
:1019F0001E141F040CF00AC140330CF007C1A52EC1
:101A0000842E042E000C9908F401E50FF11D57FDFA
:101A1000FA951E161F060CF0F9C02E5F3F4FE60127
:101A20002796D7FD279673E0D595C7957A95E1F768
:101A300047FF0AC0A52EA40EC89DA001C99D500D48
:101A40001124241B350B40E0EA2D0A2C000CFF0B5F
:101A5000E40FF11D47FDFA95F1971CF050E3A52E18
:101A6000A41A67FD60E0F701E535F10514F0E4E53F
:101A7000F0E07E2FFC01D484D426862F062E000CA5
:101A8000990BFC01EA1BFB0BDF017F01F7E0EF2262
:101A9000FF24E0E8F0E002C0F595E795EA94E2F76C
:101AA0001E2FB7FD179653E0B595A7955A95E1F708
:101AB0002A0F3B1FE42FE77051E001C0550FEA9554
:101AC000EAF7459545954595B4E54B02800D911D86
:101AD00011248E579D4FC12C0A2C000CBB08992451
:101AE00093942E015524EC2DF0E0EA15FB050CF043
:101AF0008DC0F90144910130E1F47C01A12F862EC3
:101B0000881AB82DBE0DB71708F077C0B42FBA23C6
:101B100021F0E701B881B52BB883B0E0B595A79562
:101B2000109719F431964491A0E8DFEFED1AFD0A01
:101B3000E8CF01111FC0752E70947C01A12FF9010F
:101B4000862E881AB82DBE0DB71708F056C0B42FD0
:101B5000BA2321F0E701B881B721B883B0E0B59589
:101B6000A795109719F431964491A0E8DFEFED1A8C
:101B7000FD0AE8CF033031F07C01A12FF901862E58
:101B8000881A37C0752E7094862E7C01A12FF9011A
:101B90008716D8F4B42FBA2359F0E701B881682C1E
:101BA0006D2460FE02C0B52B02C0B721E701B883E7
:101BB000B0E0B595A795109719F431964491A0E837
:101BC0008394DFEFED1AFD0AE3CFD92416C0B42FBA
:101BD000BA2321F0E701B881B527B883B0E0B59505
:101BE000A795109719F431964491A0E8DFEFED1A0C
:101BF000FD0AB82DBE0DB71750F3550F19F48C5AC6
:101C00009F4F51E0C394240D351D6DCFDF91CF91CF
:101C10001F910F91FF90EF90DF90CF90BF90AF900A
:101C20009F908F907F906F905F904F90089522E3E8
:101C300020937C05BC0183E795E00C942D0ACF939B
:101C4000DF93782FE62FF0E0CF01880F991FE80F80
:101C5000F91F8FE0789FE00DF11D1124EA55FE4F2A
:101C600020813181A28190E081E041E050E0471B7A
:101C7000510971E5749FE001759FD00D112449E071
:101C8000AA2321F0992321F02F5F02C091113F5F19
:101C9000FE01429FE00DF11D1124E050FF4FE30FC4
:101CA000F11D5081561380E09F5F691748F7DF915F
:101CB000CF910895DF92EF92FF920F931F93CF93EE
:101CC000DF939FE0899FE0011124A0E0B0E020E0D5
:101CD00030E090E08FEF042F10E0E62EF12CFD01B4
:101CE000EC0FFD1FEA55FE4F7081D18051E0E2817B
:101CF000E11101C050E0671758F0F901E70FF11D3D
:101D0000EE15FF052CF04D1103C051110DC002C09E
:101D10004D1558F0F901ED0DF11DE017F1072CF00C
:101D2000671303C0511101C0892F9F5F2F5F3F4F81
:101D300013969530A1F6DF91CF911F910F91FF90EF
:101D4000EF90DF9008950E944913809195058823B4
:101D500021F087E496E00E94F80710923D0508956F
:101D6000FC01643508F053C0403308F050C090A126
:101D7000742F759575957595262F062E000C330BCF
:101D8000542F57709230A1F4F901EE57FD4F84E5BE
:101D90007802E00DF11D1124808190E0052E02C033
:101DA000959587950A94E2F78095982F91700AC0CF
:101DB000933041F4848581704627409541708413A7
:101DC00003C014C0911112C084E57802200D311DAA
:101DD0001124F901EE57FD4F81E090E001C0880F1A
:101DE0005A95EAF780959081892310C084E578029E
:101DF000200D311D1124F901EE57FD4F81E090E0D7
:101E000001C0880F5A95EAF79081892B8083089545
:101E1000DF92EF92FF920F931F93CF93DF931F9266
:101E2000CDB7DEB78C01D62EF42EE12CE21654F499
:101E30006E2D6D0D4F2DC80129830E94B00EE394C5
:101E40002981F4CF0F90DF91CF911F910F91FF90D7
:101E5000EF90DF900895DF92EF92FF920F931F9320
:101E6000CF93DF937C01D62FD22EC42F002E000CEF
:101E7000110B040F111D47FD1A954C2F0C2E000C51
:101E8000550B4017510744F42D2D4C2F6D2FC701D2
:101E90000E94080FCF5FF1CFDF91CF911F910F917B
:101EA000FF90EF90DF9008956F927F928F929F92B4
:101EB000AF92BF92CF92DF92EF92FF920F931F9358
:101EC000CF93DF93EC016A3019F42D819885A1C07E
:101ED0006D3009F4A4C01885BA84D98488A083E53C
:101EE0008D150CF47FC08FE28B150CF47BC08C81B8
:101EF00090E00197189F9001199F300D1124C9019E
:101F00008D0D911DD7FC9A95181619060CF06AC014
:101F10008D81819FC00111248B0D911DB7FC9A9575
:101F2000181619060CF05EC09D2CCD2CE62EF12C57
:101F3000EC2DED190E2E000CFF0B8C8190E0E817B4
:101F4000F9070CF04EC00197E817F90779F0E89E01
:101F50009001E99E300DF89E300D1124E20FF31F21
:101F60008E8D9F8DE80FF91F749001C0712C6B2C22
:101F7000AB2C2A2D2B19022E000C330B8D8190E0F7
:101F8000281739075CF570FE10C0113031F44A2D66
:101F90006C2DCE010E94B00E1DC0012F212F462DA9
:101FA000692DCE010E942B0F15C089A198A1891718
:101FB00089F088A3113031F44A2D6C2DCE010E9496
:101FC000B00E07C0012F212F462D692DCE010E9492
:101FD0002B0F88A27694A394610ECBCFC394910E5D
:101FE000A7CF88A228853C818985329F800D112446
:101FF00089879F81992399F0082E000C990B44E55D
:1020000050E0239F401951091124481759073CF407
:102010009D818A85299F800D11248A87198681E0F8
:1020200090E0DF91CF911F910F91FF90EF90DF90A3
:10203000CF90BF90AF909F908F907F906F900895BA
:10204000DF92EF92FF920F931F93CF93DF931F9234
:10205000CDB7DEB78C01D62EF42EE12CE21654F467
:102060004E2D4F0D6D2DC80129830E94B00EE394B3
:102070002981F4CF0F90DF91CF911F910F91FF90A5
:10208000EF90DF9008950F93CF93DF9348EF51E0E7
:102090006FEF7FEF82E892E00E94361E1092930568
:1020A0001092940508E222E247E061E383E795E0BD
:1020B0000E942B0F81E080937D052EE240E061E0DD
:1020C00083E795E00E94080F2EE241E06FE283E78C
:1020D00095E00E9420102EE24FE261E083E795E058
:1020E0000E94080F2EE241E060E083E795E00E9445
:1020F0002010D1E0C1E04D2F6C2F83E795E00E94C6
:10210000B00ECB5FC333B9F7DB5FD33399F7DF9101
:10211000CF910F910895CF92DF92EF92FF920F939C
:102120001F93CF93DF93CFE2D5E006E315E0FF24C2
:10213000FA9497E0E92EE00E62E088810E94F20AAC
:10214000288130E0F901E053F94F8491F901E4541A
:10215000F94FC490F901E855F94FD490DD2071F0A2
:1021600081110E94990AED2DF0E0EE0FFF1FE2565B
:10217000F94FA591B491EC91EC21B1F4F801808173
:102180008F5F808360E088810E94F20A21960F5F52
:102190001F4FE012D1CFDF91CF911F910F91FF9090
:1021A000EF90DF90CF900895F8018081882371F33C
:1021B000F8018F3F11F41082E5CFF082E3CFCF9387
:1021C000C82FF89460E0809182050E94C20A809135
:1021D000830518161CF460E00E94C20ACEBD000000
:1021E0000DB407FEFDCF8EB58091830518161CF443
:1021F00061E00E94C20A7894CF9108950F931F93D3
:10220000CF9380917F058F5F80937F0502E812E076
:10221000C0E08C2F80640E94DF1080E80E94DF10F5
:1022200061E0809182050E94C20A809183051816A0
:102230001CF460E00E94C20A80E090E0F801E80F20
:10224000F91F20812EBD00000DB407FEFDCF2EB575
:1022500001968435910591F78091830518161CF439
:1022600061E00E94C20ACF5F0C5A1F4FC63089F648
:1022700080E4CF911F910F910C94DF100F931F9367
:10228000CF93DF938C01C0E0D0E0F801EC0FFD1F8D
:102290006491662371F0E0917305F09174050190EB
:1022A000F081E02D83E795E00995892B11F02196C7
:1022B000ECCFCE01DF91CF911F910F910895CF9375
:1022C000DF930E943E11EC0163E372E083E795E047
:1022D0000E94CF098C0F9D1FDF91CF91089588EF49
:1022E00091E0E2E8F2E0DF019C011D9221503040D4
:1022F000E1F710927C0510927D0586E796E00E943A
:102300003E110E94FE108CB583608CBD8DB58E7F12
:102310008DBD89E692E0EEEFFFE309951092790515
:1023200081E596E00E945F110E94FE100E948B10D2
:1023300080913A05813039F062E370E080E090E00E
:102340000E94C90BF3CF0895CF93DF93482F50E03D
:10235000EA01CB5DDA4F9DA19923A1F19EA19111D4
:1023600031C09EA5FA01EE0FFF1FE45DFA4F35A1C3
:1023700026A1E32FF22FE90FF11DE90FF11D2591A1
:1023800034912F3F9FEF390711F41DA21BC039ABC9
:10239000440F551FFA01E15DFA4F3327220F331F17
:1023A00005A0F6A1E02DE20FF31F65917491811154
:1023B00005C040E08AE495E00E94A10C29968DA119
:1023C0008F5F8DA3DF91CF91089570E0DB01AA0F9D
:1023D000BB1FAB5DBA4FD4962C91D497D5969C91E8
:1023E000D597E22FF92FE80FF11DE80FF11D259188
:1023F00034915F9696963C932E939597F90185912B
:10240000949190914E05989F802D11246B5D7A4F89
:10241000FB01B19685A3F901A591B4914B2F50E032
:10242000E82FF0E04E175F0720F4F9012591349171
:10243000832FFB01B296899F802D112485A30895D7
:10244000AF92BF92CF92DF92EF92FF920F931F93C2
:10245000CF93DF93182F062FC1E0D3E08AEFD82E59
:102460009EEFE92E842F8470C82E842F8270B82EA0
:10247000842F8870A82E4170F42E8C2F880F8F5FC8
:10248000E80ECC2081F04D2F400F6C2F610F83E7B9
:1024900095E00E94B00E4C2F400F6D2F610F83E727
:1024A00095E00E94B00EBB2081F0402F4D1B6C2F99
:1024B000610F83E795E00E94B00E402F4C1B6D2FFB
:1024C000610F83E795E00E94B00EAA2081F04C2FA7
:1024D000400F612F6D1B83E795E00E94B00E4D2FDA
:1024E000400F612F6C1B83E795E00E94B00EFF2028
:1024F00081F0402F4C1B612F6D1B83E795E00E94FC
:10250000B00E402F4D1B612F6C1B83E795E00E949E
:10251000B00ECD1744F4E7FC04C0D150D394D3944B
:10252000ED0CCF5FAACFDF91CF911F910F91FF905C
:10253000EF90DF90CF90BF90AF9008959F92AF92B1
:10254000BF92CF92DF92EF92FF920F931F93CF93A0
:10255000DF93F82EE62EB22E03E0020FD0E0C3E0A8
:102560008AEFC82E1EEF842F8170982EAA24A39480
:10257000A20E4270D42EDF5F802F8B19180F992086
:10258000A1F02C2F220F2A0D4E2D4C1B6D2F6F0DFD
:1025900083E795E00E942010202F4E2D4D1B6C2FBD
:1025A0006F0D83E795E00E942010DD20A1F02C2F15
:1025B000220F2A0D4E2D4C1B6F2D6D1B83E795E0CE
:1025C0000E942010202F4E2D4D1B6F2D6C1B83E77A
:1025D00095E00E942010DC1744F417FD04C0C150A0
:1025E000C394C3941C0D0E5FC6CFDF91CF911F9192
:1025F0000F91FF90EF90DF90CF90BF90AF909F90A2
:102600000895E0917305F09174050190F081E02D3B
:10261000682F83E795E009948091410590914205E8
:10262000892BB1F1809149058F7169F584E10E9490
:102630008D0BBC01990F880B990B0E94CF1F26EEC2
:102640003FE34EEC50E40E940A200E942F1D9B01A4
:102650007093400560933F05672B91F084E0809371
:102660003E05E1E4F5E080E0419151912417350702
:1026700018F480933E0508958F5F8430A9F703C056
:102680008FEF80933E05809149058F5F80934905C8
:10269000089540E064EE76E08AE495E00C94A10CA5
:1026A0002F923F924F925F926F927F928F929F9262
:1026B000AF92BF92CF92DF92EF92FF920F931F9350
:1026C000CF93DF9300D01F92CDB7DEB7362E6A01CD
:1026D000FA0104913196E49110E07801F7E0EF0EF1
:1026E000F11C93E0F594E7949A95E1F750E020E827
:1026F000A22EB12C8E2E912C8150582E5E0E852F3D
:10270000052E000C990B801791070CF047C0952FF0
:1027100057FF02C097E0950F959595959595852F54
:10272000877887FF03C08150886F8F5F350102C0B3
:10273000759467948A95E2F7412C892F990F990B2C
:102740009C012E5F3F4F3B832A83252E230C842D33
:10275000042C000C990B88159905F4F48E9DF0015A
:102760008F9DF00D9E9DF00D11242A813B81E20F7B
:10277000F31FEC0DFD1D249130E026213721232B82
:1027800049F0422D652D641983E795E059830E9435
:10279000B00E59814394DBCF5F5FB1CF0F900F90A4
:1027A0000F90DF91CF911F910F91FF90EF90DF90ED
:1027B000CF90BF90AF909F908F907F906F905F90E1
:1027C0004F903F902F900895CF93DF93C82FD62F2F
:1027D00022E0462F682F83E795E00E94080F41E032
:1027E0004D0F22E06C2F83E795E00E94080F22E056
:1027F0004D2F6C2F83E795E00E94201061E06C0F55
:1028000022E04D2F83E795E0DF91CF910C942010CB
:10281000CF93DF93CDB7DEB76F970FB6F894DEBFD7
:102820000FBECDBF789484B5826084BD84B58160CD
:1028300084BD85B5826085BD85B5816085BD80918B
:102840006E00816080936E00109281008091810003
:1028500082608093810080918100816080938100FB
:10286000809180008160809380008091B1008460BD
:102870008093B1008091B00081608093B00080911E
:102880007A00846080937A0080917A0082608093DD
:102890007A0080917A00816080937A0080917A003A
:1028A000806880937A001092C100E0919204F091C8
:1028B000930482E08083E0918E04F0918F04108273
:1028C000E0919004F09191048FEC808310929A042F
:1028D000E0919604F091970486E08083E09194045F
:1028E000F0919504808180618083E0919404F0915F
:1028F0009504808188608083E0919404F091950430
:10290000808180688083E0919404F09195048081B7
:102910008F7D808382E38093A40581E090E0A0E036
:10292000B0E08093A0059093A105A093A205B09379
:10293000A3058FEF80939505E0E8F7E725913491A3
:102940002130304C09F049C0E6E9F7E7E491E09323
:102950007E05E7E9F7E7E491E0932905E8E9F7E781
:10296000E491E0932A05E9E9F7E785919491909342
:102970002C0580932B05EBE9F7E7859194919093D3
:102980002E0580932D0588E080935005EEE9F7E74A
:10299000E491E0934F05EFE9F7E7E491E0939505C3
:1029A000E0EAF7E785919491909342058093410581
:1029B000E2EAF7E78591949190934405809343056B
:1029C000E4EAF7E785919491909346058093450555
:1029D000E6EAF7E7859194912CC09CE390937E05FD
:1029E0001092290580932A0580E293E090932C05AC
:1029F00080932B0584ED93E090932E0580932D0515
:102A000088E08093500580934F058CEA9DE0909379
:102A10004205809341058EED9DE09093440580939F
:102A2000430584E79EE090934605809345058CE33B
:102A30009FE0909348058093470511E0109325058A
:102A40006FEF70E085E00E942E0B88E080932F05E9
:102A500089E08093300587E08093310586E080939C
:102A6000320504E00093330582E08093340581E170
:102A7000809335050E948B108CE39FE09093400576
:102A800080933F0500933E05109349058BE08093AA
:102A900081058DE08093800580E1809382058EE042
:102AA000809384058FE08093830510937B051093BA
:102AB00093051092940510937A05E1EBF4E0E4910C
:102AC000EF5FE0937705E2EBF4E0E491EF5FE093F2
:102AD000780583EB94E090939205809391051FB75E
:102AE000F89480917002811127C0E2EBF6E08491A6
:102AF000E6ECF6E09491E82FF0E0EE0FFF1FEC58C3
:102B0000FF4FA591B491EC91E92321F461E08AE0B3
:102B10000E94C20A61E08AE00E94F20A8CB58061DC
:102B20008CBD8CB580648CBD61E08DE00E94F20AA2
:102B300061E08BE00E94F20A809170028F5F8093C7
:102B400070021FBF8CB58F7D8CBD8CB58C7F816072
:102B50008CBD8DB581608DBD8CB58C608CBD61E008
:102B6000809181050E94F20A61E0809180050E94B7
:102B7000F20A61E0809182050E94F20A8091840548
:102B800018161CF461E00E94F20A80918305181661
:102B90001CF461E00E94F20A80918405181674F416
:102BA00060E00E94C20A6AE070E080E090E00E946B
:102BB000C90B61E0809184050E94C20A8091800562
:102BC000082E000C990BFC01E855F94FE491F0E058
:102BD000EE0FFF1FE258FF4F259134913093880587
:102BE00020938705FC01E454F94FE491E0938E05AE
:102BF00080918105082E000C990BFC01E855F94FD6
:102C0000E491F0E0EE0FFF1FE258FF4F2591349161
:102C10003093860520938505FC01E454F94FE49137
:102C2000E0938D0580918305082E000C990BFC0123
:102C3000E855F94FE491F0E0EE0FFF1FE258FF4F27
:102C40002591349130938A0520938905FC01E45441
:102C5000F94FE491E0938F0580918205082E000CD6
:102C6000990BFC01E855F94FE491F0E0EE0FFF1FDE
:102C7000E258FF4F2591349130938C0520938B05BA
:102C8000FC01E454F94FE491E093900581E20E9445
:102C9000DF1084E10E94DF1080917E0587FF03C072
:102CA0008FE780937E0580917E0580680E94DF100B
:102CB00080E20E94DF108CE00E94DF100E94FE1074
:102CC00081E080934E0584E08093720580E790E078
:102CD00090935A058093590560E080E00E94E511C9
:102CE00061E070E083E00E942E0B8091B100887F4C
:102CF00081608093B100F89410928000109281005E
:102D0000109285001092840088E191E090938900F0
:102D100080938800809181008860809381008091F9
:102D2000810081608093810080916F008260809338
:102D30006F0078940E940C1380913B05813019F448
:102D400010924F050BC080913E058823C9F340E0E7
:102D500068E870E08AE495E00E94A10C80919505F6
:102D6000882321F086E990E00E94F807C0903F0593
:102D7000D0904005C094D094E12CF12C0E94A40B7B
:102D80004B015C010E94A40BA50194012095309594
:102D90004095509560957095809590950E94E51CA2
:102DA0009B01AC01C701B6010E94E51C4B015C010F
:102DB000C0902605D0902705E12CF12C0E94A40B91
:102DC000C60ED71EE81EF91EC701B601680D791D93
:102DD0008A1D9B1D611571058105910511F00E94E9
:102DE000C41F10923D0506EA202E01E0302E84EC2F
:102DF000482E81E0582E712CC12CD12C14E004E017
:102E0000912CB4E0EB2E872D81708C878FE08C9D08
:102E1000F0018D9DF00D1124F98BE88B0E94A20327
:102E20008823E1F30E944310A12CB12CF12CF10175
:102E3000EA0DFB1D8081418122818F3F09F47AC018
:102E4000F3E0F0939305F0939405642F660F660FFB
:102E5000982F990F990F2223D1F122E0F21619F140
:102E60002F1558F031E0F31226C0460F4E5F890F40
:102E700061E0680F26EA30E025C0E3E0FE1659F075
:102E8000F4E0FF1218C0460F4E5F890F61E0680F33
:102E900028EC30E017C0460F4E5F890F61E0680FE5
:102EA0002AEB30E00FC0460F4E5F890F61E0680FDC
:102EB00020EB30E007C0460F4E5F890F61E0680FDE
:102EC00020EA30E083E795E00E94D50C33C022E091
:102ED000F21601F12F1550F031E0F31222C0460F27
:102EE00061E0640F890F46EA50E021C0E3E0FE167E
:102EF00051F0F4E0FF1215C0460F61E0640F890F36
:102F000048EC50E014C0460F61E0640F890F4AEBB3
:102F100050E00DC0460F61E0640F890F40EB50E0B8
:102F200006C0460F61E0640F890F40EA50E08E5FF3
:102F30000E945013F39423E0A20EB11C3FE0A316AD
:102F4000B10409F074CF1092930510929405C20158
:102F50000E94170E41E0409393054093940582E44C
:102F600092E00E94170E8EE292E00E94170EAE2CA5
:102F7000B12CE9E0EE9EC00111248F519E4F0E94BA
:102F8000170E63E372E083E795E00E94CF0986E3C2
:102F900092E00E94170E8FE392E00E94170E80913C
:102FA0003B05F92C813081F4F826C501800F911D75
:102FB000099724F0FF2011F008E00E19C501810FD8
:102FC000911D09970CF0A1C080913A05813081F5DF
:102FD000912C892D90E0A816B9068CF0F11003C051
:102FE000492D60E002C0692D40E0410F600F8C85E3
:102FF0000E945A0E8F3F09F023C49394EACFF50143
:10300000EE0FFF1FEA0DFB1D28893989E20FF31F20
:10301000EA55FE4F00831183F28240E06BED72E0CF
:103020008AE495E00E94A10CEE2009F474C0EA94B1
:1030300080913705813021F4112309F40DC411501A
:1030400080913905813089F42F2D30E021503109EC
:10305000E29EC001E39E900D11240796212F30E0DF
:10306000821793070CF4FBC31F5F809136058130F4
:1030700021F4002309F4F6C3015080913805813012
:1030800069F4802F90E028E030E0EF9C20193109AE
:103090001124821793070CF0E8C30F5F80913C0561
:1030A000813009F4E5C31092930510929405612EC6
:1030B000660C660C862D810F8D5F8D83802F880FA7
:1030C000880F800F8D5F8987612CA12EB12C802EF7
:1030D000912C662D70E0FF2049F0680D791D862F38
:1030E000880F880F860F6D818D5F08C06A0D7B1D6C
:1030F000862F880F880F680F6D5F89850E94E41303
:103100006394E61430F79F2C89CE992009F45CCFA4
:1031100018E01E1959CF7394F72DF1707F2E29E016
:10312000420E511C3FE0230E311CCA94CD2821F0E1
:10313000CC24C394D12C62CE84EC91E0880F991FEB
:10314000FC013996FB8FEA8F94EC692E91E0792E81
:10315000E6EAF1E0F98BE88B1986C12CD12C1D86AB
:103160001C86FC2DF195FC8F19821A821B821C8211
:1031700085E1898380E18A8380E28B83E0909605F4
:10318000F09097054A8C5B8C4618570847012FE052
:103190002D831A8A10E0AA24BB24AC18BD08C601EE
:1031A0008F589D4F9F8B8E8B998591709C8BF601CC
:1031B000EC55FE4FFB87EA8796012E553E4F398F1F
:1031C000288FEE89FF898181811101C012E0FDE223
:1031D0002F2EF1E03F2E0E94A2038823E1F32091DD
:1031E000960530919705C9018E199F090297D4F071
:1031F0008F819885019798878F83893A9F4F14F420
:1032000018861F82FF81F0FD0CC08E859F85019777
:103210009F878E877901893A9F4F24F41F861E86E7
:1032200001C07901C901881999090B975CF08A815D
:10323000803119F490E29A8303C080E18A8380E2AE
:103240008B83490183E080939305809394052BE25F
:1032500032E040E06E8583E795E00E94D50C2BE2DA
:1032600032E040E06E85685A83E795E00E94D50C15
:1032700010929305109294052BEB31E040E06F81A2
:1032800083E795E00E94D50C2BEB31E040E00F8105
:10329000085A602F83E795E00E94D50C81E0809367
:1032A0009305809394052BE431E040E06F8183E740
:1032B00095E00E94D50C2BE431E040E0602F83E7DD
:1032C00095E00E94D50C8EE080937C058FE0809382
:1032D0007D05123091F4B30183E795E00E94CF0998
:1032E00068E472E083E795E00E94CF096CE472E045
:1032F00083E795E00E94CF0911C0B20183E795E012
:103300000E94CF0968E472E083E795E00E94CF094C
:1033100062E572E083E795E00E942D0A23EE32E039
:103320004A894D5E6AE083E795E00E94D50C83E010
:10333000809393058093940500E124E540E260E0EA
:1033400083E795E00E942B0F10929305109294054D
:1033500086E480937C0589E280937D05BE016F5FE2
:103360007F4F83E795E00E94CF09113009F072C0CA
:10337000EE89FF898181882309F46CC0EA85FB8589
:103380004181E88DF98D61818C890E945A0E082F48
:103390008F3F09F44AC0FD81682F8C89FF30E9F521
:1033A0000E941F0E882391F10230A1F048F40023FF
:1033B00071F0013021F53092AA052092A9051CC0B8
:1033C000033079F00430D9F42DEF30E011C02DE353
:1033D00031E00EC08DE191E09093AA058093A9059C
:1033E0000BC0EBE0F1E0F093AA05E093A90504C05F
:1033F0003093AA052093A90580E28093AB0568E588
:1034000072E082E894E00E942D0A21C086EF90E0ED
:103410009093AA058093A90513C00E941F0E8823CC
:1034200099F09A899F5F9A8B0FC0ED81EF3061F41C
:103430000E9449132EEE30E03093AA052093A9058F
:103440008BE18093AB0503C03D81332329F04D818F
:1034500041504D8301E001C000E080913A05813088
:1034600009F400E080913C05813009F404C20111A7
:10347000B2CE1F5F133009F0A4CED501AE55BE4FBA
:10348000FC90F501EC55FE4F108181E58A9D90017D
:103490008B9D300D11243B8B2A8BC5018F589D4F7E
:1034A0009E838D83BD8BAC8BFF8BEE8B332433944B
:1034B0000E94A2038823E1F30E9443101092930517
:1034C00010929405E2E02E2EA12CB12CEE24E39470
:1034D000E20C32E0812C912C4C845D844A0C5B1C04
:1034E000F401E40DF51DE050FF4F8081853028F494
:1034F00004E024E0422D632F07C08E3F59F402E020
:1035000022E04E2D61E0630F83E795E03F8F0E943C
:103510002B0F3F8D99E0890E911C3B5F3F3201F7E5
:10352000EFEFAE1ABE0AF5E02F0E29E0A216B104A5
:1035300069F680913705813021F4112309F49EC189
:10354000115080913905813021F4183008F099C16B
:103550001F5F80913605813021F4FF2009F494C16A
:10356000FA9480913805813029F497E09F1508F48A
:103570008EC1F39480913A058130D9F42A893B8930
:10358000E9E0EF9D200D311D112420503F4F5901DE
:10359000A10EB11CF50190819F3F71F00E9449136B
:1035A0008AED90E09093AA058093A90590E290930C
:1035B000AB054424439418C0ED81FE8190819F5F48
:1035C0009083FC8D8F27412F6F2D81700E945A0EA2
:1035D0008F3F09F45FC1F5018083EC89FD89F0829A
:1035E000EE89FF891083412C80913C05813009F4DC
:1035F00055C183E08093930580939405012F000FBC
:10360000000F010FEF2CEE0CEE0CEF0C23E0A22EBE
:10361000AE0C4DEF400F2DE06A2D83E795E00E9440
:10362000201033E0932E900E6DEF6E0D2DE0492D9E
:1036300083E795E00E94080F10929305109294057D
:103640004AE0400F6A2D83E795E00E94B00E4CEFF0
:10365000400F6A2D83E795E00E94B00E6AE06E0D80
:10366000492D83E795E00E94B00E6CEF6E0D492D59
:1036700083E795E00E94B00E44E0542E5E0C52E0C9
:10368000852E8E0C20E067E0B62E32EF7AEF272EE3
:103690000E192F5F822F880F8F5F280EEB2CE90CFD
:1036A0004E2D652D83E795E02E8F3F8F0E94B00E43
:1036B0004E2D682D83E795E00E94B00EE92CEB18A3
:1036C0004E2D652D83E795E00E94B00E4E2D682D9E
:1036D00083E795E00E94B00EE02EE50C4E2D5B2DA9
:1036E0005A0D652F83E795E05D8F0E94B00E4E2D39
:1036F000EA2CEB186E2D83E795E00E94B00E702F38
:10370000780D472F5D8D652F83E795E07D8F0E94B3
:10371000B00E7D8D472F6E2D83E795E00E94B00E91
:103720002E8D3F8D2B1544F427FC03C0BA943E5FC9
:10373000230E53948A94ADCF692D8A2D0E94E413F1
:1037400083E0809393058093940507E022E240E0B4
:1037500061E383E795E00E942B0F1092930510928E
:10376000940508E222E248E061E383E795E00E94E5
:103770002B0FC3010E94170E3092930530929405CF
:10378000ED81FE8100810F5F82E380937C056CE513
:1037900072E083E795E00E94CF09402F50E060E09F
:1037A00070E02AE083E795E00E94E40963E372E0B9
:1037B00083E795E00E94CF0982E692E00E94170E0F
:1037C00001E0A12CB12CE889F989EA0DFB1D60818B
:1037D000418182816F3F71F04B5D685B202F8823B0
:1037E00029F083E795E00E94080F04C083E795E085
:1037F0000E9420100F5FF3E0AF0EB11C2FE0A21665
:10380000B10409F7411054CE888999890F96998B94
:10381000888B99E0690E711CEC85FD85EF5AFF4F8E
:10382000FD87EC87F1E0CF1AD10829852F5F217041
:1038300029878C859D85823A910509F485CC91CCA8
:103840000E94491387EC92E09093AA058093A90502
:1038500080E28093AB05ECCB0E944913F1CB0E9430
:10386000491303CC0E94491308CC0E94491316CC7B
:103870000E94A30E18CC0E94A30EF9CD0E944913FA
:1038800060CE0E94491365CE0E9449136ACE0E9401
:10389000491370CE2EEFF50120839FCE0E94A30E18
:1038A000A8CE80911F05909120050C94D91E1092EE
:1038B00085041092840488EE93E0A0E0B0E0809349
:1038C000860490938704A0938804B093890482E1CE
:1038D00092E0909383048093820485EC90E090932F
:1038E0008F0480938E0484EC90E0909391048093F5
:1038F000900480EC90E0909393048093920481EC88
:1039000090E0909395048093940482EC90E09093DF
:1039100097048093960486EC90E0909399048093AA
:10392000980410929B0410929C0410929D04109293
:103930009E04109276051092750582E292E09093B3
:103940007405809373051092200510921F05109244
:10395000220510922105109224051092230561E0A2
:1039600070E080E090E00E945E1D009789F09093E7
:10397000200580931F0510922205109221052091A9
:10398000230530912405232BC1F4FC01108215C0BE
:1039900080911F0590912005009711F00E94D91E7B
:1039A0001092200510921F051092240510922305F5
:1039B000109222051092210508951092240510926C
:1039C000230565E372E00C943D1EDB018F939F930A
:1039D0000E94E720BF91AF91A29F800D911DA39FF0
:1039E000900DB29F900D11240895991B79E004C0A9
:1039F000991F961708F0961B881F7A95C9F780952E
:103A0000089597FB072E16F4009407D077FD09D090
:103A10000E94151D07FC05D03EF4909581959F4F9F
:103A20000895709561957F4F0895AA1BBB1B51E1C6
:103A300007C0AA1FBB1FA617B70710F0A61BB70B1E
:103A4000881F991F5A95A9F780959095BC01CD01C3
:103A50000895EE0FFF1F0590F491E02D09940E9448
:103A6000A72088F09F5798F0B92F9927B751B0F049
:103A7000E1F0660F771F881F991F1AF0BA95C9F7F2
:103A800014C0B13091F00E94C120B1E008950C94AF
:103A9000C120672F782F8827B85F39F0B93FCCF362
:103AA000869577956795B395D9F73EF4909580956F
:103AB000709561957F4F8F4F9F4F0895A0E0B0E0C4
:103AC000E4E6FDE10C94FE20EC01009721F4CB012B
:103AD0000E94441EB8C0FC01E60FF71F9C01225053
:103AE0003109E217F30708F4ACC0D9010D911C911C
:103AF000119706171707B0F00530110508F49FC09D
:103B0000C80104978617970708F499C00250110955
:103B1000061B170B019311936D937C93CF010E94A9
:103B2000D91E8DC05B01A01AB10A4C01800E911EF6
:103B3000A091AE05B091AF0540E050E0E12CF12C32
:103B4000109709F44AC0A815B905D1F56D907C907D
:103B50001197630182E0C80ED11CCA14DB0480F106
:103B6000A3014A195B096A0182E0C80ED11C1296B2
:103B7000BC9012971396AC91B5E0CB16D10440F0EF
:103B8000B282A38351834083D9016D937C930AC091
:103B90000E5F1F4FC301800F911FF9019183808336
:103BA000EB2DFA2FE114F10431F0D7011396FC93B9
:103BB000EE93129744C0F093AF05E093AE053FC07B
:103BC0008D919C9111974817590708F4AC017D011C
:103BD00012960D90BC91A02DB3CF8091AC05909121
:103BE000AD0588159905E1F446175707C8F480918B
:103BF000D7019091D801009741F48DB79EB74091BD
:103C0000DB015091DC01841B950BE817F907C8F420
:103C1000F093AD05E093AC05F901718360830FC0AB
:103C2000CB010E94441E7C01009759F0A801BE01FF
:103C30000E942D1ECE010E94D91EC70104C0CE01D4
:103C400002C080E090E0CDB7DEB7EEE00C941A2120
:103C500081E090E0F8940C946221FB01DC0102C049
:103C600001900D9241505040D8F70895DC0101C0F9
:103C70006D9341505040E0F70895FB01DC01019045
:103C80000D920020E1F70895CF93DF9382309105E4
:103C900010F482E090E0E091AE05F091AF0520E0F5
:103CA00030E0C0E0D0E0309711F1408151814817F9
:103CB0005907C0F04817590761F482819381209712
:103CC00019F09B838A832BC09093AF058093AE0538
:103CD00026C02115310519F04217530718F49A012F
:103CE000BE01DF01EF010280F381E02DDCCF211561
:103CF000310509F1281B390B2430310590F4129657
:103D00008D919C9113976115710521F0FB019383AF
:103D1000828304C09093AF058093AE05FD01329677
:103D200044C0FD01E20FF31F8193919322503109AA
:103D30002D933C933AC02091AC053091AD05232BD7
:103D400041F42091D9013091DA013093AD052093EF
:103D5000AC052091D7013091D8012115310541F4EE
:103D60002DB73EB74091DB015091DC01241B350B90
:103D7000E091AC05F091AD05E217F307A0F42E1B1E
:103D80003F0B2817390778F0AC014E5F5F4F2417BF
:103D9000350748F04E0F5F1F5093AD054093AC05BB
:103DA0008193919302C0E0E0F0E0CF01DF91CF91E9
:103DB00008950F931F93CF93DF93009709F48CC05E
:103DC000FC013297138212820091AE051091AF056B
:103DD0000115110581F420813181820F931F2091FB
:103DE000AC053091AD052817390779F5F093AD058D
:103DF000E093AC0571C0D80140E050E0AE17BF07BA
:103E000050F412962D913C911397AD012115310577
:103E100009F1D901F3CF9D01DA0133832283608157
:103E20007181860F971F8217930769F4EC0128812F
:103E30003981260F371F2E5F3F4F318320838A81C0
:103E40009B8193838283452B29F4F093AF05E09304
:103E5000AE0542C01396FC93EE931297ED01499183
:103E600059919E01240F351FE217F30771F48081E9
:103E70009181840F951F029611969C938E93828157
:103E8000938113969C938E931297E0E0F0E0D80113
:103E900012968D919C911397009719F0F8018C015F
:103EA000F6CF8D919C9198012E5F3F4F820F931F0B
:103EB0002091AC053091AD052817390769F430978A
:103EC00029F41092AF051092AE0502C0138212823F
:103ED0001093AD050093AC05DF91CF911F910F9129
:103EE00008958F929F92AF92BF92CF92DF92EF92FE
:103EF000FF92CF93DF93EC01688179818A819B8166
:103F0000611571058105910521F464E279ED8BE578
:103F100097E02DE133EF41E050E00E94C8204901D5
:103F20005A019B01AC01A7EAB1E40E94E7206B01B2
:103F30007C01ACEEB4EFA50194010E94F520DC01F8
:103F4000CB018C0D9D1DAE1DBF1DB7FF03C001979A
:103F5000A109B04888839983AA83BB83BC01CD01A2
:103F60009F77DF91CF91FF90EF90DF90CF90BF9040
:103F7000AF909F908F9008950E94711F08958DEDCE
:103F800091E00E94711F08956093DD017093DE013E
:103F90008093DF019093E0010895E89409C097FBB6
:103FA0003EF490958095709561957F4F8F4F9F4F10
:103FB0009923A9F0F92F96E9BB279395F695879554
:103FC00077956795B795F111F8CFFAF4BB0F11F417
:103FD00060FF1BC06F5F7F4F8F4F9F4F16C08823BE
:103FE00011F096E911C0772321F09EE8872F762FF4
:103FF00005C0662371F096E8862F70E060E02AF035
:104000009A95660F771F881FDAF7880F9695879520
:1040100097F908950E941D200C948E200E94802004
:1040200038F00E94872020F0952311F00C9477201F
:104030000C947D2011240C94C2200E949F2070F3C8
:10404000959FC1F3950F50E0551F629FF001729F3D
:10405000BB27F00DB11D639FAA27F00DB11DAA1F4C
:10406000649F6627B00DA11D661F829F2227B00D99
:10407000A11D621F739FB00DA11D621F839FA00D24
:10408000611D221F749F3327A00D611D231F849F74
:10409000600D211D822F762F6A2F11249F575040CB
:1040A0009AF0F1F088234AF0EE0FFF1FBB1F661F46
:1040B000771F881F91505040A9F79E3F510580F00F
:1040C0000C9477200C94C2205F3FE4F3983ED4F325
:1040D000869577956795B795F795E7959F5FC1F7B3
:1040E000FE2B880F911D9695879597F9089597F95E
:1040F0009F6780E870E060E008959FEF80EC08958E
:1041000000240A94161617061806090608950024B6
:104110000A9412161306140605060895092E039430
:10412000000C11F4882352F0BB0F40F4BF2B11F4A4
:1041300060FF04C06F5F7F4F8F4F9F4F089557FD03
:104140009058440F551F59F05F3F71F04795880F05
:1041500097FB991F61F09F3F79F08795089512169C
:1041600013061406551FF2CF4695F1DF08C0161648
:1041700017061806991FF1CF8695710561050894F9
:104180000895E894BB2766277727CB0197F9089510
:10419000052E97FB1EF400940E94DF2057FD07D0E8
:1041A0000E94312107FC03D04EF40C94DF2050957F
:1041B0004095309521953F4F4F4F5F4F0895909513
:1041C0008095709561957F4F8F4F9F4F08950E9406
:1041D0005321A59F900DB49F900DA49F800D911D1C
:1041E00011240895B7FF0C94E7200E94E720821B5A
:1041F000930B08952F923F924F925F926F927F920E
:104200008F929F92AF92BF92CF92DF92EF92FF92E6
:104210000F931F93CF93DF93CDB7DEB7CA1BDB0B92
:104220000FB6F894DEBF0FBECDBF09942A88398837
:1042300048885F846E847D848C849B84AA84B9843E
:10424000C884DF80EE80FD800C811B81AA81B9814A
:10425000CE0FD11D0FB6F894DEBF0FBECDBFED015E
:104260000895A1E21A2EAA1BBB1BFD010DC0AA1FB7
:10427000BB1FEE1FFF1FA217B307E407F50720F0CF
:10428000A21BB30BE40BF50B661F771F881F991F4A
:104290001A9469F760957095809590959B01AC0193
:1042A000BD01CF010895A29FB001B39FC001A39F9C
:1042B000700D811D1124911DB29F700D811D11245F
:1042C000911D089513E0C7E7D3E004C0FE010E94EA
:0E42D000291D2196C837D107C9F7F894FFCFF2
:1042DE00FFFFFFFFFFFFFFFFFFFFFFFFFFFFFFFFE0
:1042EE00FFFFFFFFFFFFFFFFFFFFFFFFFFFFFFFFD0
:1042FE00FFFFFFFFFFFFFFFFFFFFFFFFFFFFFFFFC0
:10430E00FFFFFFFFFFFFFFFFFFFFFFFFFFFFFFFFAF
:10431E00FFFFFFFFFFFFFFFFFFFFFFFFFFFFFFFF9F
:10432E00FFFFFFFFFFFFFFFFFFFFFFFFFFFFFFFF8F
:10433E00FFFFFFFFFFFFFFFFFFFFFFFFFFFFFFFF7F
:10434E00FFFFFFFFFFFFFFFFFFFFFFFFFFFFFFFF6F
:10435E00FFFFFFFFFFFFFFFFFFFFFFFFFFFFFFFF5F
:10436E00FFFFFFFFFFFFFFFFFFFFFFFFFFFFFFFF4F
:10437E00FFFF04040404FF0000FF0000FF0000FF25
:10438E000000FF0000FF0000FF0000FF0000FF0024
:10439E0000FF000059616E6E0000000000506C615D
:1043AE00796572320000010000B005800001000046
:1043BE00004372756973657200005375626D6172A8
:1043CE00696E0044657374726F7972004261742E67
:1043DE005368697000436172726965720000000073
:1043EE0000005A09D608230901091509A109000080
:1043FE000000540FD60800000000CD09D608796FD2
:10440E007572000D0A00413A20526F7461740042B9
:10441E003A20506C61636500277320007475726ECC
:10442E00210073686F743A006C6B6C0053686F7484
:10443E002000486974733A20004C4F4144455200A5
:00000001FF
