:100000000C9417040C943F040C943F040C943F048C
:100010000C943F040C943F040C943F040C943F0454
:100020000C943F040C943F040C943F040C94A407DC
:100030000C943F040C943F040C943F040C943F0434
:100040000C945A070C943F040C94BE050C9498052C
:100050000C943F040C943F040C943F040C943F0414
:100060000C943F040C943F040101FF030101F703CA
:100070006C00680000000000240027002A00000037
:100080000000250028002B000500893008023802F6
:1000900049786814000053686970777265636B0073
:1000A000300B0F8F8F7FCFF031C70638C73870E71E
:1000B0000C38473860E708300638E0E3183306307C
:1000C000E0E3307E0FE0E0E330720EC0E0C3E070AA
:1000D0000CE0E1C3C0608C606381C0E19C703E01B4
:1000E00081FFBE3C380B0FC0607C1F7FC038C0E072
:1000F0003C3C38C06040F03C3C38406041F02C7CD7
:100100003000E001302E583300E002306E987E005F
:10011000C7E7F06E987200E1843847387000E18CD0
:100120003847386080739838C638E1803F3C7DE6B8
:10013000FDFF80300D0FEFEFFFFFFC38382840182F
:1001400006671C6CE39C62458C49A2D462CC8C5B34
:1001500027F4E2888E72664CE6888A6640C80C886E
:100160008A64468898899A0C47E9888B1218CDB919
:10017000CCCE33118F31C660E1310020E23F81E106
:10018000FFFFBE380D0FF0787F1FFFF03810C84119
:1001900030401063908C6121E3904ED18421612224
:1001A000D0C8510429C127F088736468D366408F92
:1001B000FEE448B240C09C0C0648B246808F3DE247
:1001C0005C6247E08F3922D462CDA0C633639CE3E2
:1001D0008F206061410C8100203FFF7FFFFFFFE027
:1001E000416C72656164792073686F74207468650E
:1001F000726521004D6973732E2E2E0048495421DB
:10020000212100436172726965722073756E6B21E2
:1002100000426174746C6520736869702073756E38
:100220006B210044657374726F7965722073756E0B
:100230006B21005375626D6172696E652073756E16
:100240006B2100437275697365722073756E6B2143
:1002500000580A400001000800000000C0084000EB
:10026000008004000000013030200000787C000095
:1002700000010FC010000047820000000200000CC7
:10028000000180018000000C000003800E0000408F
:100290000000100000007FF00000380000E00000C7
:1002A000000000000007800F0000000000000000B8
:1002B000007FF000000000000000000000000000CF
:1002C00000580A3FFFFEFFF7FFFFFFFF3FF03FFF31
:1002D000FF7FFBFFFFFFFE0FC01FFFFF8783FFFFB6
:1002E000FFFE00000FFFFF8001FFFFFFFC00000387
:1002F000FFFE00007FFFFFF00000007FF000003FE6
:10030000FFFFE00000000000000007FFFF0000000A
:100310000000000000007FF000000000000000006E
:1003200000000000000000000000000000000000CD
:1003300000580E2100010020002000800004210050
:100340000100400040008000041080008040004018
:10035000008000020840004040004000400001874B
:10036000B000302000200040001040FF003E100090
:1003700020002000283F50FFE1F80010001800C7BF
:100380000020CC4007007C003603C0003070401CC9
:10039000FFA300C1FC20004F8C40200420FF01007F
:1003A00020004003E01004183183C0C0E380001C2B
:1003B0003C1B37C07C3F3C1C000003C3E0C0000076
:1003C0000003000000000000000000000043616E18
:1003D0002774206F7665726C617020626F61747330
:1003E0000053686970777265636B000804787C7CE1
:1003F0007810047F80FFE0FFE07F8010047FFCFF27
:10040000FFFFFF7FFC18047FFFE0FFFFF8FFFFF80E
:100410007FFFE02004FFFFFF00FFFFFFC0FFFFFFA3
:10042000C0FFFFFF0005006801380100000500382B
:100430000168010000401E000000000000000000F4
:1004400000000000000000000000000000000000AC
:100450000000040000000000000003000000000095
:100460000000040000000000000106000000000081
:1004700000070B800000000000077D0E0000000058
:10048000028FFFF81231FF7FFFFFFFFFFFFFFC3FEE
:10049000FFFFFFFFFFFFF80FFFFFFFFFFFFFF8FF6A
:1004A000FFFFFFFFFFFFFF5555555555555555AA01
:1004B000AAAAAAAAAAAAAA5555555555555555AA44
:1004C000AAAAAAAAAAAAAA5555555555555555AA34
:1004D000AAAAAAAAAAAAAA5555555555555555AA24
:1004E000AAAAAAAAAAAAAA5555555555555555AA14
:1004F000AAAAAAAAAAAAAA5555555555555555AA04
:10050000AAAAAAAAAAAAAA5555555555555555AAF3
:10051000AAAAAAAAAAAAAA5555555555555555AAE3
:10052000AAAAAAAAAAAAAA175344001613780016C0
:100530001314001510200015201000540A03E18147
:10054000867F3E186D830F0F0E0183866033186D12
:10055000C3198F1803C38E6033186DE330CF1803AF
:10056000C39E603630CDE360CF3006C79E7E3E30FE
:10057000CDB360CF300CC6F6603330D9B660CF3320
:10058000CFCCF66061B0DB1E60CF30D86CE6C061C6
:10059000B0DB1E618F19986CC6C063B19B0E330F20
:1005A0000FB078C6FF7E1F1B061E0F4500680100B6
:1005B00000F6E8DBCFC3B8AEA49B928A827B746E50
:1005C00068625C57524E4945413E3A3734312E2CD1
:1005D00029272523210A0A153A49676E6F7265009B
:1005E0006D560A0A504C45415345205455524E20F1
:1005F0004F464620004C4F572042415454455259D3
:1006000021200003053F213F1208120A100A0E1C88
:100610000E0C1E0C141A14161F161E131E1E1B1E63
:100620001E1F1E3F213F3A2F3A173D173F213F180B
:100630001F02040A041F0E04040E1F0A1F0A0E0ED6
:100640001F04110E2E252E2F2A2E262929021F02C5
:10065000081F08150E04040E150E15151B151B0496
:100660000604040C040000000017000300031F0A26
:100670001F16371A1904130A153A000300000E1149
:10068000110E000A040A040E0400300004040400E1
:1006900010001804031F111F121F101D151711152C
:1006A0001F07041F17151D1F151D01011F1F151FF3
:1006B00017151F000A00003200040A110A0A0A1165
:1006C0000A040115020E11171E051E1F150A0E1130
:1006D0000A1F110E1F15111F05010E111D1F041FEA
:1006E000111F1108100F1F041B1F10101F061F1EC3
:1006F000040F0E110E1F09060E112E1F051A1215DA
:1007000009011F011F101F0F180F1F0C1F1B041BB7
:10071000031C03191513001F11030418111F0002F5
:1007200001022020200001020C121E1F120C0C12CC
:10073000120C121F0C1A14041E05242A1E1F021C60
:10074000141D1020201D1F0814111F101E041E1E32
:10075000021C0C120C3E0A040C123E1E040214165B
:100760000A020F120E101E0E100E1E081E120C1280
:1007700026281E322A26041E21001F00211E0401E5
:1007800002013F213F172B152010204C4F414445BB
:100790005200172B16201314000A4E6F20534420CA
:1007A00063617264206F720A6E6F204C4F41444542
:1007B000522E4845580A0A153A45786974001D209A
:1007C000466C617368696E670A20206C6F616465AE
:1007D000722E2E2E0A0A444F4E2754205455524E44
:1007E000204F46462100000000002300260029007B
:1007F00004040404040404040202020202020303C7
:1008000003030303010204081020408001020408CE
:10081000102001020408102000000008000201005E
:10082000000304070000000000000000041E112463
:100830001FBECFEFD8E0DEBFCDBF12E0A0E0B1E039
:10084000E0E3F0E402C005900D92A637B107D9F7B6
:1008500025E0A6E7B2E001C01D92A03BB207E1F798
:1008600014E0C7E1D4E004C02197FE010E947F1E7E
:10087000C631D107C9F70E9476150C9416200C9446
:100880000000CF92DF92EF92FF920F931F93CF93CE
:10089000DF936C017A018B01C0E0D0E0CE15DF055B
:1008A00089F0D8016D918D01D601ED91FC910190F7
:1008B000F081E02DC6010995892B11F47E0102C05B
:1008C0002196ECCFC701DF91CF911F910F91FF903F
:1008D000EF90DF90CF900895FC01918D828D981755
:1008E00061F0828DDF01A80FB11D5D968C91928D14
:1008F0009F5F9F73928F90E008958FEF9FEF089511
:10090000FC01918D828D981731F0828DE80FF11DD9
:10091000858D90E008958FEF9FEF0895FC01918DF4
:10092000228D892F90E0805C9F4F821B91098F73ED
:10093000992708958CE894E00E948E0421E0892B89
:1009400009F420E0822F0895FC01848DDF01A80FB7
:10095000B11DA35ABF4F2C91848D90E001968F73E7
:100960009927848FA689B7892C93A089B1898C9106
:1009700080648C93938D848D981306C00288F389CC
:10098000E02D80818F7D80830895EF92FF920F93F9
:100990001F93CF93DF93EC0181E0888F9B8D8C8D2B
:1009A000981305C0E889F989808185FD24C0F62E59
:1009B0000B8D10E00F5F1F4F0F731127E02E8C8DF2
:1009C000E8120CC00FB607FCFACFE889F9898081DC
:1009D00085FFF5CFCE010E94A404F1CF8B8DFE01DF
:1009E000E80FF11DE35AFF4FF0820B8FEA89FB8974
:1009F0008081806207C0EE89FF896083E889F98978
:100A000080818064808381E090E0DF91CF911F91AD
:100A10000F91FF90EF900895CF93DF93EC01888DB5
:100A20008823C9F0EA89FB89808185FD05C0A889F2
:100A3000B9898C9186FD0FC00FB607FCF5CF808178
:100A400085FFF2CFA889B9898C9185FFEDCFCE01C2
:100A50000E94A404E7CFDF91CF91089580E090E059
:100A6000892B29F00E949A0481110C9400000895AA
:100A70000E94AF1F6115710579F0FB010190002004
:100A8000E9F73197AF01461B570BDC01ED91FC9163
:100A90000280F381E02D099480E090E008954F9268
:100AA0005F926F927F92EF92FF920F931F93CF937B
:100AB000DF93CDB7DEB7A1970FB6F894DEBF0FBEB8
:100AC000CDBF7C01FA01CB0119A2223008F42AE043
:100AD0008E010F5D1F4F422E512C612C712CBF01D6
:100AE000A30192010E94E51FF901CA0101501109F9
:100AF0006A3014F4605D01C0695CD8016C93232BEB
:100B0000242B252B61F7B801C7010E943A05A19655
:100B10000FB6F894DEBF0FBECDBFDF91CF911F910E
:100B20000F91FF90EF907F906F905F904F9008959E
:100B30001F920F920FB60F9211242F933F934F9352
:100B40005F936F937F938F939F93AF93BF93EF9335
:100B5000FF938CE894E00E94A404FF91EF91BF9171
:100B6000AF919F918F917F916F915F914F913F9145
:100B70002F910F900FBE0F901F9018951F920F92FC
:100B80000FB60F9211242F938F939F93EF93FF93A0
:100B9000E0919C04F0919D048081E091A204F09189
:100BA000A30482FD12C090818091A5048F5F8F7392
:100BB0002091A604821751F0E091A504F0E0E457DB
:100BC000FB4F958F8093A50401C08081FF91EF9129
:100BD0009F918F912F910F900FBE0F901F9018959E
:100BE000833081F028F4813099F08230A1F00895AB
:100BF0008730A9F08830B9F08430D1F4809180003A
:100C00008F7D03C0809180008F778093800008954E
:100C100084B58F7702C084B58F7D84BD089580919F
:100C2000B0008F7703C08091B0008F7D8093B000BB
:100C300008951F93CF93DF93282F30E0F901E85EEA
:100C4000F74F8491F901EC5FF74FD491F901E0512E
:100C5000F84FC491CC23C9F0162F81110E94F005E2
:100C6000EC2FF0E0EE0FFF1FE258FF4FA591B4917B
:100C70008FB7F894111105C09C91ED2FE095E923F1
:100C800002C0EC91ED2BEC938FBFDF91CF911F91C0
:100C90000895CF93DF9390E0FC01EC5FF74F249130
:100CA000FC01E051F84F8491882361F190E0880FB6
:100CB000991FFC01EC58FF4FC591D491FC01E258FB
:100CC000FF4FA591B491611109C09FB7F894888135
:100CD000209582238883EC912E230BC0623061F42F
:100CE0009FB7F8943881822F809583238883EC9175
:100CF0002E2B2C939FBF06C08FB7F894E8812E2B24
:100D000028838FBFDF91CF9108951F93CF93DF93F7
:100D1000182FEB0161E00E944906209711F460E072
:100D200004C0CF3FD10539F461E0812FDF91CF912D
:100D30001F910C941906E12FF0E0E85EF74FE49163
:100D4000E330F9F048F4E130B9F0E230A1F584B5D0
:100D5000806284BDC8BD34C0E730E9F0E83019F1E5
:100D6000E43049F580918000806280938000D093C8
:100D70008B00C0938A0024C084B5806884BDC7BD41
:100D80001FC080918000806880938000D09389008C
:100D9000C093880015C08091B00080688093B00037
:100DA000C093B3000DC08091B00080628093B0000A
:100DB000C093B40005C0C038D1050CF0B5CFAFCF9B
:100DC000DF91CF911F9108958E3008F08E5087707B
:100DD000806480937C0080917A00806480937A00A4
:100DE00080917A0086FDFCCF809178002091790077
:100DF00090E0922B08953FB7F89480917F029091F4
:100E00008002A0918102B091820226B5A89B05C004
:100E10002F3F19F00196A11DB11D3FBFBA2FA92F79
:100E2000982F8827820F911DA11DB11DBC01CD01F6
:100E300042E0660F771F881F991F4A95D1F70895E2
:100E40008F929F92AF92BF92CF92DF92EF92FF92DA
:100E50006B017C010E94FB064B015C01C114D104B3
:100E6000E104F104F1F00E94FB06DC01CB018819DA
:100E70009909AA09BB09883E9340A105B10570F301
:100E800021E0C21AD108E108F10888EE880E83E05B
:100E9000981EA11CB11CC114D104E104F10419F77E
:100EA000DDCFFF90EF90DF90CF90BF90AF909F90FD
:100EB0008F9008951F920F920FB60F9211242F93C7
:100EC0003F938F939F93AF93BF93809188029091AC
:100ED0008902A0918A02B0918B0230917E0223E0B8
:100EE000230F2D3720F40196A11DB11D05C026E862
:100EF000230F0296A11DB11D20937E0280938802CC
:100F000090938902A0938A02B0938B0280917F0212
:100F100090918002A0918102B09182020196A11D60
:100F2000B11D80937F0290938002A0938102B093C1
:100F30008202BF91AF919F918F913F912F910F901E
:100F40000FBE0F901F9018951F920F920FB60F9221
:100F500011242F936F937F938F939F9360918502BA
:100F6000662359F180917D028F5F80937D0290917D
:100F70008602891710F12091830281E028272093AF
:100F8000830210927D0280918702882369F080910C
:100F9000D60193E4899F802D1124895B8093D6012B
:100FA0000E944B1E90938402222329F08091840298
:100FB0008093B40002C080E0FBCF9F918F917F911E
:100FC0006F912F910F900FBE0F901F901895FC01FD
:100FD00061110DC0178A158A14A213A2108E1092E7
:100FE000840210928502109283021092B400089538
:100FF000EF92FF920F931F93CF93DF931F92CDB782
:10100000DEB77C018B01411105C060E049830E947D
:10101000E707498150E0FA01EE0FFF1FEE0DFF1DBB
:1010200016870587DA011996AA0FBB1FAE0DBF1DE3
:101030001D921C92F701E40FF51F81E0818389E086
:10104000868B118E138E158E0F90DF91CF911F918D
:101050000F91FF90EF9008954F925F926F927F9261
:101060008F929F92AF92BF92CF92DF92EF92FF92B8
:101070000F931F93CF93DF93F901C490319654914E
:10108000EC0108A164350CF018C10C2C000CDD0833
:10109000A62F062E000CBB0B7D01EC0CFD1C1E14B4
:1010A0001F040CF00AC140330CF007C1A52E842E9A
:1010B000042E000C9908F401E50FF11D57FDFA9577
:1010C0001E161F060CF0F9C02E5F3F4FE601279653
:1010D000D7FD279673E0D595C7957A95E1F747FF39
:1010E0000AC0A52EA40EC89DA001C99D500D1124B3
:1010F000241B350B40E0EA2D0A2C000CFF0BE40FFB
:10110000F11D47FDFA95F1971CF050E3A52EA41AA6
:1011100067FD60E0F701E535F10514F0E4E5F0E086
:101120007E2FFC01D484D426862F062E000C990B2A
:10113000FC01EA1BFB0BDF017F01F7E0EF22FF243C
:10114000E0E8F0E002C0F595E795EA94E2F71E2F9B
:10115000B7FD179653E0B595A7955A95E1F72A0F75
:101160003B1FE42FE77051E001C0550FEA95EAF705
:10117000459545954595B4E54B02800D911D11248B
:1011800084579D4FC12C0A2C000CBB0899249394C2
:101190002E015524EC2DF0E0EA15FB050CF08DC076
:1011A000F90144910130E1F47C01A12F862E881AC7
:1011B000B82DBE0DB71708F077C0B42FBA2321F0B1
:1011C000E701B881B52BB883B0E0B595A795109726
:1011D00019F431964491A0E8DFEFED1AFD0AE8CF4B
:1011E00001111FC0752E70947C01A12FF901862E6C
:1011F000881AB82DBE0DB71708F056C0B42FBA2301
:1012000021F0E701B881B721B883B0E0B595A79583
:10121000109719F431964491A0E8DFEFED1AFD0A1A
:10122000E8CF033031F07C01A12FF901862E881A16
:1012300037C0752E7094862E7C01A12FF901871678
:10124000D8F4B42FBA2359F0E701B881682C6D2483
:1012500060FE02C0B52B02C0B721E701B883B0E041
:10126000B595A795109719F431964491A0E8839409
:10127000DFEFED1AFD0AE3CFD92416C0B42FBA234D
:1012800021F0E701B881B527B883B0E0B595A795FF
:10129000109719F431964491A0E8DFEFED1AFD0A9A
:1012A000B82DBE0DB71750F3550F19F48C5A9F4F38
:1012B00051E0C394240D351D6DCFDF91CF911F9167
:1012C0000F91FF90EF90DF90CF90BF90AF909F90E5
:1012D0008F907F906F905F904F90089522E32093BE
:1012E0008005BC0187E795E00E943A056BE272E059
:1012F00087E795E00C943A05CF93DF93782FE62F9C
:10130000F0E0CF01880F991FE80FF91F8FE0789F59
:10131000E00DF11D1124EA55FE4F20813181A2819B
:1013200090E081E041E050E0471B510971E5749F76
:10133000E001759FD00D112449E0AA2321F09923E3
:1013400021F02F5F02C091113F5FFE01429FE00D2F
:10135000F11D1124E050FF4FE30FF11D5081561392
:1013600080E09F5F691748F7DF91CF910895DF9282
:10137000EF92FF920F931F93CF93DF939FE0899F8C
:10138000E0011124A0E0B0E020E030E090E08FEF39
:10139000042F10E0E62EF12CFD01EC0FFD1FEA55A5
:1013A000FE4F7081D18051E0E281E11101C050E037
:1013B000671758F0F901E70FF11DEE15FF052CF046
:1013C0004D1103C051110DC002C04D1558F0F90167
:1013D000ED0DF11DE017F1072CF0671303C051115B
:1013E00001C0892F9F5F2F5F3F4F13969530A1F665
:1013F000DF91CF911F910F91FF90EF90DF900895B3
:101400000F930093970500939805222309F458C081
:101410004230D1F1A0F4442309F444C0413009F032
:101420009AC0462F440F440F460F4E5F682F660F39
:10143000660F860F61E0680F21EF33E020C0433074
:1014400089F0443009F087C0462F440F440F460FFF
:101450004E5F682F660F660F860F61E0680F23E10D
:1014600034E00DC0462F440F440F460F4E5F682FE7
:10147000660F660F860F61E0680F25E034E087E7AE
:1014800095E00F910C942C08462F440F440F460F03
:101490004E5F682F660F660F860F61E0680F2BEFB7
:1014A00033E0EDCF462F440F440F460F4E5F682FB9
:1014B000660F660F860F61E0680F2BEE33E0DFCF1B
:1014C000423071F188F44423B9F1413009F043C04E
:1014D000462F440F440F640F6F5F982F990F990F99
:1014E000890F41EF53E033C0433071F0443099F538
:1014F000462F440F440F640F6F5F982F990F990F79
:10150000890F43E154E023C0462F440F440F640F7A
:101510006F5F982F990F990F890F45E054E017C01E
:10152000462F440F440F640F6F5F982F990F990F48
:10153000890F4BEF53E00BC0462F440F440F640F4D
:101540006F5F982F990F990F890F4BEE53E08E5FC5
:101550000F910C94B9140F910895EF92FF920F938D
:101560001F93CF93DF939FE0899F70011124C0E008
:10157000D0E010E0FE01EE0DFF1DEA55FE4F808128
:10158000618192818F3F41F021E0911101C020E003
:1015900003E0412F0E94000A1F5F2396CF30D10540
:1015A00049F7DF91CF911F910F91FF90EF90089530
:1015B0000E94F41180919905882321F081EE93E037
:1015C0000E941611109241050895FC01643508F03F
:1015D00053C0403308F050C090A1742F7595759595
:1015E0007595262F062E000C330B542F5770923012
:1015F000A1F4F901E457FD4F84E57802E00DF11DF7
:101600001124808190E0052E02C0959587950A945B
:10161000E2F78095982F91700AC0933041F4848549
:101620008170462740954170841303C014C0911106
:1016300012C084E57802200D311D1124F901E45710
:10164000FD4F81E090E001C0880F5A95EAF7809540
:101650009081892310C084E57802200D311D11246A
:10166000F901E457FD4F81E090E001C0880F5A95E1
:10167000EAF79081892B80830895DF92EF92FF92A1
:101680000F931F93CF93DF931F92CDB7DEB78C01DB
:10169000D62EF42EE12CE21654F46E2D6D0D4F2D46
:1016A000C80129830E94E50AE3942981F4CF0F90B1
:1016B000DF91CF911F910F91FF90EF90DF900895F0
:1016C000DF92EF92FF920F931F93CF93DF937C01F2
:1016D000D62FD22EC42F002E000C110B040F111D7B
:1016E00047FD1A954C2F0C2E000C550B4017510737
:1016F00044F42D2D4C2F6D2FC7010E943D0BCF5F61
:10170000F1CFDF91CF911F910F91FF90EF90DF907C
:1017100008956F927F928F929F92AF92BF92CF92D5
:10172000DF92EF92FF920F931F93CF93DF93EC0121
:101730006A3019F42D819885A1C06D3009F4A4C0D8
:101740001885BA84D98488A083E58D150CF47FC0F0
:101750008FE28B150CF47BC08C8190E00197189F71
:101760009001199F300D1124C9018D0D911DD7FCD9
:101770009A95181619060CF06AC08D81819FC001D8
:1017800011248B0D911DB7FC9A95181619060CF0B3
:101790005EC09D2CCD2CE62EF12CEC2DED190E2EDD
:1017A000000CFF0B8C8190E0E817F9070CF04EC09D
:1017B0000197E817F90779F0E89E9001E99E300D4E
:1017C000F89E300D1124E20FF31F8E8D9F8DE80FD0
:1017D000F91F749001C0712C6B2CAB2C2A2D2B1986
:1017E000022E000C330B8D8190E0281739075CF531
:1017F00070FE10C0113031F44A2D6C2DCE010E94C4
:10180000E50A1DC0012F212F462D692DCE010E9412
:10181000600B15C089A198A1891789F088A31130A0
:1018200031F44A2D6C2DCE010E94E50A07C0012F2C
:10183000212F462D692DCE010E94600B88A276943F
:10184000A394610ECBCFC394910EA7CF88A2288515
:101850003C818985329F800D112489879F8199233E
:1018600099F0082E000C990B44E550E0239F401995
:1018700051091124481759073CF49D818A85299FF5
:10188000800D11248A87198681E090E0DF91CF9145
:101890001F910F91FF90EF90DF90CF90BF90AF908E
:1018A0009F908F907F906F900895DF92EF92FF92BC
:1018B0000F931F93CF93DF931F92CDB7DEB78C01A9
:1018C000D62EF42EE12CE21654F44E2D4F0D6D2D34
:1018D000C80129830E94E50AE3942981F4CF0F907F
:1018E000DF91CF911F910F91FF90EF90DF900895BE
:1018F0000F93CF93DF9348EF51E06FEF7FEF8CE8CA
:1019000092E00E94B41F109297051092980508E289
:1019100022E247E061E387E795E00E94600B81E007
:10192000809381052EE240E061E087E795E00E9428
:101930003D0B2EE241E06FE287E795E00E94550CF7
:101940002EE24FE261E087E795E00E943D0B2EE238
:1019500041E060E087E795E00E94550CD1E0C1E0EE
:101960004D2F6C2F87E795E00E94E50ACB5FC333CC
:10197000B9F7DB5FD33399F7DF91CF910F910895DA
:101980004F925F926F927F928F929F92AF92BF928F
:10199000CF92DF92EF92FF920F931F93CF93DF933B
:1019A00000D000D01F92CDB7DEB74091A90550916D
:1019B000AA056091AB057091AC052FB7F8948091A2
:1019C000880290918902A0918A02B0918B022FBF68
:1019D000481B590B6A0B7B0B8091A80590E0A0E097
:1019E000B0E00091A4051091A5052091A6053091C5
:1019F000A70584179507A607B70730F40115110549
:101A00002105310509F030C3012B022B032B09F00E
:101A100029C38091400581508E3F30F580913F056C
:101A2000813039F5809153058F5F6091540587FDB2
:101A300009C0082E000C990B70E06F5F7F4F0E9469
:101A4000571E682F6093530582E997E09093AE0587
:101A50008093AD0588E48093AF0540E06BEA75E0C4
:101A60008EE495E00E94F8078091400581508E3FFA
:101A700070F480913E05813009F0A2C385E897E0BB
:101A80009093AE058093AD0588E48093AF0580E028
:101A90000E94141380914F05882309F4ADC08091F2
:101AA00063058111A9C080915B0590915C05E0916F
:101AB0006005F0916105EE0FFF1FE80FF91F4591DA
:101AC00054914115510501F520915F05222331F014
:101AD0001092610510926005FC0114C010924F0530
:101AE00080914E05882341F080E00E941413E0911C
:101AF0006005F09161052FC060E08EE495E00E94E2
:101B0000E7077AC0459154919A0136952795369505
:101B1000279540FF51C0CA0116E0969587951A9502
:101B2000E1F78F71952F96959695969590512F7018
:101B3000223071F1F8F4211117C08B3008F08AE0DF
:101B400080936405E0916005F09161053196F09312
:101B50006105E0936005EE0FFF1F80915B0590919A
:101B60005C05E80FF91FCECF213061F760E00E94DD
:101B70005513E8CF2330B1F0243021F720915205DE
:101B8000829F802D112480936B0590936C05DACF92
:101B900020915205829F802D112480936705909398
:101BA0006805D0CF20915205829F802D112480930B
:101BB000690590936A05C6CF2F73209362058091C3
:101BC0005205859F802D1124809363051092730523
:101BD000109272051092710581E0809365058093E3
:101BE00083021092660580916005909161050196CF
:101BF000909361058093600580916505882309F4C1
:101C0000F3C080916305811106C060E08EE495E029
:101C10000E94E707E9C081508093630580917305B6
:101C2000811148C020917105309172052F5F3F4F9F
:101C3000C901880F991FE0916D05F0916E05E80FBD
:101C4000F91F65917491862F877080937405AB019D
:101C5000E3E056954795EA95E1F7CA019695879591
:101C6000972F96959695909375058F739091520541
:101C7000899F802D112480937305417040938702C2
:101C8000309372052093710580916F0590E02817BD
:101C9000390780F020917005222339F0821B9109C9
:101CA000909372058093710505C060E08EE495E025
:101CB0000E94E7078091730581508093730580919E
:101CC000660521E0280F209366054091620530915A
:101CD0007505340F80915A05380F30935005609187
:101CE0006905662371F070E0822F022E000C990BBB
:101CF0000E94571E80916A05869F300D11243093F3
:101D000050058091500590E0849664E270E00E9456
:101D1000571E8093500530916405309351056091B2
:101D20006705662381F0062E000C770B822F022EAA
:101D3000000C990B0E94571E80916805869F300DFC
:101D400011243093510560916B056623A1F0822F19
:101D5000220F990B70E00E94571ECB0162E070E0E9
:101D60000E94571E20916C0590915105289F900D5F
:101D7000112490935105809151054F3341F08A30E1
:101D80000CF089E087FD80E08093510502C010923D
:101D90005105F894E0915005F0E0EF54FA4FE491CA
:101DA000E09386023091510520917605320390012F
:101DB0001124409174054203C001439F900D1124EA
:101DC0000090530502C0880F991F0A94E2F797FF0D
:101DD00002C081589F4F880F892F881F990B8093CD
:101DE00085028093840278948091AF05882309F45A
:101DF00086C08C3020F49CE0E92EE81A01C0E12C6A
:101E0000FF24F394F0927F051092970510929805A5
:101E100030917C054DE2D42E1D2D131B1E0D03E0C9
:101E2000030F2EE4412F63E087E795E03D830E9496
:101E3000600B3D810CEF030F1D5F202F41E0612FF0
:101E400080E50E940E14202F42E0612F83E00E9463
:101E50000E14F0929705F092980500917C05FD2CE8
:101E6000F01AFE0C2EE44F2D63E087E795E00E9408
:101E70003D0B13E0100F1F0D4FEF410F2EE463E0F9
:101E800087E795E00E943D0B035033E0F30E202FCF
:101E90004F2D60E087E795E00E94550C202F4F2DD5
:101EA00063E587E795E00E94550C41E06F2D83E0E4
:101EB0000E94901342E06F2D80E50E949013145011
:101EC00044E0612F80E50E94901348E0612F83E099
:101ED0000E94901384E08093800580917C05E81A2D
:101EE0008E2D815D809381058091AD059091AE0529
:101EF0000E94AE128091AF0581508093AF05809112
:101F0000450590914605892B09F484C011E0109392
:101F100097051092980590917B0585E5891B809324
:101F200080051092810580914205813009F455C0E9
:101F300030F090914105853008F067C062C060E0E4
:101F40008EE495E00E94E70710924F0510937F05FD
:101F5000E3E0F6E0E491EF5FE0937B05E4E0F6E098
:101F6000E491EF5FE0937C0585E096E09093960521
:101F700080939505109246051092450510927D05B7
:101F800018EA0E94C00C8823E1F385EF95E00E94D7
:101F9000AE12409143055091440560E070E02AE0A4
:101FA00087E795E00E944F0580EE95E00E94AE1213
:101FB000412F42954F7050E060E070E02AE087E7E3
:101FC00095E00E944F0585ED95E00E94AE1280914C
:101FD0003E05813009F0FAC01DC080919A059091AC
:101FE0009B05A0919C05B0919D058F709927AA270C
:101FF000BB270897A105B10510F487E009C088E761
:1020000007C0992339F08B5F03C0992319F08FE241
:102010000E9471140E946E1280917D0581110EC084
:1020200088EF91E0ECE8F2E0DF019C011D92215085
:102030003040E1F710928005109281050E94FB0666
:102040006093A4057093A5058093A6059093A705BA
:102050002091A0053091A105621B730B70939F0521
:1020600060939E0580E0CCC02FB7F89480918802E1
:1020700090918902A0918A02B0918B022FBF20918A
:10208000A805820F911DA11DB11D8093A9059093F4
:10209000AA05A093AB05B093AC0580919A059091E9
:1020A0009B05A0919C05B0919D050196A11DB11DB8
:1020B00080939A0590939B05A0939C05B0939D05F2
:1020C0001092A4051092A5051092A6051092A705DE
:1020D0000E94FB066093A0057093A1058093A20562
:1020E0009093A30580912A0590912B052FE0289FBE
:1020F0008001299F100D112485E10E94E406800FC4
:10210000911F24E0969587952A95E1F790932B05EA
:1021100080932A0520912905222309F44BC0609160
:102120002D05262F30E040E050E029833A834B8391
:102130005C83C0902E05D12CE12CF12C409131050F
:10214000509132054A01A12CB12C20912F053091DC
:1021500030052901612C712C8217930728F09C010E
:102160004817590708F49A01C901A0E0B0E09C01A2
:10217000AD01241935094609570969817A818B8196
:102180009C816C197D098E099F090E943B1EA50147
:10219000940124193509460957090E94BB1FC20E34
:1021A000D31EE41EF51EC0922C056C2D70E085E058
:1021B0000E9485060E94FB110E947C1481E020C0D1
:1021C000893209F064CC0E94DF1261CC115009F011
:1021D000D8CE60E070E085E00E94850683B7817FFD
:1021E000846083BF83B7816083BF83B7816083BF0F
:1021F000889583B78E7F83BF83B78E7F83BFC1CE21
:102200000F900F900F900F900F90DF91CF911F9133
:102210000F91FF90EF90DF90CF90BF90AF909F9085
:102220008F907F906F905F904F900895CF92DF9244
:10223000EF92FF920F931F93CF93DF93EC0181E016
:1022400080937F0510927E0510927D0510924105C6
:1022500080939705809398051CE00E94C00C88230A
:10226000E1F3FE018491882319F000917C0501C0FF
:1022700000E02BE335E040E060E087E795E00E9476
:102280002C084CE0400F25E334E060E087E795E060
:102290000E942C081092800510938105CE010E94A7
:1022A000AE1280917B05982F990F890F81958D5AD9
:1022B0008093800580917C05982F990F890F8195D7
:1022C000835D8093810580919A0584FF03C087E335
:1022D00095E002C083E395E00E94CF1280917B05D8
:1022E000982F990F890F81958D5A80938005809141
:1022F00081058F5F8093810580915305882319F0B4
:102300008FE295E002C08BE295E00E94CF1290919F
:102310007B05892F880F980F91959D5A9093800582
:10232000809181058F5F8093810587E295E00E940F
:10233000CF1280913F058130C9F4809153058F5FA2
:102340006091540587FD09C0082E000C990B70E0C0
:102350006F5F7F4F0E94571E682F6093530540E0C8
:102360006BEA75E08EE495E00E94F80780913E05E7
:102370008130A9F080919905482F50E060E070E02D
:10238000C0909A05D0909B05E0909C05F0909D052B
:10239000C416D506E606F706F8F08F3FE9F08FEF92
:1023A0008093990560E08EE495E00E94E707109223
:1023B0004F0540E06DE274E08EE495E00E94F8077E
:1023C00081E080934105DF91CF911F910F91FF90A4
:1023D000EF90DF90CF90089580914005813009F013
:1023E0003CCF0E94DF1239CF40E065E274E08EE41A
:1023F00095E00C94F807CF92DF92EF92FF920F9343
:102400001F93CF93DF93C3E3D5E00AE315E0FF24E6
:10241000FA9497E0E92EE00E62E088810E94490676
:10242000288130E0F901E85EF74F8491F901EC5F13
:10243000F74FC490F901E051F84FD490DD2071F0CE
:1024400081110E94F005ED2DF0E0EE0FFF1FEA5123
:10245000F84FA591B491EC91EC21B1F4F801808191
:102460008F5F808360E088810E94490621960F5F1C
:102470001F4FE012D1CFDF91CF911F910F91FF90AD
:10248000EF90DF90CF900895F8018081882371F359
:10249000F8018F3F11F41082E5CFF082E3CFCF93A4
:1024A000C82FF89460E0809186050E9419068091FB
:1024B000870518161CF460E00E941906CEBD0000C6
:1024C0000DB407FEFDCF8EB58091870518161CF45C
:1024D00061E00E9419067894CF9108950F931F939D
:1024E000CF93809183058F5F809383050CE812E082
:1024F000C0E08C2F80640E944F1280E80E944F122F
:1025000061E0809186050E94190680918705181662
:102510001CF460E00E94190680E090E0F801E80FEA
:10252000F91F20812EBD00000DB407FEFDCF2EB592
:1025300001968435910591F78091870518161CF452
:1025400061E00E941906CF5F0C5A1F4FC63089F612
:1025500080E4CF911F910F910C944F120F931F9312
:10256000CF93DF938C01C0E0D0E0F801EC0FFD1FAA
:102570006491662371F0E0917705F0917805019000
:10258000F081E02D87E795E00995892B11F02196E0
:10259000ECCFCE01DF91CF911F910F910895CF9392
:1025A000DF930E94AE12EC016BE272E087E795E0E8
:1025B0000E943A058C0F9D1FDF91CF91089588EFFF
:1025C00091E0ECE8F2E0DF019C011D9221503040E7
:1025D000E1F710928005109281058EEB97E00E9442
:1025E000AE120E946E128CB583608CBD8DB58E7F4D
:1025F0008DBD8FE692E0EEEFFFE3099510927D0529
:1026000089E997E00E94CF120E946E120E94FB118E
:1026100080913E05813039F062E370E080E090E027
:102620000E942007F3CF0895CF93DF93482F50E007
:10263000EA01C75DDA4F9DA19923A1F19EA19111F5
:1026400031C09EA5FA01EE0FFF1FE05DFA4F35A1E4
:1026500026A1E32FF22FE90FF11DE90FF11D2591BE
:1026600034912F3F9FEF390711F41DA21BC039ABE6
:10267000440F551FFA01ED5CFA4F3327220F331F29
:1026800005A0F6A1E02DE20FF31F65917491811171
:1026900005C040E08EE495E00E94F80729968DA1E0
:1026A0008F5F8DA3DF91CF91089570E0DB01AA0FBA
:1026B000BB1FA75DBA4FD4962C91D497D5969C9109
:1026C000D597E22FF92FE80FF11DE80FF11D2591A5
:1026D00034915F9696963C932E939597F901859148
:1026E000949190915205989F802D1124675D7A4FA7
:1026F000FB01B19685A3F901A591B4914B2F50E050
:10270000E82FF0E04E175F0720F4F901259134918E
:10271000832FFB01B296899F802D112485A30895F4
:10272000AF92BF92CF92DF92EF92FF920F931F93DF
:10273000CF93DF93182F062FC1E0D3E08AEFD82E76
:102740009EEFE92E842F8470C82E842F8270B82EBD
:10275000842F8870A82E4170F42E8C2F880F8F5FE5
:10276000E80ECC2081F04D2F400F6C2F610F87E7D2
:1027700095E00E94E50A4C2F400F6D2F610F87E70F
:1027800095E00E94E50ABB2081F0402F4D1B6C2F85
:10279000610F87E795E00E94E50A402F4C1B6D2FE3
:1027A000610F87E795E00E94E50AAA2081F04C2F8F
:1027B000400F612F6D1B87E795E00E94E50A4D2FC2
:1027C000400F612F6C1B87E795E00E94E50AFF2010
:1027D00081F0402F4C1B612F6D1B87E795E00E9415
:1027E000E50A402F4D1B612F6C1B87E795E00E9487
:1027F000E50ACD1744F4E7FC04C0D150D394D39438
:10280000ED0CCF5FAACFDF91CF911F910F91FF9079
:10281000EF90DF90CF90BF90AF9008959F92AF92CE
:10282000BF92CF92DF92EF92FF920F931F93CF93BD
:10283000DF93F82EE62EB22E03E0020FD0E0C3E0C5
:102840008AEFC82E1EEF842F8170982EAA24A3949D
:10285000A20E4270D42EDF5F802F8B19180F9920A3
:10286000A1F02C2F220F2A0D4E2D4C1B6D2F6F0D1A
:1028700087E795E00E94550C202F4E2D4D1B6C2FA5
:102880006F0D87E795E00E94550CDD20A1F02C2FFD
:10289000220F2A0D4E2D4C1B6F2D6D1B87E795E0E7
:1028A0000E94550C202F4E2D4D1B6F2D6C1B87E762
:1028B00095E00E94550CDC1744F417FD04C0C1508C
:1028C000C394C3941C0D0E5FC6CFDF91CF911F91AF
:1028D0000F91FF90EF90DF90CF90BF90AF909F90BF
:1028E0000895E0917705F09178050190F081E02D51
:1028F000682F87E795E009948091450590914605FA
:10290000892BB1F180914D058F7169F584E10E94A9
:10291000E406BC01990F880B990B0E94B61E26EEA7
:102920003FE34EEC50E40E941A1F0E94851E9B015B
:102930007093440560934305672B91F084E0809386
:102940004205E5E4F5E080E0419151912417350717
:1029500018F48093420508958F5F8430A9F703C06F
:102960008FEF8093420580914D058F5F80934D05D9
:1029700008952F923F924F925F926F927F928F9223
:102980009F92AF92BF92CF92DF92EF92FF920F93FE
:102990001F93CF93DF9300D01F92CDB7DEB7362EB3
:1029A0006A01FA0104913196E49110E07801F7E0B0
:1029B000EF0EF11C93E0F594E7949A95E1F750E05F
:1029C00020E8A22EB12C8E2E912C8150582E5E0E16
:1029D000852F052E000C990B801791070CF047C02E
:1029E000952F57FF02C097E0950F95959595959572
:1029F000852F877887FF03C08150886F8F5F3501EF
:102A000002C0759467948A95E2F7412C892F990F3B
:102A1000990B9C012E5F3F4F3B832A83252E230C6D
:102A2000842D042C000C990B88159905F4F48E9DC7
:102A3000F0018F9DF00D9E9DF00D11242A813B81A8
:102A4000E20FF31FEC0DFD1D249130E0262137210C
:102A5000232B49F0422D652D641987E795E05983B2
:102A60000E94E50A59814394DBCF5F5FB1CF0F909D
:102A70000F900F90DF91CF911F910F91FF90EF90EA
:102A8000DF90CF90BF90AF909F908F907F906F908E
:102A90005F904F903F902F900895BC0187E795E09D
:102AA0000C943A05CF93DF93C82FD62F22E0462F00
:102AB000682F87E795E00E943D0B41E04D0F22E033
:102AC0006C2F87E795E00E943D0B22E04D2F6C2F85
:102AD00087E795E00E94550C61E06C0F22E04D2FD6
:102AE00087E795E0DF91CF910C94550CCF93DF935E
:102AF000CDB7DEB7A0970FB6F894DEBF0FBECDBF3F
:102B0000789484B5826084BD84B5816084BD85B5C8
:102B1000826085BD85B5816085BD80916E008160D4
:102B200080936E001092810080918100826080937A
:102B3000810080918100816080938100809180007C
:102B40008160809380008091B10084608093B100A7
:102B50008091B00081608093B00080917A008460A1
:102B600080937A0080917A00826080937A008091CD
:102B70007A00816080937A0080917A0080688093E7
:102B80007A001092C100E0919C04F0919D0482E0D3
:102B90008083E0919804F09199041082E0919A0466
:102BA000F0919B048FEC80831092A404E091A00428
:102BB000F091A10486E08083E0919E04F0919F044F
:102BC000808180618083E0919E04F0919F048081E8
:102BD00088608083E0919E04F0919F0480818068EA
:102BE0008083E0919E04F0919F0480818F7D80839B
:102BF00082E38093A80581E090E0A0E0B0E08093BC
:102C0000A4059093A505A093A605B093A7058FEF03
:102C100080939905E0E8F7E7259134912130304C15
:102C200009F049C0E6E9F7E7E491E0938205E7E9B6
:102C3000F7E7E491E0932D05E8E9F7E7E491E09305
:102C40002E05E9E9F7E785919491909330058093FB
:102C50002F05EBE9F7E785919491909332058093E6
:102C6000310588E080935405EEE9F7E7E491E093BD
:102C70005305EFE9F7E7E491E0939905E0EAF7E718
:102C8000859194919093460580934505E2EAF7E794
:102C9000859194919093480580934705E4EAF7E77E
:102CA0008591949190934A0580934905E6EAF7E768
:102CB000859194912CC09CE39093820510922D05F0
:102CC00080932E0580E293E09093300580932F054A
:102CD00084ED93E0909332058093310588E08093F2
:102CE0005405809353058CEA9DE0909346058093AC
:102CF00045058EED9DE0909348058093470584E758
:102D00009EE090934A05809349058CE39FE0909361
:102D10004C0580934B0511E0109329056FEF70E08F
:102D200085E00E94850688E08093330589E08093E2
:102D3000340587E08093350586E08093360504E00E
:102D40000093370582E08093380581E1809339054F
:102D50000E94FB118CE39FE0909344058093430510
:102D60000093420510934D058BE0809385058DE01F
:102D70008093840580E1809386058EE080938805AA
:102D80008FE08093870510937F051093970510922D
:102D9000980510937E05E3E0F6E0E491EF5FE093A1
:102DA0007B05E4E0F6E0E491EF5FE0937C0585E0ED
:102DB00096E090939605809395051FB7F8948091BF
:102DC0007602811127C0EAEFF7E08491EEE0F8E0A7
:102DD0009491E82FF0E0EE0FFF1FEC58FF4FA59104
:102DE000B491EC91E92321F461E08AE00E94190694
:102DF00061E08AE00E9449068CB580618CBD8CB58B
:102E000080648CBD61E08DE00E94490661E08BE04A
:102E10000E944906809176028F5F809376021FBFE1
:102E20008CB58F7D8CBD8CB58C7F81608CBD8DB554
:102E300081608DBD8CB58C608CBD61E08091850515
:102E40000E94490661E0809184050E94490661E084
:102E5000809186050E9449068091880518161CF409
:102E600061E00E9449068091870518161CF461E014
:102E70000E94490680918805181674F460E00E944B
:102E800019066AE070E080E090E00E94200761E0AF
:102E9000809188050E94190680918405082E000CF7
:102EA000990BFC01E051F84FE491F0E0EE0FFF1FA9
:102EB000E258FF4F2591349130938C0520938B0578
:102EC000FC01EC5FF74FE491E0939205809185055A
:102ED000082E000C990BFC01E051F84FE491F0E052
:102EE000EE0FFF1FE258FF4F2591349130938A0572
:102EF00020938905FC01EC5FF74FE491E093910585
:102F000080918705082E000C990BFC01E051F84FC9
:102F1000E491F0E0EE0FFF1FE258FF4F259134914E
:102F200030938E0520938D05FC01EC5FF74FE49103
:102F3000E093930580918605082E000C990BFC0107
:102F4000E051F84FE491F0E0EE0FFF1FE258FF4F21
:102F5000259134913093900520938F05FC01EC5F0F
:102F6000F74FE491E093940581E20E944F1284E1CF
:102F70000E944F128091820587FF03C08FE78093E4
:102F800082058091820580680E944F1280E20E9433
:102F90004F128CE00E944F120E946E1281E08093CB
:102FA000520584E08093760580E790E090935E057B
:102FB00080935D0560E080E00E94551361E070E061
:102FC00083E00E9485068091B100887F81608093B4
:102FD000B100F89410928000109281001092850048
:102FE0001092840088E191E090938900809388009A
:102FF0008091810088608093810080918100816050
:103000008093810080916F00826080936F0078943C
:103010000E947C1480913F05813019F41092530571
:103020000BC0809142058823C9F340E068E870E056
:103030008EE495E00E94F80780919905882321F09D
:1030400086E990E00E9416111092410584EC91E00F
:10305000880F991FFC013996FB8FEA8F1092790235
:1030600010927702AAE7B2E052EAE52E51E0F52E7F
:1030700004EA11E066EA71E020E030E0DD24DA9451
:10308000E4E0CE2EF2E09F2E80E090E0FB01E80F1E
:10309000F91FD0821182128203968F309105B1F709
:1030A00080E090E040E050E05C01A20EB31EFA0127
:1030B000EA0DFB1DE050FF4FD0824F5F5F4F49305C
:1030C0005105A9F709968135910561F71D92F70120
:1030D000C1927F01F80191928F012F5A3F4F615F9A
:1030E0007F4F223A310581F634ECA32E31E0B32E26
:1030F000712C812C912C48E0542E4424439404E0FC
:10310000F02E84E0E82E612C94E0C92E272D21704A
:103110002D838FE0889D1001899D300C11240E9421
:10312000C00C8823E1F30E94780C8D810E94AD0AC7
:103130001092970510929805C5010E946E09409261
:1031400097054092980581E392E00E946E0986E21D
:1031500092E00E946E090C2D10E039E0309FC00112
:10316000319F900D11248F519E4F0E946E096BE28A
:1031700072E087E795E00E943A058EE292E00E94B5
:103180006E0987E392E00E946E0980913F05D62C7C
:10319000813081F4D826C8018E0D911D099724F045
:1031A000DD2011F0E52CEC18C8018F0D911D099759
:1031B0000CF0A4C080913E05813071F5612C262D64
:1031C00030E0021713078CF0D11003C0462D60E0E9
:1031D00002C0662D40E04F0D6E0D8D810E94B70933
:1031E0008F3F09F0BEC46394EACFF801EE0FFF1FD2
:1031F000E00FF11FE20DF31DEA55FE4FE082F18270
:10320000D28240E06DE274E08EE495E00E94F8071F
:10321000CC2009F479C0CA9480913B05813021F417
:10322000FF2009F4AAC4FA9480913D05813089F405
:103230002D2D30E021503109C29EC001C39E900D5A
:10324000112407962F2D30E0821793070CF498C4B1
:10325000F39480913A05813021F4EE2009F493C46F
:10326000EA9480913C05813069F48E2D90E028E04D
:1032700030E0CD9C201931091124821793070CF0FE
:1032800085C4E39480914005813009F482C4109292
:103290009705109298051F2D110F110F1F0D1D5F1F
:1032A0000E2D000F000F0E0D0D5F612C2F2D30E045
:1032B00038872F832E2D30E03A872987862D90E09E
:1032C000DD2059F029853A85820F931F682F660FFC
:1032D000660F860F612F8D5F0AC02F813885820FA0
:1032E000931F682F660F660F680F6D5F802F0E9417
:1032F00052156394C61410F76D2C11CF662009F493
:1033000059CFF52CFC1856CF7394372D3170732E8E
:1033100049E0A40EB11C8A94892821F08824839462
:10332000912CEDCE81E080937C02188A1F861E824C
:103330001D8280917C02882309F410C424EC31E0C2
:103340003C8B2B8B1A8619861F8239853195398FD4
:1033500080917C02882369F319821A821B821C8265
:1033600085E1898380E18A8380E28B83E0909A05FE
:10337000F0909B052A8C3B8C8B899C89281A390AF2
:1033800057011FE0812E612C10E0C984DA84D194AA
:10339000C194D108E985FA85E658FD4FFA8BE98B8F
:1033A0009924939429853A852C553E4F388F2F8B3D
:1033B00089859A858E559E4F9C878B87898D892517
:1033C000E9E08E9FC00111249C012C533E4F3E8B9F
:1033D0002D8BE989FA898181811101C012E0FF8179
:1033E000F1707F2E0E94C00C8823E1F380919A0532
:1033F00090919B059C012E193F0922303105E4F084
:103400002D813E81215031093E832D83293A3F4F42
:1034100014F41E821D82ED81E0FD0DC02F853889D8
:1034200021503109388B2F877C01293A3F4F24F4F2
:10343000188A1F8601C07C019C012A193B092B3088
:1034400031055CF02A81203119F430E23A8303C05F
:1034500020E12A8320E22B835C0183E0809397059F
:103460008093980521E333E040E06F8587E795E09E
:103470000E942C0821E333E040E06F85685A87E71B
:1034800095E00E942C08109297051092980521EC67
:1034900032E040E06D8187E795E00E942C0821EC46
:1034A00032E040E00D81085A602F87E795E00E94E6
:1034B0002C08909297059092980521E532E040E023
:1034C0006D8187E795E00E942C0821E532E040E01D
:1034D000602F87E795E00E942C0880917902811186
:1034E00028C08EE0809380058FE0809381051230A4
:1034F00069F48B899C890E944D1580E492E00E94BA
:103500004D1584E492E00E944D1513C0C1010E9444
:103510004D1580E492E00E944D156AE472E087E761
:1035200095E00E943A056BE272E087E795E00E9421
:103530003A0525E334E043E1460D6AE087E795E08C
:103540000E942C0883E0809397058093980500E102
:1035500024E540E260E087E795E00E94600B10926E
:1035600097051092980586E48093800589E2809300
:103570008105CE0101960E944D15113009F06CC0F5
:10358000E989FA898181882309F466C0EF89F88D79
:103590004181EB85FC856181872D0E94B709082F49
:1035A0008F3F09F447C0FFE0682F872D8F123CC082
:1035B0000E947C098823A9F1023091F038F400239D
:1035C00061F00130C9F483E392E00FC0033059F099
:1035D000043091F483E092E008C083E492E005C0F7
:1035E00083E292E002C081E192E09093AE05809385
:1035F000AD0580E28093AF059092790200E0602FE4
:10360000872D0E947C09811102C0109279020F5F00
:103610000530A9F7809179028823E9F010927C02A5
:103620001AC08CEF91E00DC00E947C09882389F0BC
:1036300063940FC02FE082120CC00E94F41184EF3B
:1036400091E09093AE058093AD058BE18093AF053B
:1036500002C0882021F08A945524539401C0512C33
:1036600080917902882309F459C0009177020A32C7
:1036700018F010927C020DC0023158F485E190E000
:10368000801B9109582F550F550F000F000F025343
:1036900002C002E150E110929705109298056FEF79
:1036A000650F23E831E047E087E795E058A30E94E3
:1036B0002C086FEF600F23E331E046E187E795E0E8
:1036C0000E942C08909297059092980524EE30E085
:1036D00048E058A1652F87E795E00E942C0820EA72
:1036E00030E047E1602F87E795E00E942C081092B8
:1036F00097051092980582E08093800589E2809377
:1037000081058D899E890E944D1580E592E00E9479
:103710004D15809177028F5F8093770280913E05EF
:10372000813009F4512C80914005813009F434C274
:10373000511058CE1F5F133009F04BCED601AE5555
:10374000BE4FFC90F601EC55FE4F1081909179022E
:1037500081E0292E28269F8191709F8B41E54C9D09
:1037600090014D9D300D11243E872D87C60186584E
:103770009D4F9A8B898BBD8FAC8FFF8FEE8F222050
:1037800009F4D8C10E94C00C8823E1F30E94780C90
:103790003F8840907802442031F0832D0E94AD0A8A
:1037A00081E03F803826832D90E021E5289FF001BD
:1037B000299FF00D1124FE8BED8BB2E05B2EC12C06
:1037C000D12C21E03226E1E0F0E0E81BF90B2FE0FC
:1037D0002E9F30012F9F700C112431E0350D3B8757
:1037E0008D889E888C0C9D1C72E0E72EA12CB12C3C
:1037F000F501E80DF91DE050FF4F4081453058F5C7
:10380000642F832D48A30E947C0948A1811109C01F
:10381000109297051092980504E024E0452D6E2D36
:1038200025C0E42FF0E0CF01880F991FE80FF91FA2
:10383000E60DF71DEA55FE4F8081618121E09281FE
:10384000911101C020E0442011F000E001C003E02C
:103850000E94000A0FC04E3F69F410929705109223
:10386000980502E022E04B8561E06E0D87E795E068
:103870000E94600BF9E0AF0EB11C25E0E20E3FE2C2
:10388000E312B6CF4FEFC41AD40A520E89E0C8161D
:10389000D10409F0A2CF80913B05813021F411239E
:1038A00009F47DC1115080913D05813021F418301B
:1038B00008F078C11F5F80913A05813021F4FF2024
:1038C00009F473C1FA9480913C05813029F447E0F2
:1038D0004F1508F46DC1F39400913E050130F1F4E9
:1038E00041101CC08D859E8549E0F49E800D911D80
:1038F000112480509F4F6C01C10ED11CF6018081B4
:103900008F3F09F458C10E94F41120EE31E030934A
:10391000AE052093AD0580E28093AF0580913F0511
:10392000813009F468C18F3F09F468C18091400576
:10393000813009F466C1809178028111A0C083E0D2
:103940008093970580939805E12EEE0CEE0CE10E26
:103950007F2C770C770C7F0C93E0D92ED70C4DEF92
:103960004E0D2DE06D2D87E795E00E94550C23E06C
:10397000C22ECE0C6DEF670D2DE04C2D87E795E044
:103980000E943D0B10929705109298054AE04E0D4B
:103990006D2D87E795E00E94E50A4CEF4E0D6D2DE9
:1039A00087E795E00E94E50A6AE0670D4C2D87E7FE
:1039B00095E00E94E50A6CEF670D4C2D87E795E0D6
:1039C0000E94E50A34E0A32EA70C42E0B42EB70C07
:1039D000812C07E052EF552E6AEF962EE71883945C
:1039E000882D880F8F5F980E702E7C0C472D6A2DC6
:1039F00087E795E00E94E50A472D6B2D87E795E064
:103A00000E94E50A7C2C701A472D6A2D87E795E005
:103A10000E94E50A472D6B2D87E795E00E94E50A95
:103A20007E2C7A0C472D602E6D0C662D87E795E075
:103A30000E94E50A472D7D2C701A672D87E795E0D7
:103A40000E94E50A4E2C4B0C442D662D87E795E02D
:103A50000E94E50A442D672D87E795E00E94E50A5C
:103A600080164CF497FC04C0015053945394950C69
:103A7000A394BA94B4CF6C2D8D2D0E945215EE24D0
:103A8000E394E0929705E092980507E022E240E097
:103A900061E387E795E00E94600B10929705109212
:103AA000980508E222E248E061E387E795E00E949A
:103AB000600B8B899C890E946E09809181058A5FC9
:103AC00080938105E0929705E0929805E989FA894B
:103AD000408101E0040F82E38093800587E592E056
:103AE0000E944D15402F50E060E070E02AE087E72B
:103AF00095E00E944F056BE272E087E795E00E9437
:103B00003A05809181058A5F8093810580917802D2
:103B1000811105C08DE592E00E946E0906C06BE23E
:103B200072E087E795E00E943A0586E692E00E94FF
:103B30006E0925CE2B893C89275F3F4F3C8B2B8B11
:103B40003F813F5F31703F8389859A85019609F4F3
:103B5000F0CBEFEFFFEFFA87E987F7CB0E942E0556
:103B60007DCA0E94F4112DEC33E03093AE05209312
:103B7000AD0530E23093AF054FCB0E94F41154CB2A
:103B80000E94F41166CB0E94F4116BCB0E94F411D9
:103B900079CB0E94D80A7BCB0E94D80AC9CD0E945B
:103BA000F41181CE0E94F41186CE0E94F4118BCEC6
:103BB0000E94F41191CE40E06BEA75E08EE495E04E
:103BC0000E94F807E989FA8980818F5F8083898D57
:103BD0008027412F6F2D81700E94B7098F3F09F414
:103BE0008EEFF6018083EC8DFD8DF082EE8DFF8DE2
:103BF0001083212C93CE8093780298CE1092780275
:103C000095CE0E94D80A97CEECE8F4E01382128297
:103C100088EE93E0A0E0B0E084839583A683B78329
:103C200082E192E09183808385EC90E095878487A0
:103C300084EC90E09787868780EC90E0918B808B76
:103C400081EC90E0938B828B82EC90E0958B848B5F
:103C500086EC90E0978B868B118E128E138E148ECD
:103C600010927A051092790582E292E0909378059D
:103C7000809377050895DB018F939F930E94DA1F4D
:103C8000BF91AF91A29F800D911DA39F900DB29FF8
:103C9000900D11240895991B79E004C0991F96177F
:103CA00008F0961B881F7A95C9F78095089597FBB1
:103CB000072E16F4009407D077FD09D00E946B1EE2
:103CC00007FC05D03EF4909581959F4F089570951F
:103CD00061957F4F0895AA1BBB1B51E107C0AA1F26
:103CE000BB1FA617B70710F0A61BB70B881F991F9D
:103CF0005A95A9F780959095BC01CD010895EE0FD6
:103D0000FF1F0590F491E02D09940E94F91E88F0A0
:103D10009F5798F0B92F9927B751B0F0E1F0660F8F
:103D2000771F881F991F1AF0BA95C9F714C0B130D0
:103D300091F00E94131FB1E008950C94131F672F98
:103D4000782F8827B85F39F0B93FCCF386957795FF
:103D50006795B395D9F73EF49095809570956195E8
:103D60007F4F8F4F9F4F0895E89409C097FB3EF413
:103D700090958095709561957F4F8F4F9F4F9923B8
:103D8000A9F0F92F96E9BB279395F6958795779536
:103D90006795B795F111F8CFFAF4BB0F11F460FFF6
:103DA0001BC06F5F7F4F8F4F9F4F16C0882311F04E
:103DB00096E911C0772321F09EE8872F762F05C062
:103DC000662371F096E8862F70E060E02AF09A95FD
:103DD000660F771F881FDAF7880F9695879597F9F2
:103DE000089557FD9058440F551F59F05F3F71F0EB
:103DF0004795880F97FB991F61F09F3F79F0879552
:103E00000895121613061406551FF2CF4695F1DFDA
:103E100008C0161617061806991FF1CF869571056A
:103E2000610508940895E894BB2766277727CB019E
:103E300097F908950E942D1F0C949E1F0E94901FB9
:103E400038F00E94971F20F0952311F00C94871FE3
:103E50000C948D1F11240C94141F0E94F11E70F3FA
:103E6000959FC1F3950F50E0551F629FF001729F1F
:103E7000BB27F00DB11D639FAA27F00DB11DAA1F2E
:103E8000649F6627B00DA11D661F829F2227B00D7B
:103E9000A11D621F739FB00DA11D621F839FA00D06
:103EA000611D221F749F3327A00D611D231F849F56
:103EB000600D211D822F762F6A2F11249F575040AD
:103EC0009AF0F1F088234AF0EE0FFF1FBB1F661F28
:103ED000771F881F91505040A9F79E3F510580F0F1
:103EE0000C94871F0C94141F5F3FE4F3983ED4F3A7
:103EF000869577956795B795F795E7959F5FC1F795
:103F0000FE2B880F911D9695879597F9089597F93F
:103F10009F6780E870E060E008959FEF80EC08956F
:103F200000240A9416161706180609060895002498
:103F30000A9412161306140605060895092E039412
:103F4000000C11F4882352F0BB0F40F4BF2B11F486
:103F500060FF04C06F5F7F4F8F4F9F4F089581E0D8
:103F600090E0F8940C941620DC0101C06D93415050
:103F70005040E0F70895052E97FB1EF400940E9430
:103F8000D21F57FD07D00E94E51F07FC03D04EF457
:103F90000C94D21F50954095309521953F4F4F4F2F
:103FA0005F4F089590958095709561957F4F8F4FE5
:103FB0009F4F08950E940720A59F900DB49F900DDC
:103FC000A49F800D911D11240895A1E21A2EAA1B11
:103FD000BB1BFD010DC0AA1FBB1FEE1FFF1FA217B9
:103FE000B307E407F50720F0A21BB30BE40BF50BB6
:103FF000661F771F881F991F1A9469F7609570953F
:10400000809590959B01AC01BD01CF010895A29FC1
:10401000B001B39FC001A39F700D811D1124911D9C
:10402000B29F700D811D1124911D0895F894FFCF4A
:10403000FFFFFFFFFFFFFFFFFFFFFFFFFFFFFFFF90
:10404000FFFFFFFFFFFFFFFFFFFFFFFFFFFFFFFF80
:10405000FFFFFFFFFFFFFFFFFFFFFFFFFFFFFFFF70
:10406000FFFFFFFFFFFFFFFFFFFFFFFFFFFFFFFF60
:10407000FFFFFFFFFFFFFFFFFFFFFFFFFFFFFFFF50
:10408000FFFFFFFFFFFFFFFFFFFFFFFFFFFFFFFF40
:10409000FFFFFFFFFFFFFFFFFFFFFFFFFFFFFFFF30
:1040A000FFFFFFFFFFFFFFFFFFFFFFFFFFFFFFFF20
:1040B000FFFFFFFFFFFFFFFFFFFFFFFFFFFFFFFF10
:1040C000FFFFFFFFFFFFFFFFFFFFFFFFFFFFFFFF00
:1040D000FFFF04040404FF0000FF0000FF0000FFD6
:1040E0000000FF0000FF0000FF0000FF0000FF00D5
:1040F00000FF0000506C61796572310000506C6106
:10410000796572320000010000B0058000010000F6
:10411000004372756973657200005375626D617258
:10412000696E0044657374726F7972004261742E17
:104130005368697000436172726965720000000023
:104140000000C50441048E046C0480040C050000CA
:104150000000890B4104796F7572000D0A00413A25
:1041600020506C61636500423A20526F74617400A4
:10417000277320007475726E210073686F743A00A3
:104180002077696E73210053686F742000413A20D4
:1041900053686F6F7400423A20546F67676C004C2D
:0641A0004F4144455200AE
:00000001FF
