:100000000C9417040C943F040C943F040C943F048C
:100010000C943F040C943F040C943F040C943F0454
:100020000C943F040C943F040C943F040C94DE07A2
:100030000C943F040C943F040C943F040C943F0434
:100040000C945A070C943F040C94BE050C9498052C
:100050000C943F040C943F040C943F040C943F0414
:100060000C943F040C943F040101FF030101F703CA
:100070006C00680000000000240027002A00000037
:100080000000250028002B000500893008023802F6
:1000900049786814000053686970777265636B0073
:1000A000580A400001000800000000C0084000009D
:1000B0008004000000013030200000787C00000047
:1000C000010FC010000047820000000200000C0079
:1000D0000180018000000C000003800E0000400041
:1000E00000100000007FF00000380000E000000079
:1000F0000000000007800F0000000000000000006A
:100100007FF0000000000000000000000000000080
:10011000580A3FFFFEFFF7FFFFFFFF3FF03FFFFFE3
:100120007FFBFFFFFFFE0FC01FFFFF8783FFFFFF67
:10013000FE00000FFFFF8001FFFFFFFC000003FF38
:10014000FE00007FFFFFF00000007FF000003FFF97
:10015000FFE00000000000000007FFFF00000000BB
:1001600000000000007FF000000000000000000020
:10017000000000000000000000000000000000007F
:10018000580E210001002000200080000421000101
:1001900000400040008000041080008040004000CB
:1001A000800002084000404000400040000187B04D
:1001B00000302000200040001040FF003E100020D2
:1001C000002000283F50FFE1F80010001800C70091
:1001D00020CC4007007C003603C0003070401CFF7C
:1001E000A300C1FC20004F8C40200420FF01002010
:1001F000004003E01004183183C0C0E380001C3CC1
:100200001B37C07C3F3C1C000003C3E0C000000063
:100210000300000000000000000000004361727253
:100220006965722073756E6B2100426174746C6530
:10023000736869702073756E6B2100446573747206
:100240006F7965722073756E6B21005375626D61F5
:1002500072696E652073756E6B21004372756973E8
:1002600065722073756E6B2100300B0F8F8F7FCFFF
:10027000F031C70638C73870E70C38473860E708F0
:10028000300638E0E318330630E0E3307E0FE0E07C
:10029000E330720EC0E0C3E0700CE0E1C3C0608CDC
:1002A000606381C0E19C703E0181FFBE3C380B0F52
:1002B000C0607C1F7FC038C0E03C3C38C06040F06C
:1002C0003C3C38406041F02C7C3000E001302E583E
:1002D0003300E002306E987E00C7E7F06E9872003F
:1002E000E1843847387000E18C3847386080739873
:1002F00038C638E1803F3C7DE6FDFF80300D0FEFD2
:10030000EFFFFFFC383828401806671C6CE39C623E
:10031000458C49A2D462CC8C5B27F4E2888E72664D
:100320004CE6888A6640C80C888A64468898899A10
:100330000C47E9888B1218CDB9CCCE33118F31C65A
:1003400060E1310020E23F81E1FFFFBE380D0FF098
:10035000787F1FFFF03810C84130401063908C61E7
:1003600021E3904ED184216122D0C8510429C127B4
:10037000F088736468D366408FFEE448B240C09C46
:100380000C0648B246808F3DE25C6247E08F39221E
:10039000D462CDA0C633639CE38F206061410C81A1
:1003A00000203FFF7FFFFFFFE0416C7265616479D1
:1003B0002073686F7420746865726521004D6973DD
:1003C000732E2E2E004849542121210043616E27AF
:1003D00074206F7665726C617020626F6174730057
:1003E00053686970777265636B000804787C7C7869
:1003F00010047F80FFE0FFE07F8010047FFCFFFFA0
:10040000FFFF7FFC18047FFFE0FFFFF8FFFFF87F8E
:10041000FFE02004FFFFFF00FFFFFFC0FFFFFFC062
:10042000FFFFFF00050068013801000005003801EA
:1004300068010000401E00000000000000000000F5
:1004400000000000000000000000000000000000AC
:100450000004000000000000000300000000000095
:100460000004000000000000010600000000000081
:10047000070B800000000000077D0E000000000256
:100480008FFFF81231FF7FFFFFFFFFFFFFFC3FFFF1
:10049000FFFFFFFFFFF80FFFFFFFFFFFFFF8FFFF6A
:1004A000FFFFFFFFFFFF5555555555555555AAAA56
:1004B000AAAAAAAAAAAA5555555555555555AAAA44
:1004C000AAAAAAAAAAAA5555555555555555AAAA34
:1004D000AAAAAAAAAAAA5555555555555555AAAA24
:1004E000AAAAAAAAAAAA5555555555555555AAAA14
:1004F000AAAAAAAAAAAA5555555555555555AAAA04
:10050000AAAAAAAAAAAA5555555555555555AAAAF3
:10051000AAAAAAAAAAAA5555555555555555AAAAE3
:10052000AAAAAAAAAAAA1753440016137800161357
:1005300014001510200015201000540A03E18186D4
:100540007F3E186D830F0F0E0183866033186DC3D5
:10055000198F1803C38E6033186DE330CF1803C3AF
:100560009E603630CDE360CF3006C79E7E3E30CDF4
:10057000B360CF300CC6F6603330D9B660CF33CF1E
:10058000CCF66061B0DB1E60CF30D86CE6C061B0E5
:10059000DB1E618F19986CC6C063B19B0E330F0FC1
:1005A000B078C6FF7E1F1B061E0F450068010000C5
:1005B000F6E8DBCFC3B8AEA49B928A827B746E68E8
:1005C000625C57524E4945413E3A3734312E2C2910
:1005D000272523210A0A153A49676E6F7265006D57
:1005E000560A0A504C45415345205455524E204F0F
:1005F000464620004C4F5720424154544552592101
:10060000200003053F213F1208120A100A0E1C0E9B
:100610000C1E0C141A14161F161E131E1E1B1E1E53
:100620001F1E3F213F3A2F3A173D173F213F181F0A
:1006300002040A041F0E04040E1F0A1F0A0E0E1FD6
:1006400004110E2E252E2F2A2E262929021F0208DC
:100650001F08150E04040E150E15151B151B040698
:1006600004040C040000000017000300031F0A1F0D
:1006700016371A1904130A153A000300000E111157
:100680000E000A040A040E040030000404040010E2
:10069000001804031F111F121F101D151711151F1D
:1006A00007041F17151D1F151D01011F1F151F17FB
:1006B000151F000A00003200040A110A0A0A110A72
:1006C000040115020E11171E051E1F150A0E110A30
:1006D0001F110E1F15111F05010E111D1F041F11E3
:1006E0001F1108100F1F041B1F10101F061F1E04D0
:1006F0000F0E110E1F09060E112E1F051A121509D5
:10070000011F011F101F0F180F1F0C1F1B041B03BD
:100710001C03191513001F11030418111F000201F7
:10072000022020200001020C121E1F120C0C1212BB
:100730000C121F0C1A14041E05242A1E1F021C145E
:100740001D1020201D1F0814111F101E041E1E0244
:100750001C0C120C3E0A040C123E1E040214160A53
:10076000020F120E101E0E100E1E081E120C122664
:10077000281E322A26041E21001F00211E04010209
:10078000013F213F172B152010204C4F414445526B
:1007900000172B16201314000A4E6F2053442063B9
:1007A000617264206F720A6E6F204C4F4144455253
:1007B0002E4845580A0A153A45786974001D2046A6
:1007C0006C617368696E670A20206C6F6164657282
:1007D0002E2E2E0A0A444F4E2754205455524E2096
:1007E0004F46462100000000002300260029000497
:1007F00004040404040404020202020202030303C8
:1008000003030301020408102040800102040810C1
:10081000200102040810200000000800020100006E
:100820000304070000000000000000004E1F112418
:100830001FBECFEFD8E0DEBFCDBF12E0A0E0B1E039
:10084000ECE8F3E402C005900D92AC39B107D9F79A
:1008500025E0ACE9B2E001C01D92AF3DB207E1F77F
:1008600014E0C7E1D4E004C02197FE010E94C91F33
:10087000C631D107C9F70E9497160C94C4210C9475
:100880000000CF92DF92EF92FF920F931F93CF93CE
:10089000DF936C017A018B01C0E0D0E0CE15DF055B
:1008A00089F0D8016D918D01D601ED91FC910190F7
:1008B000F081E02DC6010995892B11F47E0102C05B
:1008C0002196ECCFC701DF91CF911F910F91FF903F
:1008D000EF90DF90CF900895FC01918D828D981755
:1008E00061F0828DDF01A80FB11D5D968C91928D14
:1008F0009F5F9F73928F90E008958FEF9FEF089511
:10090000FC01918D828D981731F0828DE80FF11DD9
:10091000858D90E008958FEF9FEF0895FC01918DF4
:10092000228D892F90E0805C9F4F821B91098F73ED
:10093000992708958BEB94E00E948E0421E0892B87
:1009400009F420E0822F0895FC01848DDF01A80FB7
:10095000B11DA35ABF4F2C91848D90E001968F73E7
:100960009927848FA689B7892C93A089B1898C9106
:1009700080648C93938D848D981306C00288F389CC
:10098000E02D80818F7D80830895EF92FF920F93F9
:100990001F93CF93DF93EC0181E0888F9B8D8C8D2B
:1009A000981305C0E889F989808185FD24C0F62E59
:1009B0000B8D10E00F5F1F4F0F731127E02E8C8DF2
:1009C000E8120CC00FB607FCFACFE889F9898081DC
:1009D00085FFF5CFCE010E94A404F1CF8B8DFE01DF
:1009E000E80FF11DE35AFF4FF0820B8FEA89FB8974
:1009F0008081806207C0EE89FF896083E889F98978
:100A000080818064808381E090E0DF91CF911F91AD
:100A10000F91FF90EF900895CF93DF93EC01888DB5
:100A20008823C9F0EA89FB89808185FD05C0A889F2
:100A3000B9898C9186FD0FC00FB607FCF5CF808178
:100A400085FFF2CFA889B9898C9185FFEDCFCE01C2
:100A50000E94A404E7CFDF91CF91089580E090E059
:100A6000892B29F00E949A0481110C9400000895AA
:100A70000E94F9206115710579F0FB0101900020B9
:100A8000E9F73197AF01461B570BDC01ED91FC9163
:100A90000280F381E02D099480E090E008954F9268
:100AA0005F926F927F92EF92FF920F931F93CF937B
:100AB000DF93CDB7DEB7A1970FB6F894DEBF0FBEB8
:100AC000CDBF7C01FA01CB0119A2223008F42AE043
:100AD0008E010F5D1F4F422E512C612C712CBF01D6
:100AE000A30192010E949321F901CA010150110949
:100AF0006A3014F4605D01C0695CD8016C93232BEB
:100B0000242B252B61F7B801C7010E943A05A19655
:100B10000FB6F894DEBF0FBECDBFDF91CF911F910E
:100B20000F91FF90EF907F906F905F904F9008959E
:100B30001F920F920FB60F9211242F933F934F9352
:100B40005F936F937F938F939F93AF93BF93EF9335
:100B5000FF938BEB94E00E94A404FF91EF91BF916F
:100B6000AF919F918F917F916F915F914F913F9145
:100B70002F910F900FBE0F901F9018951F920F92FC
:100B80000FB60F9211242F938F939F93EF93FF93A0
:100B9000E091CB04F091CC048081E091D104F091FC
:100BA000D20482FD12C090818091D4048F5F8F7334
:100BB0002091D504821751F0E091D404F0E0E5547F
:100BC000FB4F958F8093D40401C08081FF91EF91FA
:100BD0009F918F912F910F900FBE0F901F9018959E
:100BE000833081F028F4813099F08230A1F00895AB
:100BF0008730A9F08830B9F08430D1F4809180003A
:100C00008F7D03C0809180008F778093800008954E
:100C100084B58F7702C084B58F7D84BD089580919F
:100C2000B0008F7703C08091B0008F7D8093B000BB
:100C300008951F93CF93DF93282F30E0F901E95EE9
:100C4000F74F8491F901ED5FF74FD491F901E1512C
:100C5000F84FC491CC23C9F0162F81110E94F005E2
:100C6000EC2FF0E0EE0FFF1FE258FF4FA591B4917B
:100C70008FB7F894111105C09C91ED2FE095E923F1
:100C800002C0EC91ED2BEC938FBFDF91CF911F91C0
:100C90000895CF93DF9390E0FC01ED5FF74F24912F
:100CA000FC01E151F84F8491882361F190E0880FB5
:100CB000991FFC01EC58FF4FC591D491FC01E258FB
:100CC000FF4FA591B491611109C09FB7F894888135
:100CD000209582238883EC912E230BC0623061F42F
:100CE0009FB7F8943881822F809583238883EC9175
:100CF0002E2B2C939FBF06C08FB7F894E8812E2B24
:100D000028838FBFDF91CF9108951F93CF93DF93F7
:100D1000182FEB0161E00E944906209711F460E072
:100D200004C0CF3FD10539F461E0812FDF91CF912D
:100D30001F910C941906E12FF0E0E95EF74FE49162
:100D4000E330F9F048F4E130B9F0E230A1F584B5D0
:100D5000806284BDC8BD34C0E730E9F0E83019F1E5
:100D6000E43049F580918000806280938000D093C8
:100D70008B00C0938A0024C084B5806884BDC7BD41
:100D80001FC080918000806880938000D09389008C
:100D9000C093880015C08091B00080688093B00037
:100DA000C093B3000DC08091B00080628093B0000A
:100DB000C093B40005C0C038D1050CF0B5CFAFCF9B
:100DC000DF91CF911F9108958E3008F08E5087707B
:100DD000806480937C0080917A00806480937A00A4
:100DE00080917A0086FDFCCF809178002091790077
:100DF00090E0922B08953FB7F8948091AE029091C5
:100E0000AF02A091B002B091B10226B5A89B05C077
:100E10002F3F19F00196A11DB11D3FBFBA2FA92F79
:100E2000982F8827820F911DA11DB11DBC01CD01F6
:100E300042E0660F771F881F991F4A95D1F70895E2
:100E40008F929F92AF92BF92CF92DF92EF92FF92DA
:100E50006B017C010E94FB064B015C01C114D104B3
:100E6000E104F104F1F00E94FB06DC01CB018819DA
:100E70009909AA09BB09883E9340A105B10570F301
:100E800021E0C21AD108E108F10888EE880E83E05B
:100E9000981EA11CB11CC114D104E104F10419F77E
:100EA000DDCFFF90EF90DF90CF90BF90AF909F90FD
:100EB0008F9008951F920F920FB60F9211242F93C7
:100EC0003F938F939F93AF93BF938091B70290917D
:100ED000B802A091B902B091BA023091AD0223E0FC
:100EE000230F2D3720F40196A11DB11D05C026E862
:100EF000230F0296A11DB11D2093AD028093B7026E
:100F00009093B802A093B902B093BA028091AE0256
:100F10009091AF02A091B002B091B1020196A11DD3
:100F2000B11D8093AE029093AF02A093B002B09334
:100F3000B102BF91AF919F918F913F912F910F90EF
:100F40000FBE0F901F90189550E0DA01AA0FBB1F3B
:100F5000A80FB91F1F963C911F9750962C91509740
:100F6000E32FF22FE60FF11DE60FF11D659174914D
:100F700090967C936E935F97FB0125913491FC01D1
:100F80003481329F202D1124DC01A40FB51F9196CE
:100F90002C939197FB0185919491E92FF0E0822F9A
:100FA00090E0E817F90720F4FB0185919491292F2F
:100FB000239F202D112492962C9308951F920F9217
:100FC0000FB60F9211242F936F937F938F939F935C
:100FD0006091B402662359F18091AC028F5F8093D7
:100FE000AC029091B502891710F12091B20281E014
:100FF00028272093B2021092AC028091B602882377
:1010000069F08091DC0193E4899F802D1124895B34
:101010008093DC010E94951F9093B302222329F054
:101020008091B3028093B40002C080E0FBCF9F9117
:101030008F917F916F912F910F900FBE0F901F9006
:101040001895FC0161110DC0178A158A14A213A20C
:10105000108E1092B3021092B4021092B20210924B
:10106000B4000895EF92FF920F931F93CF93DF93F5
:101070001F92CDB7DEB77C018B01411105C060E046
:1010800049830E942108498150E0FA01EE0FFF1FB9
:10109000EE0DFF1D16870587DA011996AA0FBB1FF3
:1010A000AE0DBF1D1D921C92F701E40FF51F81E0EC
:1010B000818389E0868B118E138E158E0F90DF91C0
:1010C000CF911F910F91FF90EF9008954F925F92F3
:1010D0006F927F928F929F92AF92BF92CF92DF9248
:1010E000EF92FF920F931F93CF93DF93F901C49078
:1010F00031965491EC0108A164350CF018C10C2C08
:10110000000CDD08A62F062E000CBB0B7D01EC0C9D
:10111000FD1C1E141F040CF00AC140330CF007C163
:10112000A52E842E042E000C9908F401E50FF11D64
:1011300057FDFA951E161F060CF0F9C02E5F3F4FA3
:10114000E6012796D7FD279673E0D595C7957A9542
:10115000E1F747FF0AC0A52EA40EC89DA001C99DB6
:10116000500D1124241B350B40E0EA2D0A2C000CF5
:10117000FF0BE40FF11D47FDFA95F1971CF050E3CA
:10118000A52EA41A67FD60E0F701E535F10514F01E
:10119000E4E5F0E07E2FFC01D484D426862F062ED1
:1011A000000C990BFC01EA1BFB0BDF017F01F7E050
:1011B000EF22FF24E0E8F0E002C0F595E795EA941D
:1011C000E2F71E2FB7FD179653E0B595A7955A95F0
:1011D000E1F72A0F3B1FE42FE77051E001C0550FE4
:1011E000EA95EAF7459545954595B4E54B02800D9E
:1011F000911D112485549D4FC12C0A2C000CBB0855
:10120000992493942E015524EC2DF0E0EA15FB056A
:101210000CF08DC0F90144910130E1F47C01A12F63
:10122000862E881AB82DBE0DB71708F077C0B42FD8
:10123000BA2321F0E701B881B52BB883B0E0B595AA
:10124000A795109719F431964491A0E8DFEFED1AB5
:10125000FD0AE8CF01111FC0752E70947C01A12FEB
:10126000F901862E881AB82DBE0DB71708F056C0A2
:10127000B42FBA2321F0E701B881B721B883B0E0D9
:10128000B595A795109719F431964491A0E8DFEF32
:10129000ED1AFD0AE8CF033031F07C01A12FF901EE
:1012A000862E881A37C0752E7094862E7C01A12F49
:1012B000F9018716D8F4B42FBA2359F0E701B881A1
:1012C000682C6D2460FE02C0B52B02C0B721E70177
:1012D000B883B0E0B595A795109719F4319644916D
:1012E000A0E88394DFEFED1AFD0AE3CFD92416C0FE
:1012F000B42FBA2321F0E701B881B527B883B0E055
:10130000B595A795109719F431964491A0E8DFEFB1
:10131000ED1AFD0AB82DBE0DB71750F3550F19F48D
:101320008C5A9F4F51E0C394240D351D6DCFDF9132
:10133000CF911F910F91FF90EF90DF90CF90BF90D2
:10134000AF909F908F907F906F905F904F90089597
:1013500022E32093AF05BC0186EA95E00E943A059E
:1013600061E572E086EA95E00C943A05DF92EF922F
:10137000FF920F931F93CF93DF939FE0899FE0012C
:101380001124A0E0B0E020E030E090E08FEF042FE7
:1013900010E0E62EF12CFD01EC0FFD1FE455FE4F91
:1013A0007081D18051E0E281E11101C050E0671706
:1013B00058F0F901E70FF11DEE15FF052CF04D1166
:1013C00003C051110DC002C04D1558F0F901ED0DCB
:1013D000F11DE017F1072CF0671303C0511101C094
:1013E000892F9F5F2F5F3F4F13969530A1F6DF91B6
:1013F000CF911F910F91FF90EF90DF900895CF93C1
:10140000DF93782FE62FF0E0CF01880F991FE80FC8
:10141000F91F8FE0789FE00DF11D1124E455FE4F78
:1014200020813181A28190E081E041E050E0471BC2
:10143000510971E5749FE001759FD00D112449E0B9
:10144000AA2321F0992321F02F5F02C091113F5F61
:10145000FE01429FE00DF11D1124EA5FFE4FE30FF4
:10146000F11D5081561380E09F5F691748F7DF91A7
:10147000CF9108950F930093C6050093C7052223CB
:1014800009F458C04230D1F1A0F4442309F444C017
:10149000413009F09AC0462F440F440F460F4E5F6B
:1014A000682F660F660F860F61E0680F20EF33E04C
:1014B00020C0433089F0443009F087C0462F440FE4
:1014C000440F460F4E5F682F660F660F860F61E070
:1014D000680F22E134E00DC0462F440F440F460F41
:1014E0004E5F682F660F660F860F61E0680F24E07D
:1014F00034E086EA95E00F910C946608462F440F7D
:10150000440F460F4E5F682F660F660F860F61E02F
:10151000680F2AEF33E0EDCF462F440F440F460FFC
:101520004E5F682F660F660F860F61E0680F2AEE28
:1015300033E0DFCF423071F188F44423B9F1413018
:1015400009F043C0462F440F440F640F6F5F982F7C
:10155000990F990F890F40EF53E033C0433071F07A
:10156000443099F5462F440F440F640F6F5F982F56
:10157000990F990F890F42E154E023C0462F440F81
:10158000440F640F6F5F982F990F990F890F44E0F4
:1015900054E017C0462F440F440F640F6F5F982F1D
:1015A000990F990F890F4AEF53E00BC0462F440F54
:1015B000440F640F6F5F982F990F990F890F4AEEB0
:1015C00053E08E5F0F910C9499150F910895EF924F
:1015D000FF920F931F93CF93DF939FE0899F70013A
:1015E0001124C0E0D0E010E0FE01EE0DFF1DE45537
:1015F000FE4F8081618192818F3F41F021E0911106
:1016000001C020E003E0412F0E943A0A1F5F2396A9
:10161000CF30D10549F7DF91CF911F910F91FF9006
:10162000EF9008950E94E6128091C805882321F06A
:1016300080EE93E00E940812109270050895FC015C
:10164000643508F053C0403308F050C090A1742FA7
:10165000759575957595262F062E000C330B542F16
:1016600057709230A1F4F901E554FD4F84E57802FA
:10167000E00DF11D1124808190E0052E02C09595AA
:1016800087950A94E2F78095982F91700AC093305D
:1016900041F484858170462740954170841303C0CE
:1016A00014C0911112C084E57802200D311D11245F
:1016B000F901E554FD4F81E090E001C0880F5A9593
:1016C000EAF780959081892310C084E57802200D87
:1016D000311D1124F901E554FD4F81E090E001C076
:1016E000880F5A95EAF79081892B80830895DF92BD
:1016F000EF92FF920F931F93CF93DF931F92CDB77B
:10170000DEB78C01D62EF42EE12CE21654F46E2DA9
:101710006D0D4F2DC80129830E941F0BE394298171
:10172000F4CF0F90DF91CF911F910F91FF90EF9029
:10173000DF900895DF92EF92FF920F931F93CF9364
:10174000DF937C01D62FD22EC42F002E000C110B5C
:10175000040F111D47FD1A954C2F0C2E000C550B34
:101760004017510744F42D2D4C2F6D2FC7010E94B7
:10177000770BCF5FF1CFDF91CF911F910F91FF904A
:10178000EF90DF9008956F927F928F929F92AF9229
:10179000BF92CF92DF92EF92FF920F931F93CF935E
:1017A000DF93EC016A3019F42D819885A1C06D306A
:1017B00009F4A4C01885BA84D98488A083E58D155E
:1017C0000CF47FC08FE28B150CF47BC08C8190E011
:1017D0000197189F9001199F300D1124C9018D0D9B
:1017E000911DD7FC9A95181619060CF06AC08D81C8
:1017F000819FC00111248B0D911DB7FC9A9518167D
:1018000019060CF05EC09D2CCD2CE62EF12CEC2D93
:10181000ED190E2E000CFF0B8C8190E0E817F907F4
:101820000CF04EC00197E817F90779F0E89E900197
:10183000E99E300DF89E300D1124E20FF31F8E8DBE
:101840009F8DE80FF91F749001C0712C6B2CAB2C8D
:101850002A2D2B19022E000C330B8D8190E02817B6
:1018600039075CF570FE10C0113031F44A2D6C2D33
:10187000CE010E941F0B1DC0012F212F462D692D67
:10188000CE010E949A0B15C089A198A1891789F0F1
:1018900088A3113031F44A2D6C2DCE010E941F0B0C
:1018A00007C0012F212F462D692DCE010E949A0BD2
:1018B00088A27694A394610ECBCFC394910EA7CF48
:1018C00088A228853C818985329F800D11248987D3
:1018D0009F81992399F0082E000C990B44E550E064
:1018E000239F401951091124481759073CF49D8141
:1018F0008A85299F800D11248A87198681E090E0CE
:10190000DF91CF911F910F91FF90EF90DF90CF90DB
:10191000BF90AF909F908F907F906F900895DF92CF
:10192000EF92FF920F931F93CF93DF931F92CDB748
:10193000DEB78C01D62EF42EE12CE21654F44E2D97
:101940004F0D6D2DC80129830E941F0BE39429813F
:10195000F4CF0F90DF91CF911F910F91FF90EF90F7
:10196000DF9008958F929F92AF92BF92CF92DF92B5
:10197000EF92FF920F931F93CF93DF936C01B62EDC
:10198000A42EC22F11E0121BF22EF194FF0CD1E015
:10199000802F8170882E992493949E0C02708FEF73
:1019A0008D0F8C17C4F517FD04C0C150F394F39448
:1019B0001F0D8D2F880F8F5F180F882099F02C2F07
:1019C000220F290D4A2D4C1B6D2F6B0DC6010E9455
:1019D0008F0C23E02E0D4A2D4D1B6C2F6B0DC60175
:1019E0000E948F0C002399F02C2F220F290D4A2DD5
:1019F0004C1B6B2D6D1BC6010E948F0C23E02E0D1E
:101A00004A2D4D1B6B2D6C1BC6010E948F0CDF5F96
:101A1000E394E394C4CFDF91CF911F910F91FF9096
:101A2000EF90DF90CF90BF90AF909F908F900895F0
:101A3000EF920F93CF93DF938FE08093AB0280916F
:101A40009C0281110FC00E94532127E330E040E047
:101A500050E00E946121DC01CB010F96A11DB11D58
:101A60008093AA02C0919C028091AB02C81748F5EE
:101A70001092C6051092C705D091AA022C2F220FF2
:101A80002F5F4FE14C1B6D2F86EA95E00E948F0C73
:101A9000E12C03E02C2F4FE16D2F86EA95E00E94A8
:101AA000B20C81E08093C6058093C70540919C02EB
:101AB0006FE18D2F0E94F21280919C028F5F8093C4
:101AC0009C02DF91CF910F91EF9008950F93CF93E8
:101AD000DF9348EF51E06FEF7FEF8BEB92E00E94D6
:101AE000FE201092C6051092C70508E222E247E0E8
:101AF00061E386EA95E00E949A0B81E08093B0054D
:101B00002EE240E061E086EA95E00E94770B2EE24B
:101B100041E06FE286EA95E00E948F0C2EE24FE2F0
:101B200061E086EA95E00E94770B2EE241E060E0FA
:101B300086EA95E00E948F0CD1E0C1E04D2F6C2F1A
:101B400086EA95E00E941F0BCB5FC333B9F7DB5FDA
:101B5000D33399F7DF91CF910F9108954F925F9210
:101B60006F927F928F929F92AF92BF92CF92DF92AD
:101B7000EF92FF920F931F93CF93DF9300D000D08B
:101B8000CDB7DEB74091D8055091D9056091DA05FF
:101B90007091DB052FB7F8948091B7029091B8024D
:101BA000A091B902B091BA022FBF481B590B6A0B22
:101BB0007B0B8091D70590E0A0E0B0E00091D305C9
:101BC0001091D4052091D5053091D605841795073D
:101BD000A607B70730F4011511052105310509F0F5
:101BE00036C3012B022B032B09F02FC380916F0505
:101BF00081508E3F30F580916E05813039F58091AE
:101C000082058F5F6091830587FD09C0082E000C57
:101C1000990B70E06F5F7F4F0E94A11F682F609348
:101C2000820581E997E09093DD058093DC0588E4E7
:101C30008093DE0540E06AEA75E08DE795E00E945A
:101C4000320880916F0581508E3F70F480916D0550
:101C5000813009F0A8C384E897E09093DD05809374
:101C6000DC0588E48093DE0580E00E949214809178
:101C70007E05882309F4AFC0809192058111ABC025
:101C800080918A0590918B05E0918F05F0919005E8
:101C9000EE0FFF1FE80FF91F259134912115310533
:101CA00001F520918E05222331F0109290051092BB
:101CB0008F05FC0114C010927E0580917D0588235C
:101CC00041F080E00E949214E0918F05F091900520
:101CD0002FC060E08DE795E00E9421087CC025912F
:101CE0003491C901969587959695879520FF53C0A5
:101CF000B90116E0769567951A95E1F76F71932F04
:101D000096959695969590518F70823081F108F551
:101D1000811117C06B3008F06AE060939305E09181
:101D20008F05F09190053196F0939005E0938F0523
:101D3000EE0FFF1F80918A0590918B05E80FF91F28
:101D4000CECF813061F740E08DE795E00E94A40797
:101D5000E6CF8330B1F0843011F780918105689F20
:101D6000602D112460939A0590939B05D8CF8091A4
:101D70008105689F602D11246093960590939705C7
:101D8000CECF80918105689F602D112460939805C6
:101D900090939905C4CF8F738093910580918105AD
:101DA000839F802D1124809392051092A20510929A
:101DB000A1051092A00581E0809394058093B20262
:101DC0001092950580918F059091900501969093C2
:101DD000900580938F0580919405882309F4F3C0C2
:101DE00080919205811106C060E08DE795E00E9428
:101DF0002108E9C08150809392058091A20581114C
:101E000048C02091A0053091A1052F5F3F4FC90127
:101E1000880F991FE0919C05F0919D05E80FF91F2F
:101E200065917491862F87708093A305AB01E3E0E1
:101E300056954795EA95E1F7CA0196958795972FAC
:101E4000969596959093A4058F7390918105899F9F
:101E5000802D11248093A20541704093B6023093E7
:101E6000A1052093A00580919E0590E028173907D1
:101E700080F020919F05222339F0821B91099093D5
:101E8000A1058093A00505C060E08DE795E00E9464
:101E900021088091A20581508093A205809195052B
:101EA00021E0280F20939505409191053091A405DC
:101EB000340F80918905380F30937F056091980524
:101EC000662371F070E0822F022E000C990B0E94A5
:101ED000A11F80919905869F300D112430937F05B5
:101EE00080917F0590E0849664E270E00E94A11FDB
:101EF00080937F053091930530938005609196051E
:101F0000662381F0062E000C770B822F022E000C28
:101F1000990B0E94A11F80919705869F300D112477
:101F20003093800560919A056623A1F0822F220FDD
:101F3000990B70E00E94A11FCB0162E070E00E944B
:101F4000A11F20919B0590918005289F900D112441
:101F500090938005809180054F3341F08A300CF0DA
:101F600089E087FD80E08093800502C010928005A3
:101F7000F894E0917F05F0E0E055FA4FE491E093AA
:101F8000B502309180052091A505320390011124FE
:101F90004091A3054203C001439F900D112400907E
:101FA000820502C0880F991F0A94E2F797FF02C0CA
:101FB00081589F4F880F892F881F990B8093B402F7
:101FC0008093B30278948091DE05882309F48AC057
:101FD0008C3020F49CE0B92EB81A01C0B12CDD245D
:101FE000D394D092AE051092C6051092C705E0902A
:101FF000AB053DE2C32E1C2D1E191B0D03E00E0D7B
:102000002EE4412F63E086EA95E00E949A0B4CEFA4
:10201000F42EFE0C1D5FEF2C01E023E0412F60E564
:1020200086EA95E00E94B20C02E023E0412F63E0D3
:1020300086EA95E00E94B20CD092C605D092C70500
:102040000091AB05FC2CF01AFB0C2EE44F2D63E045
:1020500086EA95E00E94770B13E0100F1F0D4FEFFB
:10206000410F2EE463E086EA95E00E94770B03506F
:1020700033E0F30E202F4F2D60E086EA95E00E94BA
:102080008F0C202F4F2D63E586EA95E00E948F0C80
:1020900041E06F2D83E00E94D31442E06F2D80E574
:1020A0000E94D314145044E0612F80E50E94D314A1
:1020B00048E0612F83E00E94D31484E08093AF0551
:1020C0008091AB05B81A8B2D815D8093B00580910E
:1020D000DC059091DD050E942C148091DE05815075
:1020E0008093DE058091740590917505892B09F424
:1020F00084C011E01093C6051092C7059091AA05FF
:1021000085E5891B8093AF051092B005809171051C
:10211000813009F455C030F090917005853008F099
:1021200067C062C060E08DE795E00E9421081092D0
:102130007E051093AE05E2E0F6E0E491EF5FE093F8
:10214000AA05E3E0F6E0E491EF5FE093AB0584E0FD
:1021500096E09093C5058093C40510927505109282
:1021600074051092AC0518EA0E94AE0D8823E1F3C5
:1021700084EF95E00E942C144091720550917305F4
:1021800060E070E02AE086EA95E00E944F058FED5E
:1021900095E00E942C14412F42954F7050E060E072
:1021A00070E02AE086EA95E00E944F0584ED95E014
:1021B0000E942C1480916D05813009F0FAC01DC079
:1021C0008091C9059091CA05A091CB05B091CC052D
:1021D0008F709927AA27BB270897A105B10510F48E
:1021E00087E009C088E707C0992339F08B5F03C0F7
:1021F000992319F08FE20E9451150E94EC138091EF
:10220000AC0581110EC088EF91E0EBEBF2E0DF014D
:102210009C011D9221503040E1F71092AF051092C1
:10222000B0050E94FB066093D3057093D40580939C
:10223000D5059093D6052091CF053091D005621B2E
:10224000730B7093CE056093CD0580E0CCC02FB7A3
:10225000F8948091B7029091B802A091B902B09120
:10226000BA022FBF2091D705820F911DA11DB11D6C
:102270008093D8059093D905A093DA05B093DB0538
:102280008091C9059091CA05A091CB05B091CC056C
:102290000196A11DB11D8093C9059093CA05A09315
:1022A000CB05B093CC051092D3051092D4051092B3
:1022B000D5051092D6050E94FB066093CF0570935A
:1022C000D0058093D1059093D205809159059091C6
:1022D0005A052FE0289F8001299F100D112485E1C8
:1022E0000E94E406800F911F24E0969587952A9519
:1022F000E1F790935A0580935905209158052223C0
:1023000009F44BC060915C05262F30E040E050E0BE
:1023100029833A834B835C83C0905D05D12CE12CEB
:10232000F12C40916005509161054A01A12CB12C1E
:1023300020915E0530915F052901612C712C821777
:10234000930728F09C014817590708F49A01C9011E
:10235000A0E0B0E09C01AD012419350946095709F8
:1023600069817A818B819C816C197D098E099F0915
:102370000E94851FA50194012419350946095709B2
:102380000E946121C20ED31EE41EF51EC0925B05A1
:102390006C2D70E085E00E9485060E9479130E94F2
:1023A0005C1581E020C0893209F05ECC0E945D148A
:1023B0005BCC115009F0D8CE60E070E085E00E945F
:1023C000850683B7817F846083BF83B7816083BFC5
:1023D00083B7816083BF889583B78E7F83BF83B7C0
:1023E0008E7F83BFC1CE0F900F900F900F90DF9123
:1023F000CF911F910F91FF90EF90DF90CF90BF9002
:10240000AF909F908F907F906F905F904F900895C6
:10241000CF92DF92EF92FF920F931F93CF93DF93B0
:10242000EC0181E08093AE051092AD051092AC05F1
:10243000109270058093C6058093C7051CE00E942A
:10244000AE0D8823E1F3FE018491882319F00091F9
:10245000AB0501C000E02AE335E040E060E086EA39
:1024600095E00E9466084CE0400F24E334E060E011
:1024700086EA95E00E9466081092AF051093B005B9
:10248000CE010E942C148091AA05982F990F890FD4
:1024900081958D5A8093AF058091AB05982F990F48
:1024A000890F8195835D8093B0058091C90584FF74
:1024B00003C086E395E002C082E395E00E944D14DC
:1024C0008091AA05982F990F890F81958D5A809335
:1024D000AF058091B0058F5F8093B0058091820534
:1024E000882319F08EE295E002C08AE295E00E940E
:1024F0004D149091AA05892F880F980F91959D5A98
:102500009093AF058091B0058F5F8093B00586E210
:1025100095E00E944D1480916E058130C9F4809140
:1025200082058F5F6091830587FD09C0082E000C2E
:10253000990B70E06F5F7F4F0E94A11F682F60931F
:10254000820540E06AEA75E08DE795E00E94320876
:1025500080916D058130A9F08091C805482F50E029
:1025600060E070E0C090C905D090CA05E090CB054E
:10257000F090CC05C416D506E606F706F8F08F3FB6
:10258000E9F08FEF8093C80560E08DE795E00E9449
:10259000210810927E0540E06CE274E08DE795E042
:1025A0000E94320881E080937005DF91CF911F91E6
:1025B0000F91FF90EF90DF90CF90089580916F057D
:1025C000813009F03CCF0E945D1439CF40E064E2D5
:1025D00074E08DE795E00C943208BC0186EA95E042
:1025E0000C943A05BF92CF92DF92EF92FF920F9335
:1025F0001F93CF93DF93182F062FC42F81E0F82E5F
:10260000F41AE42EE194EE0C460F612F86EA95E071
:102610000E941F0B402F4C1B612F86EA95E00E9401
:102620001F0B6C2F610F402F86EA95E00E941F0B55
:10263000612F6C1B402F86EA95E00E941F0BD0E0B3
:10264000DC170CF04CC0F7FC04C0C150E394E394D9
:10265000FE0CDF5F8D2F880F8F5FF80EBD2EB10E41
:10266000DC2ED00E4D2D6B2D86EA95E00E941F0BBF
:10267000C12ECD1A4D2D6C2D86EA95E00E941F0BC0
:10268000D02EDC1A4D2D6B2D86EA95E00E941F0B93
:102690004D2D6C2D86EA95E00E941F0BDD2ED00E8D
:1026A0004D2DCC2EC10E6C2D86EA95E00E941F0B9D
:1026B0004D2DD12EDC1A6D2D86EA95E00E941F0B60
:1026C000B02EBD1A4B2D6C2D86EA95E00E941F0B93
:1026D0004B2D6D2D86EA95E00E941F0BB1CFDF9147
:1026E000CF911F910F91FF90EF90DF90CF90BF900F
:1026F0000895CF92DF92EF92FF920F931F93CF93A3
:10270000DF93C2E6D5E009E615E0FF24FA9497E0EE
:10271000E92EE00E62E088810E944906288130E0BF
:10272000F901E95EF74F8491F901ED5FF74FC4902D
:10273000F901E151F84FD490DD2071F081110E9430
:10274000F005ED2DF0E0EE0FFF1FEB51F84FA591D6
:10275000B491EC91EC21B1F4F80180818F5F80831A
:1027600060E088810E94490621960F5F1F4FE012AA
:10277000D1CFDF91CF911F910F91FF90EF90DF901C
:10278000CF900895F8018081882371F3F8018F3F7D
:1027900011F41082E5CFF082E3CFCF93C82FF894E5
:1027A00060E08091B5050E9419068091B605181663
:1027B0001CF460E00E941906CEBD00000DB407FEB7
:1027C000FDCF8EB58091B60518161CF461E00E940D
:1027D00019067894CF9108950F931F93CF9380910A
:1027E000B2058F5F8093B2050BEB12E0C0E08C2F37
:1027F00080640E94CD1380E80E94CD1361E0809137
:10280000B5050E9419068091B60518161CF460E003
:102810000E94190680E090E0F801E80FF91F20817E
:102820002EBD00000DB407FEFDCF2EB501968435F8
:10283000910591F78091B60518161CF461E00E948D
:102840001906CF5F0C5A1F4FC63089F680E4CF912E
:102850001F910F910C94CD130F931F93CF93DF9380
:102860008C01C0E0D0E0F801EC0FFD1F64916623FD
:1028700071F0E091A605F091A7050190F081E02D9F
:1028800086EA95E00995892B11F02196ECCFCE01CF
:10289000DF91CF911F910F910895CF93DF930E9405
:1028A0002C14EC0161E572E086EA95E00E943A059D
:1028B0008C0F9D1FDF91CF91089588EF91E0EBEB96
:1028C000F2E0DF019C011D9221503040E1F71092AF
:1028D000AF051092B0058DEB97E00E942C140E947A
:1028E000EC138CB583608CBD8DB58E7F8DBD85E975
:1028F00092E0EEEFFFE309951092AC0588E997E0CE
:102900000E944D140E94EC130E94791380916D0572
:10291000813039F062E370E080E090E00E942007AF
:10292000F3CF0895CF93DF93482F50E0EA01C85AC0
:10293000DA4F9DA19923A1F19EA1911131C09EA5CD
:10294000FA01EE0FFF1FE15AFA4F35A126A1E32F3E
:10295000F22FE90FF11DE90FF11D259134912F3F61
:102960009FEF390711F41DA21BC039AB440F551F4F
:10297000FA01EE59FA4F3327220F331F05A0F6A1B3
:10298000E02DE20FF31F65917491811105C040E0C5
:102990008DE795E00E94320829968DA18F5F8DA367
:1029A000DF91CF910895AF92BF92CF92DF92EF92D5
:1029B000FF920F931F93CF93DF93182F062FC1E041
:1029C000D3E08AEFD82E9EEFE92E842F8470C82E94
:1029D000842F8270B82E842F8870A82E4170F42E18
:1029E0008C2F880F8F5FE80ECC2081F04D2F400F89
:1029F0006C2F610F86EA95E00E941F0B4C2F400F51
:102A00006D2F610F86EA95E00E941F0BBB2081F0BD
:102A1000402F4D1B6C2F610F86EA95E00E941F0B23
:102A2000402F4C1B6D2F610F86EA95E00E941F0B13
:102A3000AA2081F04C2F400F612F6D1B86EA95E094
:102A40000E941F0B4D2F400F612F6C1B86EA95E0F3
:102A50000E941F0BFF2081F0402F4C1B612F6D1B2C
:102A600086EA95E00E941F0B402F4D1B612F6C1BC7
:102A700086EA95E00E941F0BCD1744F4E7FC04C0E2
:102A8000D150D394D394ED0CCF5FAACFDF91CF91E7
:102A90001F910F91FF90EF90DF90CF90BF90AF907C
:102AA0000895E091A605F091A7050190F081E02D31
:102AB000682F86EA95E009948091740590917505D8
:102AC000892BB1F180917C058F7169F584E10E94B9
:102AD000E406BC01990F880B990B0E94002026EE9A
:102AE0003FE34EEC50E40E9464200E94CF1F9B0104
:102AF0007093730560937205672B91F084E0809367
:102B00007105E4E7F5E080E0419151912417350724
:102B100018F48093710508958F5F8430A9F703C07E
:102B20008FEF8093710580917C058F5F80937C058A
:102B300008952F923F924F925F926F927F928F9261
:102B40009F92AF92BF92CF92DF92EF92FF920F933C
:102B50001F93CF93DF9300D01F92CDB7DEB7362EF1
:102B60006A01FA0104913196E49110E07801F7E0EE
:102B7000EF0EF11C93E0F594E7949A95E1F750E09D
:102B800020E8A22EB12C8E2E912C8150582E5E0E54
:102B9000852F052E000C990B801791070CF047C06C
:102BA000952F57FF02C097E0950F959595959595B0
:102BB000852F877887FF03C08150886F8F5F35012D
:102BC00002C0759467948A95E2F7412C892F990F7A
:102BD000990B9C012E5F3F4F3B832A83252E230CAC
:102BE000842D042C000C990B88159905F4F48E9D06
:102BF000F0018F9DF00D9E9DF00D11242A813B81E7
:102C0000E20FF31FEC0DFD1D249130E0262137214A
:102C1000232B49F0422D652D641986EA95E05983EE
:102C20000E941F0B59814394DBCF5F5FB1CF0F90A0
:102C30000F900F90DF91CF911F910F91FF90EF9028
:102C4000DF90CF90BF90AF909F908F907F906F90CC
:102C50005F904F903F902F900895CF93DF9390E136
:102C6000899FE0011124FE01E45DFD4F84858B30D6
:102C700008F08AE080939305C45DDD4F40E06881F1
:102C80008DE795E00E94A407888581959091810544
:102C90002A85299F202D112420939605809397053E
:102CA0008C818A532E81299F202D112420939805F1
:102CB000809399058E852A8120939105899F802D87
:102CC0001124809392051092A2051092A1051092F2
:102CD000A00581E0809394058093B202109295053F
:102CE000DF91CF910895CF93DF93C82FD62F22E0A5
:102CF000462F682F86EA95E00E94770B41E04D0F42
:102D000022E06C2F86EA95E00E94770B22E04D2F9F
:102D10006C2F86EA95E00E948F0C61E06C0F22E038
:102D20004D2F86EA95E0DF91CF910C948F0CCF93D5
:102D3000DF93CDB7DEB767970FB6F894DEBF0FBE4F
:102D4000CDBF789484B5826084BD84B5816084BD34
:102D500085B5826085BD85B5816085BD80916E0039
:102D6000816080936E00109281008091810082606A
:102D700080938100809181008160809381008091A7
:102D800080008160809380008091B1008460809396
:102D9000B1008091B00081608093B00080917A0092
:102DA000846080937A0080917A00826080937A00B8
:102DB00080917A00816080937A0080917A008068A7
:102DC00080937A001092C100E091CB04F091CC0482
:102DD00082E08083E091C704F091C8041082E09102
:102DE000C904F091CA048FEC80831092D304E0915F
:102DF000CF04F091D00486E08083E091CD04F0917F
:102E0000CE04808180618083E091CD04F091CE0476
:102E1000808188608083E091CD04F091CE04808130
:102E200080688083E091CD04F091CE0480818F7D15
:102E3000808382E38093D70581E090E0A0E0B0E05A
:102E40008093D3059093D405A093D505B093D60570
:102E50008FEF8093C805E0E8F7E7259134912130A2
:102E6000304C09F049C0E6E9F7E7E491E093B10599
:102E7000E7E9F7E7E491E0935C05E8E9F7E7E49137
:102E8000E0935D05E9E9F7E78591949190935F05FB
:102E900080935E05EBE9F7E7859194919093610546
:102EA0008093600588E080938305EEE9F7E7E4917D
:102EB000E0938205EFE9F7E7E491E093C805E0EAE3
:102EC000F7E7859194919093750580937405E2EAF4
:102ED000F7E7859194919093770580937605E4EADE
:102EE000F7E7859194919093790580937805E6EAC8
:102EF000F7E7859194912CC09CE39093B1051092D3
:102F00005C0580935D0580E293E090935F0580937C
:102F10005E0584ED93E0909361058093600588E001
:102F200080938305809382058CEA9DE090937505DC
:102F3000809374058EED9DE09093770580937605E0
:102F400084E79EE090937905809378058CE39FE079
:102F500090937B0580937A0511E0109358056FEFED
:102F600070E085E00E94850688E08093620589E034
:102F70008093630587E08093640586E08093650510
:102F800004E00093660582E08093670581E1809309
:102F900068050E9479138CE39FE0909373058093FA
:102FA00072050093710510937C058BE08093B40546
:102FB0008DE08093B30580E18093B5058EE080932A
:102FC000B7058FE08093B6051093AE051093C60544
:102FD0001092C7051093AD05E2E0F6E0E491EF5FD3
:102FE000E093AA05E3E0F6E0E491EF5FE093AB0540
:102FF00084E096E09093C5058093C4051FB7F894CC
:1030000080919D02811127C0E9EFF7E08491EDE006
:10301000F8E09491E82FF0E0EE0FFF1FEC58FF4F1F
:10302000A591B491EC91E92321F461E08AE00E943A
:10303000190661E08AE00E9449068CB580618CBD6A
:103040008CB580648CBD61E08DE00E94490661E032
:103050008BE00E94490680919D028F5F80939D02C4
:103060001FBF8CB58F7D8CBD8CB58C7F81608CBD76
:103070008DB581608DBD8CB58C608CBD61E080911B
:10308000B4050E94490661E08091B3050E9449069B
:1030900061E08091B5050E9449068091B705181638
:1030A0001CF461E00E9449068091B60518161CF4D4
:1030B00061E00E9449068091B705181674F460E03B
:1030C0000E9419066AE070E080E090E00E9420070C
:1030D00061E08091B7050E9419068091B305082E22
:1030E000000C990BFC01E151F84FE491F0E0EE0F78
:1030F000FF1FE258FF4F259134913093BB05209379
:10310000BA05FC01ED5FF74FE491E093C1058091B2
:10311000B405082E000C990BFC01E151F84FE49125
:10312000F0E0EE0FFF1FE258FF4F259134913093EE
:10313000B9052093B805FC01ED5FF74FE491E093EA
:10314000C0058091B605082E000C990BFC01E151D9
:10315000F84FE491F0E0EE0FFF1FE258FF4F25918A
:1031600034913093BD052093BC05FC01ED5FF74F12
:10317000E491E093C2058091B505082E000C990BEF
:10318000FC01E151F84FE491F0E0EE0FFF1FE2582F
:10319000FF4F259134913093BF052093BE05FC016C
:1031A000ED5FF74FE491E093C30581E20E94CD13F8
:1031B00084E10E94CD138091B10587FF03C08FE7A2
:1031C0008093B1058091B10580680E94CD1380E2A3
:1031D0000E94CD138CE00E94CD130E94EC1381E07D
:1031E0008093810584E08093A50580E790E090932B
:1031F0008D0580938C0540E060E08DE795E00E94AE
:10320000A40761E070E083E00E9485068091B10030
:10321000887F81608093B100F894109280001092B2
:103220008100109285001092840088E191E09093D3
:10323000890080938800809181008860809381005C
:103240008091810081608093810080916F00826015
:1032500080936F0078940E945C1580916E05813098
:1032600019F4109282050BC0809171058823C9F36F
:1032700040E068E870E08DE795E00E9432088091B8
:10328000C805882321F086E990E00E940812C090CA
:103290007205D0907305C094D094E12CF12C0E945B
:1032A000FB064B015C010E94FB06A50194012095E1
:1032B00030954095509560957095809590950E94B9
:1032C000851F9B01AC01C701B6010E94851F4B0100
:1032D0005C018091590590915A056C01E12CF12C0B
:1032E0000E94FB06C60ED71EE81EF91EC701B601D6
:1032F000680D791D8A1D9B1D61157105810591055C
:1033000011F00E945821109270058AEC91E0880F0C
:10331000991FFC013996FA87E9871092A202109250
:10332000A00203EA12E0A8EAB1E09AEAA92E91E02D
:10333000B92E6CEA71E080E090E0DD24DA9424E0BC
:10334000C22E20E030E0FB01E20FF31FD082118299
:1033500012822D5F3F4F2F303105A9F720E030E07A
:1033600040E050E07901E80EF91EFA01EE0DFF1D74
:10337000EA5FFE4FD0824F5F5F4F49305105A9F79A
:10338000275F3F4F2135310559F7F80111928F0121
:10339000CD92F501C1925F018F5A9F4F615F7F4FC0
:1033A000823A910571F60AECA02E01E0B02ED12CE4
:1033B000812C912C88E0782E6624639414E004E03C
:1033C000312CB4E0EB2EFD2DF170CF2E8FE0889DD7
:1033D0002001899D500C11240E94AE0D8823E1F339
:1033E0000E94660D8C2D0E94E70A1092C60510926D
:1033F000C705C5010E94A8096092C6056092C7056D
:1034000087E592E00E94A8098CE492E00E94A80956
:103410002E2D30E03A83298349E0429FC001439F2B
:10342000900D112489519E4F0E94A80961E572E018
:1034300086EA95E00E943A0584E592E00E94A80998
:103440008DE592E00E94A80980916E05F32C8130F1
:1034500091F4F82689819A81800F911D099724F0B3
:10346000FF2011F0072D0E1989819A81810F911D7E
:1034700009970CF0AFC080916D058130A1F5312C1A
:10348000832D90E029813A81281739078CF0F110BB
:1034900003C0432D60E002C0632D40E0410F600F88
:1034A0008C2D0E94B6098F3F09F09AC03394E8CF63
:1034B00089819A81880F991F29813A81820F931FF0
:1034C000840D951DFC01E455FE4F00831183F282AB
:1034D00040E06CE274E08DE795E00E943208EE2057
:1034E00009F48AC0EA9480916A05813021F411239D
:1034F00009F48FC4115080916C05813089F42F2D0F
:1035000030E021503109E29EC001E39E900D11246C
:103510000796212F30E0821793070CF47DC41F5FBC
:1035200080916905813021F4002309F478C40150A9
:1035300080916B05813069F4202F30E088E090E0C5
:10354000EF9C801991091124281739070CF06AC4DF
:103550000F5F80916F05813009F467C41092C60532
:103560001092C705312E330C330C832D810F8D5FE4
:103570008983202E220C220C822D800FA3E02A2E7C
:10358000280E312C412F50E05C834B83202F30E0FC
:103590003E832D83632D70E0FF2059F04D815E81C5
:1035A000640F751F862F880F880F860F69818D5FC6
:1035B0000AC02B813C81620F731F862F880F880FF2
:1035C000680F6D5F822D0E9473163394E31410F719
:1035D0003F2C02CF332009F44ECF172D1E194BCFAD
:1035E0000E94E6124CEC53E05093DD054093DC055D
:1035F00050E25093DE0577CFD3943D2D3170D32E1A
:1036000049E0A40EB11C8A94892821F0882483946F
:10361000912CD4CE81E08093A9028091A9028823C5
:1036200009F4F4C3EAECAE2EE1E0BE2E212C312CDD
:1036300010E0822D81958F838091A902882369F300
:103640001092A7021092A6021092A50210929C025C
:1036500049845A844A185B08812CEE24FF24E2181E
:10366000F308F101ED55FD4FFE83ED83992493940A
:10367000910126553E4F3A832983A10148555E4F5B
:103680005C834B83CF80C92459E0C59EC0011124BF
:10369000FC01E653FE4F6F01ED81FE8181818111B6
:1036A00002C072E0872E1092A802F12FF1707F2ED7
:1036B0000E94AE0D8823E1F380910101815009F44D
:1036C00088E5809301010091010100FD07C0809110
:1036D0000001815009F488E58093000183E0809324
:1036E000C6058093C7056090000120E831E040E006
:1036F000662D86EA95E00E94660868EA660D20E875
:1037000031E040E086EA95E00E9466081092C60526
:103710001092C70520E131E040E0602F86EA95E095
:103720000E94660868EA662E600E20E131E040E003
:10373000662D86EA95E00E9466089092C6059092F2
:10374000C70520EA30E040E0602F86EA95E00E945D
:10375000660820EA30E040E0662D86EA95E00E94A7
:1037600066088091A5028F3058F08091A7028111E0
:1037700007C080919E02892580939E021092A50227
:103780004091A6024A5E80919E02480F24E334E0F5
:103790006AE086EA95E00E94660883E08093C605A9
:1037A0008093C7050EE024E543E260E086EA95E0F9
:1037B0000E949A0B8091A5028F5F8093A50221E061
:1037C000821281C0ED81FE818181882309F47BC052
:1037D000E981FA814181EB81FC816181872D0E9421
:1037E000B609082F8F3F09F45DC0682F872D0E940E
:1037F000FF09882309F446C08092A7028091A8029D
:10380000811129C08092A802023091F038F400237F
:1038100061F00130E9F48BE492E013C0033079F0F9
:103820000430B1F48CE192E00CC08BE592E009C069
:103830002BE332E03093DD052093DC0506C08AE2FD
:1038400092E09093DD058093DC058BE18093DE05AB
:1038500081E00E942D160E94180D9092A20200E0B5
:10386000602F872D0E94FF09811102C01092A202D1
:103870000F5F0530A9F78091A202882321F11092F1
:10388000A90221C00E94180D8091A80281111BC0BD
:1038900081E00E942D1645EC53E05093DD054093E6
:1038A000DC050CC08091A80281110DC00E94E612B7
:1038B0008DEB93E09093DD058093DC0586E18093AA
:1038C000DE058092A8028091A20281112CC0909204
:1038D000C6059092C7058EE08093AF0580E1809386
:1038E000B00592E089120CC0C5010E94ED1286E677
:1038F00092E00E94ED128AE692E00E94ED1213C05F
:10390000C2010E94ED1286E692E00E94ED1260E78D
:1039100072E086EA95E00E943A0561E572E086EA87
:1039200095E00E943A058091A702882359F1809181
:10393000A502853048F01092A5028091A6028A3037
:1039400018F48F5F8093A6029092C6059092C705E7
:103950004091A6024A5E80919E02480F24E334E023
:103960006AE086EA95E00E94660883E08093C605D7
:103970008093C7050EE024E543E260E086EA95E027
:103980000E949A0B8091A5028F5F8093A50280917F
:103990009F028A3088F010929F028091030180314B
:1039A00021F490E29093030104C080E1809303012D
:1039B00080E28093040103C08F5F80939F02109286
:1039C000C6051092C70586E48093AF0589E280930F
:1039D000B00582E091E00E94ED128091A20288235E
:1039E00009F458C00091A0020A3218F01092A902FE
:1039F0000DC0023158F485E190E0801B9109582FE9
:103A0000550F550F000F000F025302C002E150E1A5
:103A10001092C6051092C7056FEF650F2CE433E0D6
:103A200047E086EA95E05D8B0E9466086FEF600FC5
:103A30002CEF32E046E186EA95E00E94660890921B
:103A4000C6059092C7052DEA32E048E05D89652FF2
:103A500086EA95E00E94660829E632E047E1602F99
:103A600086EA95E00E9466081092C6051092C70586
:103A700082E08093AF0589E28093B005C6010E9481
:103A8000ED1286E792E00E94ED128091A0028F5F16
:103A90008093A00200916D0580916F05813009F43B
:103AA000C7C1013009F004CE8394E3E08E12F4CD57
:103AB000D701A855BE4F3C913F8BF701E655FE4F0D
:103AC00030813E8B4090A2024026312F31703887E2
:103AD00081E58E9DA0018F9D500D1124588B4F873D
:103AE00097012D553D4F3E832D83BA8BA98BFC8BBF
:103AF000EB8B442009F47DC10E94AE0D8823E1F3D5
:103B00000E94660D68847090A102772031F0862DA6
:103B10000E94E70A81E0612E6826862D90E0E1E5AB
:103B2000E89FA001E99F500D11245C874B8732E08C
:103B30003B83C12CD12C21E0622641E050E0481BA0
:103B4000590B2FE0249FF001259FF00D1124FE87D3
:103B5000ED875B8053948B849C848C0C9D1C52E07D
:103B60005983E12CF12CF701E80DF91DEA5FFE4FB6
:103B70004081453070F5642F862D4D8B0E94FF09E2
:103B80004D89811109C01092C6051092C70504E045
:103B900024E04B81698128C0242F30E0C901880FBF
:103BA000991FFC01E20FF31F2D853E85E20FF31FE5
:103BB000E455FE4F8081618121E09281911101C025
:103BC00020E0772011F000E001C003E00E943A0AF3
:103BD0000FC04E3F69F41092C6051092C70502E06F
:103BE00022E0452D69816F5F86EA95E00E949A0B7D
:103BF00039E0E30EF11C59815B5F59835F3209F0B4
:103C0000B2CF8FEFC81AD80A3B813B5F3B8349E0B4
:103C1000C416D10409F09DCF80916A05813039F432
:103C20003E89332309F407C13E8931503E8B809190
:103C30006C05813039F43E89383008F0FFC03E8988
:103C40003F5F3E8B80916905813039F43F89332392
:103C500009F4F7C03F8931503F8B80916B0581306B
:103C600039F43F89383008F0EFC03F893F5F3F8B20
:103C700000916D05013001F571101EC08F85988986
:103C80003F8949E0349F800D911D11248A5F9E4F2A
:103C90007C013E89E30EF11CF70180818F3F09F41E
:103CA000D6C00E94E61229EA33E03093DD05209366
:103CB000DC0580E28093DE0580916E05813009F499
:103CC000E4C08F3F09F4E4C080916F05813009F4AE
:103CD000E2C08091A102811132C083E08093C605C9
:103CE0008093C7050E89000F000F3E89030F3F899F
:103CF000330F330F4F89340F43E0F42EF30E4DEFA3
:103D0000400F2DE06F2D86EA95E03D8B0E948F0CD1
:103D10000D5F3D896DEF630F2DE0402F86EA95E042
:103D20000E94770B1092C6051092C70547E0602FDE
:103D30008F2D0E94F212602F8F2D0E947316FF2488
:103D4000F394F092C605F092C70507E022E240E046
:103D500061E386EA95E00E949A0B1092C6051092E4
:103D6000C70508E222E248E061E386EA95E00E94A6
:103D70009A0BC5010E94A8098091B0058A5F8093C3
:103D8000B005F092C605F092C705ED81FE81408135
:103D900001E0040F82E38093AF058DE792E00E947B
:103DA000ED12402F50E060E070E02AE086EA95E0F6
:103DB0000E944F0561E572E086EA95E00E943A05AF
:103DC0008091B0058A5F8093B0058091A102811136
:103DD00005C083E892E00E94A80906C061E572E090
:103DE00086EA95E00E943A058CE892E00E94A809D4
:103DF00080CEF9E0AF0EB11C1F5F1170232020941C
:103E000009F40BCC22242A94322C13CC0E942E05C8
:103E100084CA0E94E6126FCB0E94E61281CB0E94F8
:103E2000E61286CB0E94E61294CB0E94120B96CB30
:103E30000E94120B36CE0E94E612F9CE0E94E612C4
:103E400001CF0E94E61209CF0E94E61211CF80E056
:103E50000E942D16ED81FE8180818F5F80838F818E
:103E600080274E896F8981700E94B6098F3F09F4BF
:103E70008EEFF70180833F89E989FA8930833E8993
:103E8000EB89FC893083412C17CF8093A1021CCF92
:103E90001092A10219CF0E94120B1BCFEBEBF4E0A2
:103EA0001382128288EE93E0A0E0B0E084839583D1
:103EB000A683B78388E192E09183808385EC90E0CC
:103EC0009587848784EC90E09787868780EC90E0E4
:103ED000918B808B81EC90E0938B828B82EC90E0D5
:103EE000958B848B86EC90E0978B868B118E128E4F
:103EF000138E148E1092A9051092A80588E292E004
:103F00009093A7058093A6050895DB018F939F9357
:103F10000E948021BF91AF91A29F800D911DA39F10
:103F2000900DB29F900D11240895991B79E004C063
:103F3000991F961708F0961B881F7A95C9F78095E8
:103F4000089597FB072E16F4009407D077FD09D04B
:103F50000E94B51F07FC05D03EF4909581959F4FB8
:103F60000895709561957F4F0895AA1BBB1B51E181
:103F700007C0AA1FBB1FA617B70710F0A61BB70BD9
:103F8000881F991F5A95A9F780959095BC01CD017E
:103F90000895EE0FFF1F0590F491E02D09940E9403
:103FA000432088F09F5798F0B92F9927B751B0F068
:103FB000E1F0660F771F881F991F1AF0BA95C9F7AD
:103FC00014C0B13091F00E945D20B1E008950C94CE
:103FD0005D20672F782F8827B85F39F0B93FCCF381
:103FE000869577956795B395D9F73EF4909580952A
:103FF000709561957F4F8F4F9F4F0895E89409C04A
:1040000097FB3EF490958095709561957F4F8F4F0B
:104010009F4F9923A9F0F92F96E9BB279395F69521
:10402000879577956795B795F111F8CFFAF4BB0F9F
:1040300011F460FF1BC06F5F7F4F8F4F9F4F16C003
:10404000882311F096E911C0772321F09EE8872F8D
:10405000762F05C0662371F096E8862F70E060E049
:104060002AF09A95660F771F881FDAF7880F9695C2
:10407000879597F9089557FD9058440F551F59F0AB
:104080005F3F71F04795880F97FB991F61F09F3F45
:1040900079F087950895121613061406551FF2CF6E
:1040A0004695F1DF08C0161617061806991FF1CFBE
:1040B00086957105610508940895E894BB276627E5
:1040C0007727CB0197F908950E9477200C94E82078
:1040D0000E94DA2038F00E94E12020F0952311F0B0
:1040E0000C94D1200C94D72011240C945E200E94B3
:1040F0003B2070F3959FC1F3950F50E0551F629FD1
:10410000F001729FBB27F00DB11D639FAA27F00D30
:10411000B11DAA1F649F6627B00DA11D661F829F57
:104120002227B00DA11D621F739FB00DA11D621F3C
:10413000839FA00D611D221F749F3327A00D611D59
:10414000231F849F600D211D822F762F6A2F11243B
:104150009F5750409AF0F1F088234AF0EE0FFF1F6E
:10416000BB1F661F771F881F91505040A9F79E3FC5
:10417000510580F00C94D1200C945E205F3FE4F355
:10418000983ED4F3869577956795B795F795E7951B
:104190009F5FC1F7FE2B880F911D9695879597F924
:1041A000089597F99F6780E870E060E008959FEFB9
:1041B00080EC089500240A941616170618060906BE
:1041C000089500240A94121613061406050608958D
:1041D000092E0394000C11F4882352F0BB0F40F415
:1041E000BF2B11F460FF04C06F5F7F4F8F4F9F4F55
:1041F000089581E090E0F8940C94C421DC0101C0A2
:104200006D9341505040E0F708958F929F92AF9286
:10421000BF92CF92DF92EF92FF92CF93DF93EC01A8
:10422000688179818A819B8161157105810591057C
:1042300021F464E279ED8BE597E02DE133EF41E085
:1042400050E00E94612149015A019B01AC01A7EA9B
:10425000B1E40E9480216B017C01ACEEB4EFA501BA
:1042600094010E948E21DC01CB018C0D9D1DAE1DA1
:10427000BF1DB7FF03C00197A109B0488883998388
:10428000AA83BB83BC01CD019F77DF91CF91FF90C3
:10429000EF90DF90CF90BF90AF909F908F90089558
:1042A0000E940521089583EE91E00E940521089562
:1042B0006093E3017093E4018093E5019093E6013C
:1042C0000895052E97FB1EF400940E94782157FD57
:1042D00007D00E94932107FC03D04EF40C94782160
:1042E00050954095309521953F4F4F4F5F4F089522
:1042F00090958095709561957F4F8F4F9F4F089552
:104300000E94B521A59F900DB49F900DA49F800D94
:10431000911D11240895B7FF0C9480210E948021E3
:10432000821B930B0895A1E21A2EAA1BBB1BFD0151
:104330000DC0AA1FBB1FEE1FFF1FA217B307E40784
:10434000F50720F0A21BB30BE40BF50B661F771FDC
:10435000881F991F1A9469F76095709580959095BC
:104360009B01AC01BD01CF010895A29FB001B39F95
:10437000C001A39F700D811D1124911DB29F700D6E
:0C438000811D1124911D0895F894FFCFB9
:10438C00585815102000FFFFFFFFFFFFFFFFFFFF36
:10439C00FFFFFFFFFFFFFFFFFFFFFFFFFFFFFFFF21
:1043AC00FFFFFFFFFFFFFFFFFFFFFFFFFFFFFFFF11
:1043BC00FFFFFFFFFFFFFFFFFFFFFFFFFFFFFFFF01
:1043CC00FFFFFFFFFFFFFFFFFFFFFFFFFFFFFFFFF1
:1043DC00FFFFFFFFFFFFFFFFFFFFFFFFFFFFFFFFE1
:1043EC00FFFFFFFFFFFFFFFFFFFFFFFFFFFFFFFFD1
:1043FC00FFFFFFFFFFFFFFFFFFFFFFFFFFFFFFFFC1
:10440C00FFFFFFFFFFFFFFFFFFFFFFFFFFFFFFFFB0
:10441C00FFFFFFFFFFFFFFFFFFFFFFFFFFFFFFFFA0
:10442C00FFFFFFFFFFFFFFFF04040404FF0000FF7A
:10443C000000FF0000FF0000FF0000FF0000FF0075
:10444C0000FF0000FF0000FF0000506C61796572F6
:10445C00310000506C61796572320000010000DFA0
:10446C0005800001000000437275697365720000DD
:10447C005375626D6172696E0044657374726F7905
:10448C0072004261742E53686970004361727269E4
:10449C006572000000000000C50441048E046C0429
:1044AC0080040C0500000000C30B41040100000057
:1044BC00390001000200090007001400010004008B
:1044CC003A0000000100040007001100796F7572BA
:1044DC00000D0A00413A20506C61636500423A209D
:1044EC00526F74617400277320007475726E210012
:1044FC0073686F743A002077696E73210053686F8C
:10450C00742000413A2053686F6F7400423A205473
:0C451C006F67676C004C4F414445520033
:00000001FF
